:020000040800F2
:1000000000000220D1150008891200089112000892
:1000100099120008A1120008A912000800000000AF
:1000200000000000000000000000000091E7000850
:10003000B112000800000000E1E9000849EA0008E8
:1000400021160008211600082116000821160008B4
:1000500021160008211600082116000821160008A4
:100060002116000821160008211600082116000894
:10007000C1120008211600082116000821160008E8
:100080002116000821160008211600082116000874
:10009000D5120008E91200082116000821160008F0
:1000A0002116000821160008211600082116000854
:1000B0002116000821160008211600082116000844
:1000C000211600082116000821160008FD1200085C
:1000D0002116000811130008211600082513000836
:1000E0002116000821160008211600082116000814
:1000F00021160008391300082116000821160008EF
:1001000021160008211600082116000821160008F3
:1001100021160008211600082116000821160008E3
:100120004D130008611300087513000889130008B7
:1001300021160008211600082116000821160008C3
:100140009D130008B11300082116000821160008AD
:1001500021160008C5130008D9130008ED13000884
:100160002116000821160008211600082116000893
:1001700021160008211600082116000800000000C2
:0801800001140008211600081B
:1001900053B94AB9002908BF00281CBF4FF0FF31EE
:1001A0004FF0FF3000F00CB8ADF1080C6DE904CE53
:1001B0000FF0ECF8DDF804E0DDE9022304B070474D
:1001C000704700BF10F8012B11F8013B012A28BF2E
:1001D0009A42F7D0D01A70470348044B834202D0AA
:1001E000034B03B118477047E0030020E0030020F1
:1001F000000000000548064B1B1AD90F01EBA301B4
:10020000491002D0034B03B118477047E0030020A8
:10021000E00300200000000010B5064C237843B92D
:10022000FFF7DAFF044B13B10448AFF3008001235A
:10023000237010BDE003002000000000880B0108BF
:1002400008B5054B1BB105490548AFF30080BDE873
:100250000840FFF7CFBF00BF00000000E40300200C
:10026000880B010802440346934200D1704703F80B
:10027000011BF9E770B50D4D0D4C641BA410002651
:10028000A64209D10B4D0C4C10F07EFC641BA4104F
:100290000026A64205D170BD55F8043B98470136AB
:1002A000EEE755F8043B98470136F2E714210108C0
:1002B0001421010814210108182101087047704712
:1002C00070B50F4E0C463168054611B900F0A6F81E
:1002D00030602146284600F0A1F8431C03D14FF0BE
:1002E000FF34204670BDC41C24F00304A042F8D0A3
:1002F000211A284600F092F80130F2D1EFE700BF52
:100300003C0500202DE9F843CD1C25F003050835F8
:100310000C2D38BF0C25002D064601DBA94204D95F
:100320000C2333600020BDE8F883DFF8D48000F0B0
:1003300069F8D8F800301C4644BB29463046FFF720
:10034000BFFF431C044658D1D8F800402746002F71
:1003500043D1002C4BD023683946304604EB0309C7
:1003600000F05CF8814542D121686D1A294630467B
:10037000FFF7A6FF01303AD023682B442360D8F85A
:1003800000305A6862BBC8F800700FE02268521B48
:1003900020D40B2A17D96119A342256018BF5960D0
:1003A000636808BFC8F8001062514B60304600F027
:1003B0002FF804F10B00231D20F00700C21A1CBF08
:1003C0001B1AA350AFE76268A3420CBFC8F8002015
:1003D0005A60EBE723466468AEE73C467F68B6E7C1
:1003E0001A465B68A342FBD100235360DEE70C236F
:1003F0003360304600F00CF894E70560D6E700BFA4
:10040000400500200148FFF759BF00BF3805002014
:100410000148FFF754BF00BF3805002038B5064D2E
:100420000023044608462B6001F09CF8431C02D1CF
:100430002B6803B1236038BD3405002080B500AFC0
:100440000BF0A0FA00F01CF800F09CF800F006FB9E
:1004500000F0A2F900F0D6F900F09AFB00F0A2FC3F
:1004600000F0CAFC00F0F4FC00F0C2FA00F054FB0B
:1004700008F0DAFD00F06CF90DF0CCFE00BFFDE7EE
:1004800080B594B000AF07F1200330220021184658
:10049000FFF7E8FE07F10C0300221A605A609A6029
:1004A000DA601A610023BB60284B1B6C274A43F0BB
:1004B00080531364254B1B6C03F08053BB60BB68F7
:1004C00000237B60224B1B68214A43F48043136066
:1004D0001F4B1B6803F480437B607B6801233B62F6
:1004E0004FF480337B620223BB634FF48003FB63D2
:1004F00006233B64A8237B640223BB640723FB64BD
:1005000007F12003184609F019FF0346002B01D01C
:1005100000F032F80F23FB6002233B6100237B6174
:100520004FF4A053BB614FF48053FB6107F10C0300
:10053000052118460AF07AF90346002B01D000F095
:100540001BF800BF5037BD4680BD00BF00380240D9
:100550000070004080B582B000AF78607B681B6897
:10056000044A934201D10BF02FFA00BF0837BD4671
:1005700080BD00BF0020004080B400AF72B600BF55
:1005800000BFFDE780B58CB000AF07F11C0300226F
:100590001A605A609A60DA601A610023BB615A4B94
:1005A0001B6B594A43F002031363574B1B6B03F059
:1005B0000203BB61BB6900237B61534B1B6B524A37
:1005C00043F040031363504B1B6B03F040037B610C
:1005D0007B6900233B614C4B1B6B4B4A43F001038F
:1005E0001363494B1B6B03F001033B613B69002321
:1005F000FB60454B1B6B444A43F008031363424BBB
:100600001B6B03F00803FB60FB680023BB603E4BE1
:100610001B6B3D4A43F0040313633B4B1B6B03F01E
:100620000403BB60BB6800237B60374B1B6B364AFF
:1006300043F080031363344B1B6B03F080037B6038
:100640007B680022402131480AF09EFC01221021E3
:100650002F480AF099FC012201212E480AF094FC4F
:100660004023FB6101233B6200237B620023BB62CA
:1006700007F11C03194625480AF0EAFA0823FB6132
:100680004FF404133B6201237B6207F11C031946FC
:100690001E480AF0DDFA0123FB6100233B620123BF
:1006A0007B6207F11C03194619480AF0D1FA10239E
:1006B000FB6101233B6201237B620223BB6207F1E2
:1006C0001C03194612480AF0C3FA3023FB614FF4A9
:1006D00004133B6200237B6207F11C0319460E489A
:1006E0000AF0B6FA0123FB6101233B6201237B621E
:1006F0000223BB6207F11C03194606480AF0A8FA58
:1007000000BF3037BD4680BD0038024000180240AF
:1007100000000240000402400008024080B485B09E
:1007200000AFF860B9607A60FB68074A1A60BB687E
:10073000064A1A607B6880221A6000BF1437BD46E3
:100740005DF8047B704700BF480500209C05002031
:10075000B0B588B000AF0A4B3C1D1D460FCD0FC48D
:1007600095E8070084E807003B1D002118460DF0BE
:1007700058FD0346034A136000BF2037BD46B0BD95
:10078000AC0B01084405002080B582B000AF786052
:1007900001200DF092FDFBE780B500AF174B184A22
:1007A0001A60164B03225A60144B00229A60134BB6
:1007B0000022DA60114B4FF410221A610F4B4FF4F4
:1007C00000125A610D4B00221A760C4B00225A7609
:1007D0000A4B00229A76094B0122DA76074B002257
:1007E0001A77064B00225A77044808F0EDFE0346BC
:1007F000002B01D0FFF7C0FE00BF80BD9C0700208A
:100800000064004080B500AF174B184A1A60164BC1
:1008100003225A60144B00229A60134B0022DA60C4
:10082000114B4FF410221A610F4B4FF400125A6112
:100830000D4B00221A760C4B00225A760A4B0022EE
:100840009A76094B0022DA76074B00221A77064B7C
:1008500000225A77044808F0B7FE0346002B01D067
:10086000FFF78AFE00BF80BDC4070020006800407B
:1008700080B58CB000AF786007F11C0300221A60CD
:100880005A609A60DA601A617B681B68524A934228
:1008900045D1524B1B680133504A13604F4B1B68C4
:1008A000012B0DD10023BB614D4B1B6C4C4A43F017
:1008B000007313644A4B1B6C03F00073BB61BB698C
:1008C00000237B61464B1B6B454A43F008031363CF
:1008D000434B1B6B03F008037B617B690323FB61C4
:1008E00002233B6200237B620323BB620923FB627A
:1008F00007F11C0319463B480AF0AAF9002205211A
:1009000014200BF015F814200BF02EF8002205210E
:1009100015200BF00DF815200BF026F857E07B683A
:100920001B68314A934252D100233B612C4B1B6C14
:100930002B4A43F080631364294B1B6C03F08063E4
:100940003B613B69254B1B680133244A1360234BF1
:100950001B68012B0DD10023FB60214B1B6C204A2F
:1009600043F0007313641E4B1B6C03F00073FB60B9
:10097000FB680023BB601A4B1B6B194A43F0020350
:100980001363174B1B6B03F00203BB60BB68602350
:10099000FB6102233B6200237B620323BB620923CA
:1009A000FB6207F11C03194610480AF051F90022B6
:1009B000052140200AF0BCFF40200AF0D5FF0022AC
:1009C000052141200AF0B4FF41200AF0CDFF00BF0D
:1009D0003037BD4680BD00BF00640040EC070020FA
:1009E00000380240000C0240006800400004024051
:1009F00080B500AF064B074A1A6005480BF004F8B3
:100A00000346002B01D0FFF7B7FD00BF80BD00BF3C
:100A1000F00700200030024080B485B000AF78605D
:100A20007B681B680B4A93420DD10023FB600A4B85
:100A30001B6B094A43F480531363074B1B6B03F48E
:100A40008053FB60FB6800BF1437BD465DF8047B34
:100A5000704700BF003002400038024080B582B0CD
:100A600000AF00237B602B4B1B6B2A4A43F48003AF
:100A70001363284B1B6B03F480037B607B680023AC
:100A80003B60244B1B6B234A43F400131363214B3D
:100A90001B6B03F400133B603B68002205210C2014
:100AA0000AF046FF0C200AF05FFF002205213820E3
:100AB0000AF03EFF38200AF057FF002205213920B6
:100AC0000AF036FF39200AF04FFF002205213A20B4
:100AD0000AF02EFF3A200AF047FF002205213B20B2
:100AE0000AF026FF3B200AF03FFF002205214520A7
:100AF0000AF01EFF45200AF037FF0022052146209C
:100B00000AF016FF46200AF02FFF00BF0837BD4647
:100B100080BD00BF0038024080B500AF064B074AD9
:100B20001A6005480AF08CFF0346002B01D0FFF73E
:100B300023FD00BF80BD00BFF8070020000806505D
:100B400080B584B000AF78607B681B680E4A934222
:100B500015D10023FB600D4B5B6B0C4A43F0400347
:100B600053630A4B5B6B03F04003FB60FB6800229E
:100B7000052150200AF0DCFE50200AF0F5FE00BFEF
:100B80001037BD4680BD00BF000806500038024047
:100B900080B500AF174B184A1A60164B4FF482729B
:100BA0005A60144B00229A60124B0022DA60114BFB
:100BB00002221A610F4B01225A610E4B4FF4007250
:100BC0009A610C4B1022DA610A4B00221A62094B1F
:100BD00000225A62074B00229A62064B0A22DA620E
:100BE00004480AF0C0FF0346002B01D0FFF7C4FC05
:100BF00000BF80BD080800200030014080B58AB0E9
:100C000000AF786007F1140300221A605A609A60FE
:100C1000DA601A617B681B685A4A934240F0AE80E2
:100C200000233B61584B5B6C574A43F48053536439
:100C3000554B5B6C03F480533B613B690023FB60C5
:100C4000514B1B6B504A43F0020313634E4B1B6B1B
:100C500003F00203FB60FB680023BB604A4B1B6B85
:100C6000494A43F001031363474B1B6B03F0010335
:100C7000BB60BB6818237B610223BB610123FB615E
:100C800003233B6205237B6207F1140319463F48A7
:100C900009F0DEFF80237B610223BB610123FB613E
:100CA00003233B6205237B6207F11403194638488E
:100CB00009F0CEFF374B384A1A60364B4FF0C0620E
:100CC0005A60344B00229A60324B0022DA60314B7A
:100CD0004FF480621A612F4B00225A612D4B002283
:100CE0009A612C4B0022DA612A4B00221A62294BAE
:100CF00000225A6227480AF061F90346002B01D00E
:100D0000FFF73AFC7B68234ADA64224A7B689363E4
:100D1000224B234A1A60214B4FF0C0625A601F4B8E
:100D200040229A601D4B0022DA601C4B4FF4806217
:100D30001A611A4B00225A61184B00229A61174B14
:100D40000022DA61154B00221A62144B00225A620B
:100D500012480AF033F90346002B01D0FFF70CFCD0
:100D60007B680E4A9A640D4A7B68936300220521D2
:100D700023200AF0DDFD23200AF0F6FD00BF28370E
:100D8000BD4680BD003001400038024000040240F2
:100D9000000002406008002010640240C0080020EB
:100DA0005864024080B500AF114B124A1A60104BD4
:100DB0004FF4E1325A600E4B00229A600C4B002235
:100DC000DA600B4B00221A61094B0C225A61084B66
:100DD00000229A61064B0022DA6105480BF0F0FA16
:100DE0000346002B01D0FFF7C7FB00BF80BD00BF4B
:100DF000200900200010014080B500AF114B124ABD
:100E00001A60104B114A5A600E4B4FF480529A6090
:100E10000C4B0022DA600B4B4FF480621A61094BD5
:100E20000C225A61074B00229A61064B0022DA61BC
:100E300004480BF0C5FA0346002B01D0FFF79CFBDA
:100E400000BF80BD6809002000480040A086010066
:100E500080B500AF114B124A1A60104B4FF4E132CB
:100E60005A600E4B00229A600C4B0022DA600B4B4A
:100E700000221A61094B0C225A61084B00229A6128
:100E8000064B0022DA6105480BF09AFA0346002B64
:100E900001D0FFF771FB00BF80BD00BFB00900208B
:100EA0000014014080B58EB000AF786007F12403D4
:100EB00000221A605A609A60DA601A617B681B68C7
:100EC0008F4A934240F0B28000233B628D4B5B6CB3
:100ED0008C4A43F0100353648A4B5B6C03F010039D
:100EE0003B623B6A0023FB61864B1B6B854A43F0E8
:100EF00002031363834B1B6B03F00203FB61FB696B
:100F00000023BB617F4B1B6B7E4A43F001031363DD
:100F10007C4B1B6B03F00103BB61BB6980237B62CD
:100F20000223BB620023FB6203233B6307237B6333
:100F300007F124031946744809F08AFE4FF4007340
:100F40007B620223BB620023FB6203233B63072314
:100F50007B6307F1240319466C4809F079FE6C4B5A
:100F60006C4A1A606A4B4FF000625A60684B00226C
:100F70009A60674B0022DA60654B4FF480621A6119
:100F8000634B00225A61624B00229A61604B4FF41E
:100F90008072DA615E4B00221A625D4B00225A6257
:100FA0005B480AF00BF80346002B01D0FFF7E4FA88
:100FB0007B68574ADA63564A7B689363564B574AB5
:100FC0001A60554B4FF000625A60534B40229A60B2
:100FD000514B0022DA60504B4FF480621A614E4B45
:100FE00000225A614C4B00229A614B4B4FF48072A5
:100FF000DA61494B00221A62474B00225A62464886
:1010000009F0DCFF0346002B01D0FFF7B5FA7B683F
:10101000414A9A63404A7B68936300220521252058
:101020000AF086FC25200AF09FFC1AE17B681B6809
:101030003B4A93427CD100237B61324B1B6C314A8B
:1010400043F4802313642F4B1B6C03F480237B61D8
:101050007B6900233B612B4B1B6B2A4A43F0040343
:101060001363284B1B6B03F004033B613B694FF494
:1010700040637B620223BB620023FB6203233B636A
:1010800007237B6307F124031946264809F0E0FD96
:10109000254B264A1A60244B4FF000625A60224BBF
:1010A00000229A60204B0022DA601F4B4FF48062CE
:1010B0001A611D4B00225A611B4B00229A611A4B88
:1010C0004FF48072DA61184B00221A62164B00222C
:1010D0005A62154809F072FF0346002B01D0FFF752
:1010E0004BFA7B68104ADA630F4A7B6893630022ED
:1010F000052127200AF01CFC27200AF035FCB0E06F
:10110000001001400038024000040240000002408C
:10111000F809002040640240580A0020B8640240E8
:101120000048004000080240B80A00202860024041
:101130007B681B684D4A934240F093800023FB601C
:101140004B4B5B6C4A4A43F020035364484B5B6C47
:1011500003F02003FB60FB680023BB60444B1B6B68
:10116000434A43F040031363414B1B6B03F04003BE
:10117000BB60BB684FF484437B620223BB620023E5
:10118000FB6203233B6308237B6307F124031946B7
:10119000384809F05DFD384B384A1A60364B4FF03D
:1011A00020625A60344B00229A60334B0022DA608E
:1011B000314B4FF480621A612F4B00225A612E4B43
:1011C00000229A612C4B4FF48072DA612A4B002284
:1011D0001A62294B00225A62274809F0EFFE0346A3
:1011E000002B01D0FFF7C8F97B68234ADA63224A53
:1011F0007B689363224B234A1A60214B4FF0206295
:101200005A601F4B40229A601D4B0022DA601C4B33
:101210004FF480621A611A4B00225A61184B002267
:101220009A61174B4FF48072DA61154B00221A62F3
:10123000134B00225A62124809F0C0FE0346002BED
:1012400001D0FFF799F97B680D4A9A630C4A7B68D5
:1012500093630022052147200AF06AFB47200AF029
:1012600083FB00BF3837BD4680BD00BF001401407E
:101270000038024000180240180B00202864024089
:10128000780B0020A064024080B400AF00BFFDE7EF
:1012900080B400AF00BFFDE780B400AF00BFFDE742
:1012A00080B400AF00BFFDE780B400AF00BFFDE732
:1012B00080B400AF00BFBD465DF8047B70470000FE
:1012C00080B500AF02480AF011F800BF80BD00BF32
:1012D000B80A002080B500AF024808F00AFE00BF3F
:1012E00080BD00BF9C07002080B500AF024808F019
:1012F00000FE00BF80BD00BF9C07002080B500AF8E
:1013000002480AF063FE00BF80BD00BF080800204D
:1013100080B500AF02480BF001F900BF80BD00BFEF
:101320002009002080B500AF02480BF0F7F800BF9D
:1013300080BD00BF6809002080B500AF024807F0FB
:101340006BFF00BF80BD00BFD80B002080B500AF91
:10135000024809F0CBFF00BF80BD00BF600800203D
:1013600080B500AF024809F0C1FF00BF80BD00BFDB
:10137000180B002080B500AF024809F0B7FF00BF8E
:1013800080BD00BFF809002080B500AF024809F019
:10139000ADFF00BF80BD00BFC008002080B500AF1A
:1013A000024808F0A6FD00BF80BD00BFC4070020B2
:1013B00080B500AF024808F09CFD00BF80BD00BFB3
:1013C000C407002080B500AF024809F08FFF00BFBE
:1013D00080BD00BF780B002080B500AF024809F047
:1013E00085FF00BF80BD00BF580A002080B500AF58
:1013F00002480BF093F800BF80BD00BFB009002089
:1014000080B500AF02480AF045FB00BF80BD00BFB9
:10141000F807002080B582B000AF00237B60124B3C
:101420005B6C114A43F4804353640F4B5B6C03F4D1
:1014300080437B607B6800233B600B4B1B6C0A4A3C
:1014400043F080531364084B1B6C03F080533B60E4
:101450003B6800220F216FF001000AF069FA00BF1B
:101460000837BD4680BD00BF0038024080B58EB051
:1014700000AF78600023FB620023BB620023FB60A7
:10148000334B1B6C324A43F480731364304B1B6C38
:1014900003F48073FB60FB6807F1100207F114038B
:1014A0001146184609F0A2FB3B6AFB62FB6A002B5F
:1014B00003D109F073FB786304E009F06FFB034686
:1014C0005B007B637B6B234AA2FB03239B0C013BEA
:1014D000BB62214B214A1A601F4B40F2E732DA60AF
:1014E0001D4ABB6A53601C4B00221A611A4B002232
:1014F0009A60194B00229A61174807F0C3FD034612
:1015000087F8333097F83330002B1BD1124807F09F
:1015100013FE034687F8333097F83330002B11D190
:101520002D200AF021FA7B680F2B08D80022796859
:101530002D200AF0FDF90A4A7B68136002E00123BE
:1015400087F8333097F8333018463837BD4680BDBA
:101550000038024083DE1B43D80B002000200040EF
:10156000D403002080B586B000AF7860144A154BD4
:10157000D31A7B617B693B61134B1B68002B02D143
:10158000114B124A1A60104B1A687B6813443A696F
:101590009A4207D20EF06CF803460C221A604FF004
:1015A000FF3309E0084B1B68FB60074B1A687B6838
:1015B0001344054A1360FB6818461837BD4680BDC2
:1015C0000000022000500000200C002000580020E5
:1015D000DFF834D007F044FD0C480D490D4A0023D4
:1015E00002E0D458C4500433C4188C42F9D30A4AD8
:1015F0000A4C002301E013600432A242FBD3FEF741
:1016000039FEFEF71BFF704700000220000000209B
:10161000E00300201C210108E0030020FC5700200B
:10162000FEE780B584B000AF78600B46FB707B6846
:101630009B68FB60FB685A1C7B685B689A420ED80B
:101640007B681A68FB681344FA781A70FB685A1CA6
:101650007B689A607B68DB685A1C7B68DA607B6811
:101660009A687B685B689A4215D17B6818697B68C9
:1016700019687B689B681A4600F0C4FC02467B68C8
:101680009B689A4204D07B684FF0FF32DA6002E038
:101690007B6800229A6000BF1037BD4680BD000005
:1016A00080B58AB000AFF860B9607A603B60BB6813
:1016B0003B6201237B620123FB6107E03A6A7B689E
:1016C000B2FBF3F33B62FB690133FB613A6A7B686F
:1016D0009A42F3D23A68FB699A4201D93B68FB61AE
:1016E0007B6B03F00103002B25D13B6B002B22D039
:1016F0007B6B03F00203002B05D03B68002B02D16B
:101700003023FB7601E02023FB760BE03B6B013BB3
:101710003B63FB7E1946F868FFF783FFFB68DB68D5
:10172000002B07DB3B6B002B05D0FA693B6B9A4221
:10173000ECD300E000BFFB68DB68002B55DB3B68A7
:10174000012B03D93B68013B3B6009E0BA687B6A27
:10175000B2FBF3F37B617A697B689A4200D205E0C1
:101760007B6A7A6802FB03F37B62E8E7BA687B6A0C
:10177000B2FBF3F37B617B697A6A02FB03F3BA681D
:10178000D31ABB601B4A7B6913441B781946F8685F
:10179000FFF747FFFB68DB68002B08DB7A6A7B6892
:1017A000B2FBF3F37B627B6A002BDFD100E000BF6A
:1017B0007B6B03F00103002B17D03B6B002B14D085
:1017C0000AE03B6B013B3B632021F868FFF729FFF0
:1017D000FB68DB68002B07DB3B6B002B05D0FA694D
:1017E0003B6B9A42EDD300E000BF00BF2837BD46F7
:1017F00080BD00BF0414010880B588B002AFF86056
:10180000B9607A603B60BB68002BB8BF5B423B614C
:1018100001237B6107E07B683A6992FBF3F33B614C
:101820007B6901337B617B683A699A42F3DA3A68F3
:101830007B699A4201D93B687B613B6A002B0AD0E5
:10184000BB68002B04DB7B6A03F00403002B02D08F
:101850003B6A013B3B627B6A03F00203002B02D030
:101860003B68002B1CD07B6A03F00103002B17D1CF
:101870003B6A002B14D00AE03B6A013B3B6220210B
:10188000F868FFF7CEFEFB68DB68002B07DB3B6ADE
:10189000002B05D07A693B6A9A42EDD300E000BF85
:1018A000FB68DB68002B4ADBBB68002B07DABB68F0
:1018B0005B42BB602D21F868FFF7B3FE08E07B6A4E
:1018C00003F00403002B03D02B21F868FFF7A9FED7
:1018D000FB68DB68002B32DB7B6A03F00203002B22
:1018E0001FD07B6A03F00103002B1AD13B68002B49
:1018F00017D13B6A002B14D00AE03B6A013B3B62E4
:101900003021F868FFF78DFEFB68DB68002B07DBF2
:101910003B6A002B05D07A693B6A9A42EDD300E01E
:1019200000BFFB68DB68002B09DBB9687B6A0193A9
:101930003B6A00933B687A68F868FFF7B1FE00BF26
:101940001837BD4680BD000080B5A2B002AFF86078
:10195000B9607A6007F110033B6540237B65002383
:10196000BB65FB683B660023FB65BB681B7887F89B
:101970007F30BB680133BB6097F87F30002B00F0ED
:101980009F8197F87F30252B40F08D8100233B67A6
:101990000123BB67BB681B7887F87F3097F87F30DF
:1019A000233B0D2B3ED801A252F823F0151A000854
:1019B000251A0008251A0008251A0008251A00080B
:1019C000251A0008251A0008251A0008051A00081B
:1019D000251A0008E5190008251A0008251A00082C
:1019E000F51900083B6F43F001033B67BB68013307
:1019F000BB601AE03B6F43F002033B67BB680133F7
:101A0000BB6012E03B6F43F004033B67BB680133EC
:101A1000BB600AE03B6F43F008033B67BB680133E0
:101A2000BB6002E00023BB6700BFBB6F002BB1D1DE
:101A30000023FB66BB681B7887F87F3097F87F3000
:101A40002F2B12D997F87F30392B0ED8BB68013372
:101A5000BB60FA6E13469B0013445B001A4697F86E
:101A60007F301344303BFB66E4E700237B67BB68B1
:101A70001B7887F87F3097F87F302E2B1DD1BB68FD
:101A80000133BB60BB681B7887F87F3097F87F30E5
:101A90002F2B12D997F87F30392B0ED8BB68013322
:101AA000BB607A6F13469B0013445B001A4697F89D
:101AB0007F301344303B7B67E4E7BB681B7887F8D3
:101AC0007F3097F87F306C2B03D097F87F30682BEE
:101AD00007D1BB680133BB60BB681B7887F87F30D8
:101AE000EFE797F87F30252B00F0D180252BC0F24F
:101AF000D580782B00F3D280582BC0F2CF80583B92
:101B0000202B00F2CB8001A252F823F0031C000826
:101B10009D1C00089D1C00089D1C00089D1C0008C1
:101B20009D1C00089D1C00089D1C00089D1C0008B1
:101B30009D1C00089D1C0008911B0008B71B000895
:101B40009D1C00089D1C00089D1C00089D1C000891
:101B50009D1C00089D1C00089D1C00089D1C000881
:101B60009D1C00089D1C00089D1C0008691C0008A5
:101B70009D1C00089D1C0008291C00089D1C0008D5
:101B8000DD1B00089D1C00089D1C0008031C0008AC
:101B90007B681B68191D7A6811601B68BB67BB6F87
:101BA00087F8673097F8672007F150031146184609
:101BB000FFF737FD73E07B681B68191D7A681160B9
:101BC0001B68BB6707F150003B6F0193FB6E0093EE
:101BD0007B6F0A22B96FFFF70FFE60E07B681B681E
:101BE000191D7A6811601B68BB67B96F07F1500057
:101BF0003B6F0193FB6E00937B6F0A22FFF750FD52
:101C00004DE07B681B68191D7A6811601B68BB6713
:101C1000B96F07F150003B6F0193FB6E00937B6F30
:101C20001022FFF73DFD3AE07B681B68191D7A68BA
:101C300011601B68BB66BB6E1B7887F87F30BB6E7C
:101C40000133BB6697F87F30002B0BD097F87F20CD
:101C500007F1500311461846FFF7E3FCFB6D002B1C
:101C6000E9DA1CE000BF1AE07B681B68191D7A687E
:101C700011601B68BB67B96F07F150000023019327
:101C80000823009308231022FFF70AFD07E007F15D
:101C9000500325211846FFF7C4FC00E000BFBB68D5
:101CA0000133BB6007E097F87F2007F1500311462E
:101CB0001846FFF7B6FCFB6D002BBFF656AE00E0F2
:101CC00000BFFB6D002B0DDDBB6D002B06D0BA6D88
:101CD00007F110031946F86800F094F9FB6DBA6D2E
:101CE0001344FB65FB6D18468037BD4680BD00BFC1
:101CF0000EB480B585B000AF786007F12003BB60FB
:101D000007F108031A46F9697868FFF71DFEF860C5
:101D1000FB6818461437BD46BDE8804003B07047E5
:101D200080B582B000AF264B3B60A8220021386806
:101D3000FEF798FA3B6803221A613B6803225A6156
:101D40003B68204A9A613B681F4ADA613B684FF45E
:101D500080621A623B6800229A623B6800225A62E3
:101D60003B680022DA623B68164A1A663B68174AEB
:101D70005A663B6810229A663B6800221A673B68E5
:101D80000022DA663B6800225A67BFF35F8F0023A8
:101D90007B600CE07B68C3F10F030D4AD15C3A68AD
:101DA0007B6813440A461A707B6801337B607B684A
:101DB0000F2BEFD9BFF35F8F00BF0837BD4680BD43
:101DC000240C0020C80B0108CC0C0020CC100020F3
:101DD0001414010880B58AB000AFF860B9607A6069
:101DE00000233B62FB68DB68FB61FB681B69BB612E
:101DF000BA69FB699A4205D9BA69FB69D31A013BF2
:101E00007B6207E0FB689A68B969FB69CB1A1344E7
:101E1000013B7B62FB689A68FB69D31A7A6A93423A
:101E200028BF13467B627A6A7B68934228BF1346B9
:101E30007B62FB685A68FB6913447B617A6AB96804
:101E400078690DF023FC3A6A7B6A13443B62BA68F6
:101E50007B6A1344BB607A687B6AD31A7B60FA6939
:101E60007B6A1344FB61FB689B68FA699A4201D163
:101E70000023FB61BFF35F8FFB68FA69DA607B6860
:101E8000002BB2D13B6A18462837BD4680BD80B5CD
:101E900088B000AFF860B9607A60FB68DB68FB610E
:101EA000FB689A68FB69D31ABB61BA697B689A427E
:101EB00011D9FB685A68FB6913443B617A68B968B9
:101EC00038690DF0E3FBBFF35F8FFA697B681A4452
:101ED000FB68DA601FE0BB697B61FB685A68FB69DD
:101EE00013443B617A69B96838690DF0CFFB7A68B1
:101EF000BB69D31A7B61FB685B683B61BA68BB69ED
:101F000013447A69194638690DF0C0FBBFF35F8F3F
:101F1000FB687A69DA6000BF2037BD4680BD80B4B7
:101F200087B000AF78607B681B693B617B68DB68CA
:101F3000FB603A69FB689A4208D87B689A68FB683C
:101F4000D21A3B691344013B7B6104E03A69FB68A8
:101F5000D31A013B7B617B6918461C37BD465DF88F
:101F6000047B704780B588B000AFF860B9607A60D4
:101F7000BB68BB61FB685A1C13465B001344DB0063
:101F80001F4A13447B617B695B69022B29D0022BBA
:101F90002ED8002B02D0012B13D029E07869FFF74F
:101FA000BEFF38613A697B689A4202D20023FB6126
:101FB00021E07B68FB617A68B9697869FFF767FFA0
:101FC00019E07869FFF7ABFF38617A683B699342A3
:101FD00028BF1346FB61FA69B9697869FFF757FFB3
:101FE00009E07A68B9697869FFF7F4FEF86102E000
:101FF0000023FB6100BFFB6918462037BD4680BD4A
:10200000240C002080B588B000AFF860B9607A6019
:102010000E4BFB61FB691B78DBB2002B01D1FFF794
:102020007FFEEFF311834FF0200181F31188BB6134
:102030007A68B968F868FFF795FF7861BB6983F340
:1020400011887B6918462037BD4680BD240C0020CE
:1020500080B500AFFFF764FE00BF80BD80B58CB0D7
:1020600000AF786001233B6200237B627B68DB6901
:1020700003F00103002B0CBF01230023DBB2BB6183
:102080000E23FB627B685B6B5B01FB607B681B68FC
:102090000F4A934206D10F4B1B785A1CD1B20D4AFE
:1020A000117005E00C4B1B785A1CD1B20A4A117012
:1020B000FB610123BB627B681B6807F108021146C4
:1020C000184607F07DFB00BF3037BD4680BD00BF1E
:1020D0009C0700201D1100205000002080B500AF9B
:1020E0000B4807F04DFC0221094807F0DCFE1021E7
:1020F000074807F0D8FE074807F042FC02210548D0
:1021000007F0D1FE1021034807F0CDFE00BF80BDCF
:102110009C070020C407002080B588B004AF786019
:102120004D4B1B78002B09D1FFF7D8FF4B4B009389
:102130004B4B4C4A4C490020FFF7DAFD464B1B78CD
:102140000F2B08D9454B0093484B494A4949002079
:10215000FFF7CEFDF6E70023FB6023E0464AFB686D
:1021600052F823305A6B7B689B689A4217D1424AD7
:10217000FB6852F823301A687B681B689A420ED1BC
:102180007B6804337A6808323449029101920093E3
:10219000364B374A39490020FFF7AAFDF0E7FB68C4
:1021A0000133FB602C4B1B781A46FB689342D5D356
:1021B00041200DF049FA0346BB6041220021B86876
:1021C000FEF750F87B685A68BB685A60BB6800220B
:1021D0001A7300225A7300229A730022DA73BB68C2
:1021E00000221A7400225A7400229A740022DA74AF
:1021F000BB68002242F008021A7500225A750022BC
:102200009A750022DA757B681A68BB681A607B6869
:102210005A68BB68DA617B689A68BB685A637B68F6
:10222000DA68BB68C3F839207B681A69BB68C3F8F1
:102230003D20B868FFF712FF074B1B785A1CD1B23C
:10224000054A117019460C4ABB6842F82130BB6838
:1022500018461037BD4680BD1C110020080C01082F
:10226000D40B0108D80B0108E00B0108100C010881
:10227000140C01081C0C0108DC100020740C01086F
:1022800080B586B002AF786087ED000A00F090FA62
:1022900087ED030A21E000F08BFAB0EE407AD7ED2B
:1022A000037A77EE677A97ED007AB4EEE77AF1EE8B
:1022B00010FA00D411E0254B1B68254A01920093C7
:1022C000244B254A25490020FFF712FD1F4B1B68B0
:1022D00001331E4A1360002333E07B681B681846F5
:1022E00007F062FC0346002BD5D000F061FAB0EE97
:1022F000407AD7ED037A77EE677A194BC3ED007A0F
:102300007B6818687B68191D7B6803F124027B6871
:10231000203307F079FB0346002B11D00B4B1B68D1
:102320000B4A019200930B4B0B4A0E490020FFF71A
:10233000DFFC064B1B680133044A1360002300E0F6
:10234000012318461037BD4680BD00BF2011002074
:10235000080C0108C00C0108C40C0108CC0C0108D1
:10236000241100201C0D010880B586B000AF7860F4
:1023700039604DE007F10C032B4A3968786807F0A3
:1023800048FC00237B613DE0284A7B6952F82330FA
:102390001B687A689A4232D1234B1A6823497B69B9
:1023A00051F823305B6B9A4229D1204A7B6952F85D
:1023B0002330D3F83930002B32D01B4B19691B4A1C
:1023C0007B6952F82330CAB283F83820174A7B69F8
:1023D00052F823302C33144A126907F10C011846C5
:1023E0000DF054F9114A7B6952F82330D3F8393093
:1023F0000E497A6951F822201046984711E07B690E
:1024000001337B610A4B1B781A467B699342BBD32D
:102410003968786807F01FFD0346002BAAD100E059
:1024200000BF1837BD4680BD28110020DC100020F9
:102430001C11002080B582B000AF78600021786860
:10244000FFF792FF00BF0837BD4680BD80B582B060
:1024500000AF786001217868FFF786FF00BF08377A
:10246000BD4680BD80B483B000AF114B1B78DBB29A
:10247000002B16D10E4B01221A700E4B5B687B604D
:102480007A680D4B1B689A4204D20C4B1B680133CF
:102490000A4A1360074B5B68074A1360044B00222B
:1024A0001A7000BF0C37BD465DF8047B704700BF53
:1024B00068110020001000E05C110020581100207D
:1024C00080B582B000AF7860164BDB68154A43F0E8
:1024D0008073D360144B00225A60134B1B68124A5E
:1024E00043F0010313607B68104A02FB03F3104AB8
:1024F00013600F4B1B680F4AA2FB03239B090E4A74
:1025000013600B4B1B680D4AA2FB03239B0C0C4A68
:1025100013600C4B00221A60FFF7A4FF00BF0837BE
:10252000BD4680BDF0ED00E0001000E040420F002D
:102530004C110020D34D62105011002083DE1B434C
:10254000541100205811002080B584B000AF78608D
:10255000104B5B68BB60BA687B681B68D31A07EED8
:10256000903AF8EE676A0C4B1B6807EE903AB8EEAB
:10257000677AC6EE877AC7ED037ABA687B681A6015
:10258000FFF770FFFB6807EE903AB0EE670A10376E
:10259000BD4680BD001000E04C1100202DE9B04F79
:1025A00098B000AF5E4B5B68FB65FFF75BFF5D4B70
:1025B0001B6800229846914642464B464FF0000069
:1025C0004FF00001D90741EA5201D00702460B46FD
:1025D000B2EB080463EB090523193B6045EB0503E7
:1025E0007B60D7E9004514EB080A45EB090BFB6D4E
:1025F0000022BB64FA64D7E912120B461AEB0303FC
:102600003B6413464BEB03037B64474BD7E9101243
:10261000C3E90012444BD3E90001444B1B6800227C
:10262000BB63FA63D7E90E23FDF7B2FD02460B4602
:10263000104619463E4BC3E900013B4BD3E9004528
:102640003A4B1B6800223B637A63394BD3E9002382
:10265000D7E90C89494602FB01F0414601FB03F131
:1026600001444046A0FB02237B6513463B657B6D1E
:10267000CB187B65D7E914120B46E31ABB621346ED
:1026800065EB0303FB622B4BD7E90A12C3E9001287
:10269000274BD3E90023284B1A60264BD3E90001CE
:1026A000264B1B6800223B627A62D7E90823FDF7BC
:1026B0006FFD02460B4692B21F4B9A801D4BD3E929
:1026C00000231D49898808461C49096800FB01F15F
:1026D0000020B961F861D7E906452146511A3961F0
:1026E000294663EB01037B61154BD7E90412C3E96B
:1026F0000012134BD3E90001124B1B680022BB6090
:10270000FA60D7E90223FDF743FD02460B4692B279
:10271000094BDA8000BF6037BD46BDE8B08F00BF0F
:10272000001000E058110020601100204C11002022
:102730007011002078110020441100205011002059
:10274000801100205411002080B582B000AFFFF747
:1027500025FF144B1B6807EE903AB8EE677A114BD1
:102760009B8807EE903AF8EEE77ADFED0F6A67EEA6
:10277000A67A37EE277A0B4BDB8807EE903AF8EE15
:10278000E77ADFED0A6A67EEA67A77EE277AC7ED79
:10279000017A7B6807EE903AB0EE670A0837BD46CB
:1027A00080BD00BF441100206F12833ABD378635CB
:1027B00080B582B000AFFFF7F1FE114B1B684FF4FC
:1027C0007A7202FB03F30E4A9288134407EE903AA2
:1027D000B8EE677A0A4BDB8807EE903AF8EEE77AB4
:1027E000DFED086A67EEA67A77EE277AC7ED017A01
:1027F0007B6807EE903AB0EE670A0837BD4680BDA9
:10280000441100206F12833A80B485B000AF87ED89
:10281000010A124B5B68FB607B68BB6000BF0F4B1B
:102820005A68FB68D31A07EE903AB8EE677A0C4BF9
:102830001B6807EE903AF8EE676AD7ED027A66EE0B
:10284000A77AB4EEE77AF1EE10FAE8D400BF00BF41
:102850001437BD465DF8047B704700BF001000E0F0
:102860004C11002080B582B000AF78607B68D3F84F
:10287000040179687B6893F800311A4609F0F0FD8D
:102880007B68D3F80431DB6B1B681A687B68D3F86C
:102890000431DB6B1B6822F008021A6000BF0837A6
:1028A000BD4680BD80B586B002AF78602C4B1B78EA
:1028B000022B08D92B4B00932B4B2C4A2C49002080
:1028C000FFF716FAF6E70023FB7315E0FB7B294AB6
:1028D00052F82330D3F804217B685B689A4208D110
:1028E000204B0093204B214A23490020FFF700FA98
:1028F000F6E7FB7B0133FB73194B1B78FA7B9A429B
:10290000E4D34FF486700CF09FFE0346BB604FF497
:1029100086720021B868FDF7A5FC7B685A68BB6821
:10292000C3F804217B681A78BB6883F800217B68B0
:102930009A68BB68C3F80821094B1B785A1CD1B2AE
:10294000074A117019460B4ABB6842F82130B86833
:10295000FFF788FFBB6818461037BD4680BD00BF33
:1029600088110020CC0D0108880D01088C0D01088C
:10297000940D01088C110020D40D010880B584B09D
:1029800000AF78600B467B800023FB734DE0FB7B40
:102990002A4A52F82330D3F804317A689A4241D156
:1029A000FB7B264A52F82330D3F80831002B10D095
:1029B000FB7B224A52F82330D3F808319847FB7B3F
:1029C0001E4A52F8233018467B881A460021FDF72C
:1029D00049FCFB7B194A52F82330D3F80401FB7BF6
:1029E000164A52F823301946FB7B144A52F823301A
:1029F00093F800311A4609F033FDFB7B0F4A52F879
:102A00002330D3F80431DB6B1B681A68FB7B0B495E
:102A100051F82330D3F80431DB6B1B6822F0080235
:102A20001A6007E0FB7B0133FB73054B1B78FA7BD5
:102A30009A42ACD31037BD4680BD00BF8C11002038
:102A40008811002080B586B002AF78600023FB7348
:102A50003EE0FB7B224A52F82330D3F804317A68F7
:102A60009A4232D1FB7B1E4A52F82330D3F804013C
:102A7000FB7B1B4A52F823301946FB7B184A52F85D
:102A8000233093F800311A4609F0EAFCFB7B144A24
:102A900052F82330D3F80431DB6B1B681A68FB7BD8
:102AA0000F4951F82330D3F80431DB6B1B6822F057
:102AB00008021A60FB7B0B4A019200930A4B0B4AF7
:102AC0000B490020FFF714F907E0FB7B0133FB7390
:102AD000084B1B78FA7B9A42BBD31037BD4680BDAA
:102AE0008C110020CC0D0108100E0108140E0108F5
:102AF0001C0E01088811002080B500AFFFF7A8FA6E
:102B000000BF80BD80B483B000AF78607B6893ED78
:102B1000017A7B68D3ED0D6A7B68D3ED0E7A76EE91
:102B2000A76AB0EE006AC6EE867A27EE277A7B683F
:102B3000D3ED197A67EE277A7B68C3ED137A00BF6D
:102B40000C37BD465DF8047B704780B483B000AF9E
:102B500078607B6893ED0D7A7B68D3ED117A67EE30
:102B6000277AF5EEC07AF1EE10FA65DD7B68D3EDD9
:102B70000D7AF5EEC07AF1EE10FA03DD7B68D3ED45
:102B80000D7A04E07B68D3ED0D7AF1EE677A7B680D
:102B900093ED087AF4EEC77AF1EE10FA4BD97B6820
:102BA000D3ED0D7AF5EEC07AF1EE10FA03DD7B6815
:102BB000D3ED0D7A04E07B68D3ED0D7AF1EE677A00
:102BC0007B68D3ED076A7B6893ED087A36EE877AE7
:102BD000F4EEC77AF1EE10FA28D87B6893ED137AF9
:102BE0007B68D3ED076A7B68D3ED0D7AF5EEC07A8A
:102BF000F1EE10FA03DD7B68D3ED0D7A04E07B681B
:102C0000D3ED0D7AF1EE677A76EEE76A7B68D3ED65
:102C1000087A36EEA76A7B68D3ED076AC6EE267A95
:102C200067EE277A7B68C3ED137A05E07B684FF087
:102C30000002DA6400E000BF0C37BD465DF8047B9B
:102C40007047000080B483B000AF78607B6893ED7C
:102C5000117A7B68D3ED137A77EE277A374BC3ED81
:102C6000007A7B6893ED107A7B68D3ED117A37EEAA
:102C7000277A7B68D3ED127A77EE277A304BC3ED53
:102C8000007A2F4BD3ED007AF5EEC07AF1EE10FA10
:102C900003DD2B4BD3ED007A04E0294BD3ED007A12
:102CA000F1EE677A7B6893ED037AF4EEC77AF1EE82
:102CB00010FA10DD7B6893ED0D7A7B68D3ED117A05
:102CC00067EE277AF5EEC07AF1EE10FA03DD7B6845
:102CD0004FF00002DA647B6893ED067A174BD3ED70
:102CE000007AB4EEE77AF1EE10FA07D57B684FF080
:102CF0000002DA647B689A697B685A647B68D3ED6A
:102D0000067AB1EE677A0D4BD3ED007AB4EEE77A2E
:102D1000F1EE10FA00DC0BE07B684FF00002DA64A1
:102D20007B68D3ED067AF1EE677A7B68C3ED117AA2
:102D300000BF0C37BD465DF8047B7047981100203A
:102D40009C11002080B483B000AF78607B6893ED65
:102D5000027A7B68D3ED0C6A7B68D3ED0B7A76EE52
:102D6000E77A67EE276A7B6893ED197AC6EE877A71
:102D70007B68C3ED127A00BF0C37BD465DF8047B5B
:102D8000704780B483B000AF78607B6893ED127AAF
:102D90007B68D3ED197A67EE276A7B6893ED0A7A30
:102DA0007B68D3ED197A77EE277A86EEA77A7B686F
:102DB000D3ED166A7B68D3ED0A7A26EEA76A7B68A4
:102DC000D3ED0A6A7B68D3ED197A76EEA76AC6EE70
:102DD000267A77EE277A7B68C3ED127A00BF0C372C
:102DE000BD465DF8047B704780B483B000AF786067
:102DF0007B6893ED147A7B68D3ED197A67EE276AC6
:102E00007B6893ED097A7B68D3ED197A77EE277AA0
:102E100086EEA77A7B68D3ED156A7B68D3ED097AD5
:102E200026EEA76A7B68D3ED096A7B68D3ED197A31
:102E300076EEA76AC6EE267A77EE277A7B68C3ED30
:102E4000147A00BF0C37BD465DF8047B704780B430
:102E500083B000AF78607B6893ED147A7B68D3ED24
:102E6000037AB4EEE77AF1EE10FA03DD7B68DA68F4
:102E70007B681A657B6893ED147A7B68D3ED037ADF
:102E8000F1EE677AB4EEE77AF1EE10FA00D407E0DB
:102E90007B68D3ED037AF1EE677A7B68C3ED147A31
:102EA00000BF0C37BD465DF8047B7047B0B483B0FB
:102EB00000AF78607B68D3ED147AB0EEE77A7B6878
:102EC000D3ED037ADFED286A67EEA67AB4EEE77AEF
:102ED000F1EE10FA42D47B68D3ED177AF0EEE77A80
:102EE0009FED227AF4EEC77AF1EE10FA36D47B68C1
:102EF00093ED177A7B68D3ED0B7A77EE677AF0EE75
:102F0000E76A7B68D3ED177AB0EEE77AC6EE877A88
:102F10009FED177AF4EEC77AF1EE10FA09DD7B68BF
:102F2000D3E91A23541C43F100057B68C3E91A4511
:102F300006E079684FF000024FF00003C1E91A2360
:102F40007B68D3E91A2340F2F5118A4273F100033A
:102F500005D37B68012283F8702000E000BF0C37A6
:102F6000BD46B0BC704700BF6F12833A17B7D13867
:102F70003333733F80B582B000AF78603960782218
:102F800000217868FDF76EF92C22396878680CF01A
:102F90007DFB7B6860331846FFF7D6FA00BF083721
:102FA000BD4680BD80B584B000AFF86087ED020AF1
:102FB000C7ED010AFB681B7D5BB2002B02DAF868E3
:102FC000FFF774FFFB6860331846FFF7BDFAF0EEB9
:102FD000407AFB68C3ED197AFB68BA68DA62FB686D
:102FE0007A68DA65FB6893ED177AFB68D3ED0B7AA4
:102FF00077EE677AFB68C3ED0D7AFB68D3ED0D7A47
:10300000F5EEC07AF1EE10FA03DDFB68D3ED0D7A30
:1030100004E0FB68D3ED0D7AF1EE677AFB6893ED7F
:10302000047AF4EEC77AF1EE10FA40F38580FB687B
:1030300093ED007AFB68D3ED0D7A67EE277AFB6893
:10304000C3ED107AFB6893ED017AFB68D3ED0D7A3E
:1030500027EE277AFB68D3ED197A67EE277AFB68AB
:10306000C3ED137AFB6893ED027AFB68D3ED0D6A2A
:10307000FB68D3ED0E7A76EEE77A67EE276AFB6897
:1030800093ED197AC6EE877AFB68C3ED127AFB6876
:103090001B7D03F00403002B02D0F868FFF732FD1C
:1030A000FB681B7D03F02003002B02D0F868FFF7BC
:1030B0004CFDFB681B7D03F00203002B02D0F86877
:1030C000FFF740FEFB681B7D03F04003002B02D09E
:1030D000F868FFF756FEFB681B7D03F00103002B29
:1030E00002D0F868FFF7AEFDFB6893ED117AFB683C
:1030F000D3ED137A77EE277AFB68C3ED117AFB687C
:1031000093ED107AFB68D3ED117A37EE277AFB68DE
:10311000D3ED127A77EE277AFB68C3ED147AFB6859
:103120001B7D03F01003002B02D0F868FFF75CFE54
:10313000F868FFF78CFE07E0FB684FF000021A65A5
:10314000FB684FF00002DA64FB68DA6AFB681A6316
:10315000FB681A6DFB685A65FB689A6CFB689A6598
:10316000FB685A6BFB689A63FB68DA6CFB68DA638E
:10317000FB681B6D07EE903AB0EE670A1037BD464C
:1031800080BD000080B485B000AF78600B467B80C6
:1031900000237B737B68BB60BB68002B14D00023CB
:1031A000FB810DE0BB685A1CBA601A787B7B5340E8
:1031B000DBB21A46084B9B5C7B73FB890133FB81B6
:1031C000FA897B889A42EDD37B7B18461437BD463B
:1031D0005DF8047B704700BF5400002080B586B0C6
:1031E00000AF78600B467B80154B1B78002B01D11C
:1031F00000F02AF84FF6FF73FB827B683B613B6966
:10320000002B18D00023FB8111E0FB8A1B0A9AB225
:10321000F98A3B69581C38611B784B40DBB209497D
:1032200031F813305340FB82FB890133FB81FA896B
:103230007B889A42E9D3FB8A18461837BD4680BD81
:10324000A0110020A411002080B483B000AF00239F
:10325000FB8029E000237B80FB883B800023BB8030
:1032600017E07A883B8853409BB203F00103002BA0
:1032700006D07B885B089AB2114B53407B8002E0FA
:103280007B885B087B803B885B083B80BB88013385
:10329000BB80BB88072BE4D9FB880A497A8821F8D0
:1032A0001320FB880133FB80FB88FF2BD2D9064B10
:1032B00001221A7000BF0C37BD465DF8047B7047D1
:1032C00001A0FFFFA4110020A011002080B582B052
:1032D00000AF7860084611461A460346FB700B465D
:1032E000BB7013467B70BA4B04221A80B94B08227C
:1032F0001A807B68FA781A737B68BA785A737B688D
:103300007A789A737B6800221A747B7818460CF0DE
:103310009BF903461A467B685A617B685B697A7839
:1033200000211846FCF79EFFA94B1B881A467B78A4
:1033300002FB03F318460CF087F903461A467B6834
:103340009A617B689869A24B1B881A467B7802FBBE
:1033500003F31A460021FCF785FF9D4B1B881A4694
:103360007B7802FB03F318460CF06EF903461A460D
:103370007B68DA617B68D869954B1B881A467B7835
:1033800002FB03F31A460021FCF76CFF904B1B88ED
:103390001A46FB7802FB03F318460CF055F9034676
:1033A0001A467B681A627B68186A894B1B881A4622
:1033B000FB7802FB03F31A460021FCF753FF7B78EE
:1033C00018460CF041F903461A467B685A627B683E
:1033D0005B6A7A7800211846FCF744FF7C4B1B8817
:1033E0001A46FB7802FB03F318460CF02DF903464E
:1033F0001A467B681A607B681868754B1B881A46EA
:10340000FB7802FB03F31A460021FCF72BFF704BFD
:103410001B881A467B7802FB03F318460CF014F95C
:1034200003461A467B685A607B685868684B1B885D
:103430001A467B7802FB03F31A460021FCF712FFC1
:10344000634B1B881A46BB7802FB03F318460CF04B
:10345000FBF803461A467B689A607B6898685C4B69
:103460001B881A46BB7802FB03F31A460021FCF7BF
:10347000F9FE574B1B881A46FB7802FB03F31846EC
:103480000CF0E2F803461A467B68C3F8E8207B6834
:10349000D3F8E8004E4B1B881A46FB7802FB03F377
:1034A0001A460021FCF7DEFE7B6803F130007B68E2
:1034B0001B7B19467B68D3F8E83001220BF066FECF
:1034C000434B1B881A46FB7802FB03F318460CF0AB
:1034D000BBF803461A467B68C3F8EC207B68D3F838
:1034E000EC003B4B1B881A46FB7802FB03F31A46A1
:1034F0000021FCF7B7FE7B6803F138007B681B7B7B
:1035000019467B68D3F8EC3001220BF03FFEBB7804
:10351000002B26D02E4B1B881A46BB7802FB03F3E8
:1035200018460CF091F803461A467B68C3F8F02061
:103530007B68D3F8F000264B1B881A46BB7802FB49
:1035400003F31A460021FCF78DFE7B6803F140006F
:103550007B685B7B19467B68D3F8F03001220BF067
:1035600015FE1B4B1B881A467B7802FB03F318469B
:103570000CF06AF803461A467B68C3F8F4207B68AF
:10358000D3F8F400124B1B881A467B7802FB03F336
:103590001A460021FCF766FE7B6803F148007B6851
:1035A0009B7B19467B68D3F8F43001220BF0EEFDCB
:1035B000074B1B881A46FB7802FB03F3FA7802FBE1
:1035C00003F318460CF040F803461A467B6803E004
:1035D000A4130020A6130020C3F8F8207B68D3F8BA
:1035E000F800BD4B1B881A46FB7802FB03F3FA7800
:1035F00002FB03F31A460021FCF734FE7B6803F15B
:1036000050007B681B7B19467B681B7B1A467B68D6
:10361000D3F8F8300BF0BAFDAF4B1B881A46FB7895
:1036200002FB03F3FA7802FB03F318460CF00CF8E4
:1036300003461A467B68C3F8FC207B68D3F8FC007D
:10364000A54B1B881A46FB7802FB03F3FA7802FBB2
:1036500003F31A460021FCF705FE7B6803F15800CE
:103660007B681B7B19467B681B7B1A467B68D3F8FB
:10367000FC300BF08BFD984B1B881A46FB7802FB45
:1036800003F3FA7802FB03F318460BF0DDFF034661
:103690001A467B68C3F800218F4B1B881A46FB78BB
:1036A00002FB03F3FA7802FB03F318460BF0CCFF9E
:1036B00003461A467B68C3F804217B68D3F80001EF
:1036C000854B1B881A46FB7802FB03F3FA7802FB52
:1036D00003F31A460021FCF7C5FD7B68D3F804010B
:1036E0007D4B1B881A46FB7802FB03F3FA7802FB3A
:1036F00003F31A460021FCF7B5FD7B6803F1600077
:103700007B681B7B19467B681B7B1A467B68D3F85A
:1037100000310BF03BFD7B6803F168007B681B7B8D
:1037200019467B681B7B1A467B68D3F804310BF083
:103730002DFDBB78002B2ED0674B1B881A46FB78DB
:1037400002FB03F3BA7802FB03F318460BF07CFF8D
:1037500003461A467B68C3F808217B68D3F8080142
:103760005D4B1B881A46FB7802FB03F3BA7802FB19
:1037700003F31A460021FCF775FD7B6803F1700026
:103780007B681B7B19467B685B7B1A467B68D3F89A
:1037900008310BF0FBFC504B1B881A467B7802FB70
:1037A00003F3FA7802FB03F318460BF04DFF0346D0
:1037B0001A467B68C3F80C21474B1B881A46FB78D6
:1037C00002FB03F37A7802FB03F318460BF03CFF8D
:1037D00003461A467B68C3F810217B68D3F80C01B6
:1037E0003D4B1B881A467B7802FB03F3FA7802FBF9
:1037F00003F31A460021FCF735FD7B68D3F810016E
:10380000354B1B881A46FB7802FB03F37A7802FBE0
:1038100003F31A460021FCF725FD7B6803F17800CD
:103820007B689B7B19467B681B7B1A467B68D3F8B9
:103830000C310BF0ABFC7B6803F180007B681B7BD9
:1038400019467B689B7B1A467B68D3F810310BF0D6
:103850009DFC214B1B881A46FB7802FB03F3FA7888
:1038600002FB03F318460BF0EFFE03461A467B6893
:10387000C3F814217B68D3F81401174B1B881A4630
:10388000FB7802FB03F3FA7802FB03F31A460021EC
:10389000FCF7E8FC7B6803F188007B681B7B19461A
:1038A0007B681B7B1A467B68D3F814310BF06EFCE7
:1038B000094B1B881A467B7802FB03F37A7802FBDC
:1038C00003F318460BF0C0FE03461A467B68C3F8A4
:1038D00018217B6802E000BFA4130020D3F8180170
:1038E0007D4B1B881A467B7802FB03F37A7802FB38
:1038F00003F31A460021FCF7B5FC7B6803F1900046
:103900007B689B7B19467B689B7B1A467B68D3F858
:1039100018310BF03BFC704B1B881A46FB7802FBFE
:1039200003F37A7802FB03F318460BF08DFE03468F
:103930001A467B68C3F81C217B68D3F81C01664BD0
:103940001B881A46FB7802FB03F37A7802FB03F329
:103950001A460021FCF786FC7B6803F198007B681F
:103960001B7B19467B689B7B1A467B68D3F81C310E
:103970000BF00CFC584B1B881A467B681B7B02FB28
:1039800003F37A68127B02FB03F318460BF05CFE2C
:1039900003461A467B68C3F820214F4B1B881A4602
:1039A0007B681B7B02FB03F37A68127B02FB03F349
:1039B00018460BF049FE03461A467B68C3F82421DB
:1039C000454B1B881A467B681B7B02FB03F37A6816
:1039D000127B02FB03F318460BF036FE03461A4631
:1039E0007B68C3F828213C4B1B881A467B681B7BED
:1039F00002FB03F318460BF027FE03461A467B68CA
:103A0000C3F82C21344B1B881A467B681B7B02FBB6
:103A100003F318460BF018FE03461A467B68C3F8FA
:103A200030217B6803F1A0007B681B7B19467B6813
:103A30001B7B1A467B68D3F820310BF0A7FB7B6811
:103A400003F1A8007B681B7B19467B681B7B1A4629
:103A50007B68D3F824310BF099FB7B6803F1B0004D
:103A60007B681B7B19467B681B7B1A467B68D3F8F7
:103A700028310BF08BFB7B6803F1B8007B681B7B64
:103A800019467B68D3F82C3101220BF07FFB7B6851
:103A900003F1C0007B681B7B19467B68D3F830318B
:103AA00001220BF073FB7B68002283F828207B68DF
:103AB000002283F829207B68002283F82A207B6873
:103AC000002283F82B207B68002283F82C2000BF83
:103AD0000837BD4680BD00BFA413002080B582B06A
:103AE00000AF78607B68DB7B002B03D0786800F048
:103AF00033FB1BE07B68D3F8F4007B685968154BF7
:103B00001B881A467B689B7B02FB03F31A460BF06B
:103B1000BDFD7B6858680F4B1B881A467B689B7BF2
:103B200002FB03F31A460021FCF79CFB7B68D3F8E9
:103B3000F0007B689968074B1B881A467B685B7BA3
:103B400002FB03F31A460BF0A1FD00BF0837BD4688
:103B500080BD00BFA413002080B582B000AF7860A4
:103B60007B6893F82830002B58D17B685B7B002B57
:103B700044D07B681B7B1A467B68A3F8B8207B681F
:103B80000122A3F8BA207B6803F160007B6803F18F
:103B900030017B68B8331A460BF0BCF803461A466E
:103BA0007B6883F8C8207B681B7B1A467B68A3F878
:103BB000C0207B680122A3F8C2207B6803F170005B
:103BC0007B6803F140017B68C0331A460BF0A2F812
:103BD00003461A467B6883F8C8207B6803F1B80067
:103BE0007B6803F1C0017B6838331A460BF0D2FAC8
:103BF00003461A467B6883F8C8200FE07B6803F110
:103C000060007B6803F130017B6838331A460BF0A3
:103C100081F803461A467B6883F8C82000BF08373E
:103C2000BD4680BD80B582B000AF78607B6893F8F8
:103C30002930002B49D17B6803F160027B6868332F
:103C4000194610460AF050FF03461A467B6883F86F
:103C5000C8207B6803F160007B6803F150017B683A
:103C600058331A460BF056F803461A467B6883F819
:103C7000C8207B68B3F858207B68A3F8A8207B682D
:103C8000B3F86A207B68A3F8AA207B6803F1580088
:103C90007B6803F168017B68A8331A460BF03AF899
:103CA00003461A467B6883F8C8207B6803F1A800A6
:103CB0007B6803F188017B6858331A460BF06AFA77
:103CC00003461A467B6883F8C82000BF0837BD4604
:103CD00080BD80B582B000AF78607B6893F82A30F1
:103CE000002B40F09C807B6803F178027B68803376
:103CF000194610460AF0F8FE03461A467B6883F818
:103D0000C8207B68B3F878207B68A3F8A8207B687C
:103D1000B3F85A207B68A3F8AA207B6803F17800E7
:103D20007B6803F158017B68A8331A460AF0F2FF5A
:103D300003461A467B6883F8C8207B68B3F8A8203E
:103D40007B68A3F8B0207B68B3F882207B68A3F877
:103D5000B2207B6803F1A8007B6803F180017B68D7
:103D6000B0331A460AF0D6FF03461A467B6883F83A
:103D7000C8207B68B3F890207B68A3F8A0207B68FC
:103D8000B3F892207B68A3F8A2207B6803F1B0000F
:103D90007B6803F190017B68A0331A460BF0FAF9B7
:103DA00003461A467B6883F8C8207B6803F1A002AB
:103DB0007B68B033194610460BF0BCF803461A4630
:103DC0007B6883F8C8207B68B3F858207B68A3F829
:103DD000A8207B68B3F882207B68A3F8AA207B68C0
:103DE00003F158007B6803F180017B68A8331A4611
:103DF0000AF090FF03461A467B6883F8C8207B6868
:103E000003F1A8007B6803F1B0017B6898331A4680
:103E10000AF080FF03461A467B6883F8C82000BF7B
:103E20000837BD4680BD80B582B000AF78607B6842
:103E300093F82B30002B5DD17B68B3F878207B683A
:103E4000A3F8B8207B680122A3F8BA207B6803F1AD
:103E500078007B6803F138017B68B8331A460AF0B2
:103E600059FF03461A467B6883F8C8207B68B3F87D
:103E700048207B68A3F8C0207B680122A3F8C220F9
:103E80007B6803F148007B6803F1B8017B68C033AD
:103E90001A460AF0D3FE03461A467B6883F8C82008
:103EA0007B68B3F898207B68A3F8B8207B68012270
:103EB000A3F8BA207B6803F198007B6803F1C00186
:103EC0007B68B8331A460AF025FF03461A467B681A
:103ED00083F8C8207B6803F138007B6803F1B801E0
:103EE0007B6830331A460BF055F903461A467B6857
:103EF00083F8C82000BF0837BD4680BD80B582B0BA
:103F000000AF78607B6893F82C30002B47D17B683A
:103F1000B3F898207B68A3F8A8207B68B3F87A20D0
:103F20007B68A3F8AA207B68B3F8A8207B68A3F875
:103F3000B0207B68B3F85A207B68A3F8B2207B6876
:103F400003F198007B6803F178017B68A8331A4677
:103F50000AF0E0FE03461A467B6883F8C8207B68B7
:103F600003F1A8007B6803F158017B68B0331A465F
:103F70000AF0D0FE03461A467B6883F8C8207B68A7
:103F800003F158007B6803F1B0017B6850331A4697
:103F90000AF054FE03461A467B6883F8C82000BF27
:103FA0000837BD4680BD000080B584B000AF7860A2
:103FB0007868FFF793FD7B68D3F8CC30002B04D0F2
:103FC0007B68D3F8CC30786898477868FFF7C4FDF1
:103FD0007B68D3F8D030002B04D07B68D3F8D03086
:103FE000786898477868FFF71DFE7B68D3F8D4306F
:103FF000002B04D07B68D3F8D430786898477B686E
:104000001B7C002B03D17B68DB7B002B1DD17868E8
:10401000FFF75FFE7B68D3F8D830002B04D07B68B5
:10402000D3F8D830786898477868FFF7FCFE7B684B
:10403000D3F8DC30002B04D07B68D3F8DC30786810
:1040400098477868FFF75AFF23E07B68D3F8E800C9
:104050007B68D3F8EC103F4B1B881A467B681B7BB0
:1040600002FB03F31A460BF011FB7B68D3F8F80050
:104070007B68D3F8FC10374B1B881A467B681B7B88
:1040800002FB03F37A68127B02FB03F31A460BF080
:10409000FDFA7B68D3F8E030002B04D07B68D3F8BE
:1040A000E030786898470023FB732FE07B68D3F8F3
:1040B000F820FB7B7968097B03FB01F1FB7B0B4458
:1040C0009B00134493ED007A7B681A6AFB7B9B008C
:1040D0001344D3ED007AB4EEE77AF1EE10FA12D57C
:1040E0007B681A6AFB7B9B001A447B68D3F8F81044
:1040F000FB7B7868007B03FB00F0FB7B03449B00A9
:104100000B4412681A60FB7B0133FB737B681B7BDB
:10411000FA7B9A42CAD37B6818687B68D3F8E810A8
:104120000C4B1B881A467B681B7B02FB03F31A4669
:104130000BF0ACFA7B68D3F8E430002B04D07B683A
:10414000D3F8E430786898477B681B6818461037C6
:10415000BD4680BDA413002090B585B000AF786047
:104160007B6800221A747B68D3F8F4007B68596876
:10417000734B1B881A467B689B7B02FB03F31A4632
:104180000BF084FA7B6858686D4B1B881A467B6875
:104190009B7B02FB03F31A460021FCF763F87B6864
:1041A000D3F81801664B1B881A467B689B7B02FB81
:1041B00003F37A68927B02FB03F31A460021FCF7B3
:1041C00051F87B68D3F80C015D4B1B881A467B685D
:1041D0001B7B02FB03F37A68927B02FB03F31A4614
:1041E0000021FCF73FF80023FB7347E07B68D3F81E
:1041F000F420FB7B9B001344D3ED007AF5EE407A6C
:10420000F1EE10FA37D07B68D3F8F420FB7B9B00EB
:104210001A447B68D3F8F4107B681B7C9B000B442A
:1042200012681A607B685B6A7A68127C1344FA7BB6
:104230001A707B689A69FB7B9B001A447B68D3F8F1
:104240000C117B681B7B18467B681B7C00FB03F30F
:1042500078684469F87B20440078034403F1804384
:10426000013B9B000B4412681A607B681B7C013386
:10427000DAB27B681A74FB7B0133FB737B689B7B30
:10428000FA7B9A42B2D30023BB7319E07B68DA69E8
:104290007B68596ABB7B0B441B789B001A447B6884
:1042A000D3F81811BB7B7868007C03FB00F0BB7B64
:1042B00003449B000B4412681A60BB7B0133BB7341
:1042C0007B681B7CBA7B9A42E0D37B681B7C1A46D6
:1042D0007B68A3F878207B681B7B1A467B68A3F871
:1042E0007A207B681B7B1A467B68A3F880207B685A
:1042F0001B7C1A467B68A3F882207B681B7C1A46CD
:104300007B68A3F890207B681B7C1A467B68A3F827
:1043100092207B681B7B1A467B68A3F898207B68F9
:104320001B7C1A467B68A3F89A207B681B7C1A4684
:104330007B68A3F8482000BF1437BD4690BD00BF7E
:10434000A413002080B588B000AF786187ED040A1F
:10435000C7ED030A87ED021AC7ED011A87ED002A9F
:10436000424B01221A70414A3B69C2F8B0313F4AC0
:10437000FB68C2F8B4313D4ABB68C2F8B8313B4B68
:104380003B4AC3F8CC21394B002283F83821374906
:104390004FF000024FF00003C1E9502333494FF0C2
:1043A00000024FF00003C1E95223D7ED017AB7EEC6
:1043B000007AF4EEC77AF1EE10FA02DD4FF07E5388
:1043C0007B602A4A7B68C2F8D031284A3B68C2F831
:1043D00090310323002206212648FEF777FF264B63
:1043E0000122012125480AF0D1FE0023FB610EE0E5
:1043F000FB699B007A691A441C4BD3F8EC10FB69EB
:104400009B000B4412681A60FB690133FB61FB6976
:10441000032BEDDD154B1A4AC3F8D020134B194A74
:10442000C3F8D420114B184AC3F8D8200F4B174AB1
:10443000C3F8DC200D4B012283F82E200B4B012208
:1044400083F82F20094BD3F80431902210491846E5
:104450000BF01CF9054BD3F8FC3090220D4918469F
:104460000BF014F900BF2037BD4680BDA813002013
:1044700077CC2B32AC13002070150020681500207B
:10448000A1560008E54B0008A14E000805500008A1
:104490002814010854010020B0B58AB000AF87EDA0
:1044A000070AC7ED060A87ED051AC7ED041A87ED5E
:1044B000032AC7ED022A87ED013AB94A7B68C2F8A0
:1044C000BC31B74BD3ED587A97ED077A77EE677A20
:1044D000B34BC3ED5B7AB24BD3ED597A97ED067AC5
:1044E00077EE677AAE4BC3ED5C7AAD4BD3ED5A7A7B
:1044F00097ED057A77EE677AA94BC3ED5D7AA84B05
:10450000D3ED5B7AB6EE007A27EE877AD7ED017AA3
:1045100067EE277AA34BC3ED007AA14BD3ED5C7A0B
:10452000B6EE007A27EE877AD7ED017A67EE277A22
:104530009D4BC3ED007A9A4BD3ED5D7AB6EE007ACF
:1045400027EE877AD7ED017A67EE277A974BC3ED8E
:10455000007A934BD3F804319022954918460BF01A
:1045600095F8904BD3ED007A8D4BD3F8043104339A
:10457000F1EE677AC3ED007A8B4BD3ED007A884B6E
:10458000D3F804310833F1EE677AC3ED007A874B34
:10459000D3ED007A824BD3F804310C33F1EE677A15
:1045A000C3ED007A7E4BD3F8043118337D4A12688C
:1045B0001A607B4BD3F8043120337C4A12681A60AE
:1045C000794BD3ED007A764BD3F804312433F1EEF6
:1045D000677AC3ED007A724BD3F804313033724AF4
:1045E00012681A60714BD3ED007A6D4BD3F8043129
:1045F0003433F1EE677AC3ED007A694BD3F80431B6
:104600003C33684A12681A60654BD3F8043148336A
:10461000664A12681A60624BD3F804314C33624A1E
:1046200012681A605F4BD3ED007A5D4BD3F804310A
:104630005033F1EE677AC3ED007A594BD3E9522338
:1046400013430BD1564A3B69C2F87831544AFB6890
:10465000C2F87C31524ABB68C2F88031504B93EDAE
:104660005E7A4F4BD3ED647A67EE276A4C4B93ED3D
:104670006F7A4B4BD3ED647A77EE277A86EEA77A82
:10468000474BD3ED6F6AD7ED047A26EEA76A444B09
:10469000D3ED6F6A424BD3ED647A76EEA76AC6EE2D
:1046A000267A77EE277A3E4BC3ED5E7A3C4B93ED4C
:1046B0005F7A3B4BD3ED647A67EE276A384B93ED14
:1046C0006F7A374BD3ED647A77EE277A86EEA77A46
:1046D000334BD3ED6F6AD7ED037A26EEA76A304BE2
:1046E000D3ED6F6A2E4BD3ED647A76EEA76AC6EEF1
:1046F000267A77EE277A2A4BC3ED5F7A284B93ED23
:10470000607A274BD3ED647A67EE276A244B93EDEA
:104710006F7A234BD3ED647A77EE277A86EEA77A09
:104720001F4BD3ED6F6AD7ED027A26EEA76A1C4BBA
:10473000D3ED6F6A1A4BD3ED647A76EEA76AC6EEB4
:10474000267A77EE277A164BC3ED607A144B93EDF9
:104750005E7A134BD3ED5E7A27EE277A104BD3EDBA
:104760005F6A0F4BD3ED5F7A66EEA77A37EE277A52
:104770000B4BD3ED606A0A4BD3ED607A66EEA77AF5
:1047800077EE277AB0EE670A00F0B0FFF0EE407ADD
:10479000084BC3ED007A002387F8273026E000BFDE
:1047A000A8130020181600201C1600202016002038
:1047B000281401082416002097F82730384A5E3361
:1047C0009B00134493ED007A364BD3ED007A344BC3
:1047D0009A6897F827309B00134467EE277AC3ED59
:1047E000007A97F82730013387F8273097F8273079
:1047F000022BE1D92A4B93ED5B7A294BD3ED5B7AFF
:1048000027EE277A264BD3ED5C6A254BD3ED5C7AF5
:1048100066EEA77A37EE277A214BD3ED5D6A204BFF
:10482000D3ED5D7A66EEA77A77EE277AB0EE670A67
:1048300000F05CFFB0EE407AF7EE006AC6EE877AD1
:10484000174BC3ED657A174B93ED007AF7EE006ACC
:10485000C6EE877A124BC3ED667A114BD3ED657ABB
:104860009FED117AF4EEC77AF1EE10FA22D50C4BD7
:10487000D3ED667A9FED0D7AF4EEC77AF1EE10FA79
:1048800018DD074BD3ED667A9FED097AF4EEC77A0F
:10489000F1EE10FA0ED5024B012283F839210DE01A
:1048A000A8130020241600209A99993ECDCC1441DB
:1048B000CDCC2441C54B002283F83921C34B93ED65
:1048C0006C7AC24BD3ED6F7AC04BD3F8183167EED8
:1048D000277AC3ED007ABD4B93ED6C7ABB4BD3EDD9
:1048E0006F7ABA4BD3F818311C3367EE277AC3EDD1
:1048F000007AB64B93ED6C7AB44BD3ED6F7AB34B31
:10490000D3F81831383367EE277AC3ED007AAF4B0E
:1049100093ED6C7AAD4BD3ED6F7AAC4BD3F8183185
:10492000543367EE277AC3ED007AA84B93ED6D7A86
:10493000A64BD3ED6F7AA54BD3F81831703367EEE1
:10494000277AC3ED007AA14B93ED6D7A9F4BD3ED9F
:104950006F7A9E4BD3F818318C3367EE277AC3ED0C
:10496000007A9A4BD3F81C31984AD2F8B8211A60D1
:10497000964BD3F81C311033944AD2F8B8211A6000
:10498000924BD3F81C312033904AD2F8B8211A60E8
:104990008F48FFF709FB8D4B5B681B688B4AC2F899
:1049A00050318A4B5B685B68884AC2F85431874B48
:1049B0005B689B68854AC2F85831844B5B68DB684A
:1049C000824AC2F85C31814B5B681B697F4AC2F83E
:1049D00060317E4B5B685B697C4AC2F864317B4B1B
:1049E0004FF00002C3F86821784B93ED547A774B6F
:1049F000D3ED577A27EE277A744BD3ED556A734B74
:104A0000D3ED567A66EEA77A77EE277A37EEA76A65
:104A10006E4B93ED547A6D4BD3ED547A27EE277A93
:104A20006A4BD3ED556A694BD3ED557A66EEA77A9A
:104A300077EE277A77EEA77AB7EE007A77EEC77A25
:104A4000F0EE670AB0EE460A0AF086FEF0EE407A13
:104A50009FED607A67EE877A5C4BC3ED6A7A5B4BB9
:104A600093ED547A594BD3ED557A27EE277A574B6D
:104A7000D3ED566A554BD3ED577A66EEA77A77EEAB
:104A8000277A37EEA76A514B93ED547A4F4BD3ED0B
:104A9000547A27EE277A4D4BD3ED576A4B4BD3ED23
:104AA000577A66EEA77A77EE277A77EEA77AB7EE8F
:104AB000007A77EEC77AF0EE670AB0EE460A0AF09F
:104AC0004BFEF0EE407A9FED437A67EE877A3F4BDC
:104AD000C3ED697A3D4B93ED557A3C4BD3ED577A54
:104AE00027EE277A394BD3ED546A384BD3ED567AFB
:104AF00066EEA77A77EE677AB8EE007A67EE877A85
:104B0000B0EE670A0AF0FCFDF0EE407A9FED317AD4
:104B100067EE877A2D4BC3ED687A2C4B93ED6A7A5A
:104B20002A4BD3ED767A77EE677A9FED2B7AF4EE07
:104B3000C77AF1EE10FA0ADD244BB3F9D4319BB2F7
:104B4000013B9BB21AB2214BA3F8D42118E01F4BB2
:104B500093ED6A7A1D4BD3ED767A77EE677A9FED07
:104B60001F7AF4EEC77AF1EE10FA09D5174BB3F9B4
:104B7000D4319BB201339BB21AB2144BA3F8D421A7
:104B8000124BB3F9D43107EE903AF8EEE77A9FED85
:104B9000147A27EE877A0D4BD3ED6A7A77EE277A6F
:104BA0000A4BC3ED6B7A094BD3F8A831074AC2F818
:104BB000D831064BD3E95223541C43F10005034B73
:104BC000C3E9524500BF2837BD46B0BDA813002039
:104BD000AC130020E12E654200003443000034C3D2
:104BE0000000B44380B584B000AF78607B68D3F830
:104BF000EC301B68A24A13607B68D3F8EC305B682A
:104C0000A04A13607B68D3F8EC309B689E4A13601F
:104C10007B68D3F8EC30DB689C4A1360984B93EDCB
:104C2000007A974BD3ED007A27EE277A954BD3ED98
:104C3000006A944BD3ED007A66EEA77A37EE277AB6
:104C4000914BD3ED006A904BD3ED007A66EEA77AD4
:104C500037EE277A8D4BD3ED006A8C4BD3ED007A7B
:104C600066EEA77A77EE277AB0EE670A00F03EFD8F
:104C7000F0EE407A864BC3ED007A0023FB7317E019
:104C80007B68D3F8EC20FB7B9B00134493ED007A08
:104C90007F4BD3ED007A7B68D3F8EC20FB7B9B0045
:104CA000134467EE277AC3ED007AFB7B0133FB7375
:104CB000FB7B032BE4D9774B93ED6F7A714BD3EDEC
:104CC000007A27EE277A7B68D3F800311033F0EEB4
:104CD000006AC7EE267AC3ED007A6E4B93ED6F7AC9
:104CE000694BD3ED007A27EE277A7B68D3F8003141
:104CF0001433F0EE006AC7EE267AC3ED007A604BFB
:104D0000D3ED007AB1EE677A624BD3ED6F7A27EE7E
:104D1000277A7B68D3F800312833F0EE006AC7EEBB
:104D2000267AC3ED007A5B4B93ED6F7A574BD3ED48
:104D3000007A27EE277A7B68D3F800312C33F0EE27
:104D4000006AC7EE267AC3ED007A504BD3ED007AA5
:104D5000B1EE677A4F4BD3ED6F7A27EE277A7B68F7
:104D6000D3F800314033F0EE006AC7EE267AC3ED87
:104D7000007A434BD3ED007AB1EE677A454BD3ED21
:104D80006F7A27EE277A7B68D3F800314433F0EE50
:104D9000006AC7EE267AC3ED007A3E4B93ED6F7A38
:104DA000394BD3ED007A27EE277A7B68D3F80031B0
:104DB0005833F0EE006AC7EE267AC3ED007A314B25
:104DC000D3ED007AB1EE677A324BD3ED6F7A27EEEE
:104DD000277A7B68D3F800315C33F0EE006AC7EEC7
:104DE000267AC3ED007A7B68D3F8F8307033D3EDC0
:104DF000006A284B93ED747A7B68D3F8F8307033EF
:104E0000C6EE877AC3ED007A7B68D3F8F8308C332E
:104E1000D3ED006A1F4B93ED747A7B68D3F8F830BA
:104E20008C33C6EE877AC3ED007A7B68D3F8F8300E
:104E30007033D3ED007A9FED187AF4EEC77AF1EE75
:104E400010FA05DD7B68D3F8F8307033134A1A6026
:104E50007B68D3F8F8308C33D3ED007A9FED0E7A6F
:104E6000F4EEC77AF1EE10FA00DC05E07B68D3F8C7
:104E7000F8308C33094A1A6000BF1037BD4680BD38
:104E8000281600202C160020301600203416002092
:104E900038160020A813002000401C4600401C4685
:104EA00080B582B000AF78607B68D3F8EC30D3ED8A
:104EB000007A77EEA77A4E4BC3ED007A7B68D3F881
:104EC000EC300433D3ED007A77EEA77A494BC3ED8B
:104ED000007A7B68D3F8EC300833D3ED007A77EEB4
:104EE000A77A454BC3ED007A7B68D3F8EC300C33DE
:104EF000D3ED007A77EEA77A404BC3ED007A7B685A
:104F0000D3F80C013E4B1B881A467B689B7B02FB47
:104F100003F37A68127B02FB03F31A460021FBF7C6
:104F2000A1F9354BD3ED007A7B68D3F80C31F1EE63
:104F3000677AC3ED007A7B68D3F80C3104332F4ACB
:104F400012681A602A4BD3ED007A7B68D3F80C31D3
:104F50000833F1EE677AC3ED007A7B68D3F80C3141
:104F60000C33244A12681A607B68D3F80C3118336A
:104F7000204A12681A607B68D3F80C311C331C4A33
:104F800012681A607B68D3F80C3120331B4A126810
:104F90001A607B68D3F80C312433174A12681A6000
:104FA0007B68D3F80C313033114A12681A60114B08
:104FB000D3ED007A7B68D3F80C313433F1EE677AA5
:104FC000C3ED007A0C4BD3ED007A7B68D3F80C313B
:104FD0003833F1EE677AC3ED007A7B68D3F80C3191
:104FE0003C33064A12681A6000BF0837BD4680BDD0
:104FF0003C160020401600204416002048160020D1
:10500000A4130020F0B585B000AF78607B6803F191
:1050100078027B6880331946104609F065FD034627
:105020001A467B6883F8C8207B68B3F878207B68D1
:10503000A3F8A8207B68B3F85A207B68A3F8AA20BD
:105040007B6803F178007B6803F158017B68A83323
:105050001A4609F05FFE03461A467B6883F8C820AB
:105060007B68B3F8A8207B68A3F8B0207B68B3F80E
:1050700082207B68A3F8B2207B6803F1A8007B68DC
:1050800003F180017B68B0331A4609F043FE034602
:105090001A467B6883F8C8207B68B3F890207B6849
:1050A000A3F8A0207B68B3F892207B68A3F8A22025
:1050B0007B6803F1B0007B6803F190017B68A0334B
:1050C0001A460AF067F803461A467B6883F8C82038
:1050D0007B6803F1A0027B68B0331946104609F0E3
:1050E00029FF03461A467B6883F8C8207B68D3F8FB
:1050F000EC301B68B54A13607B68D3F8EC305B6812
:10510000B34A13607B68D3F8EC309B68B14A1360F4
:105110007B68D3F8EC30DB68AF4A13607B68B3F888
:1051200078207B68A3F8B8207B680122A3F8BA2016
:10513000A74B93ED007AA84BD3ED007A27EE277AA0
:10514000A24BD3ED006AA34BD3ED007A66EEA77AAB
:1051500077EE677A7B68D3F82C3177EEA77AC3EDC8
:10516000007A9A4B93ED007A994BD3ED007A27EEB3
:10517000277A984BD3ED006A974BD3ED007A66EE11
:10518000A77A77EE277A7B68D3F82C31043377EE51
:10519000A77AC3ED007A8D4B93ED007A8B4BD3ED5C
:1051A000007A27EE277A8A4BD3ED006A884BD3ED3D
:1051B000007A66EEA77A37EE677A864BD3ED006AFF
:1051C000844BD3ED007A66EEA77A37EE677A824B8E
:1051D000D3ED006A804BD3ED007A66EEA77A7B6848
:1051E000D3F82C31083377EE277AC3ED007A002309
:1051F000FB731BE07B68D3F82C21FB7B9B001344E3
:10520000D3ED007AF0EEE77AFE7BB0EE670A0AF0A3
:105210004BFAF0EE407A714A06F160039B001344AA
:105220000433C3ED007AFB7B0133FB73FB7B022B62
:10523000E0D97B68B3F848207B68A3F8C0207B687E
:105240000122A3F8C2207B6803F148007B6803F1C8
:10525000B8017B68C0331A4609F0F0FC03461A46D1
:105260007B6883F8C8207B68B3F8C0207B68A3F80C
:10527000A8207B680122A3F8AA207B6803F1B00074
:105280007B6803F1C0017B68A8331A4609F042FD30
:1052900003461A467B6883F8C8207B680122A3F87E
:1052A000B8207B68B3F8C0207B68A3F8BA207B687D
:1052B00003F1C0027B68B8331946104609F014FCAC
:1052C00003461A467B6883F8C8207B6803F1B80060
:1052D0007B68A833424A194609F01CFD03461A466A
:1052E0007B6883F8C8203D4B93ED727A3B4BD3ED3E
:1052F000737AF6EE006A67EEA67AB4EEE77AF1EE1C
:1053000010FA03D5354B012283F83821334B93ED46
:10531000727A324BD3ED737AB4EEE77AF1EE10FA8B
:1053200062DD2E4B93F83831002B5DD02B4B93F878
:105330003931002B09D0294BD3E95023541C43F1B8
:105340000005264BC3E9504506E024494FF0000212
:105350004FF00003C1E95023204BD3E95023332AF7
:1053600073F1000308D31D4B002283F838217B68BA
:10537000002283F82C2070E07B68D3F8E8007B687B
:10538000D3F8EC10174B1B881A467B681B7B02FB7B
:1053900003F31A460AF07AF97B68D3F8F8007B68C1
:1053A000D3F8FC100F4B1B881A467B681B7B02FB53
:1053B00003F37A68127B02FB03F31A460AF066F9DC
:1053C0007B68012283F82C205AE100BF4C16002094
:1053D000501600205416002058160020A813002054
:1053E00068150020A4130020A74B93ED727AA64BFA
:1053F000D3ED737ADFEDA56A67EEA67AB4EEE77AAD
:10540000F1EE10FA19DDA04B93F83831002B14D0CF
:105410009D4B93ED737A9C4BD3ED727A77EE676A6E
:10542000994BD3ED737A9FED9A7A27EE877AC6EE81
:10543000877A954BC3ED677A04E0934B4FF07E5229
:10544000C3F89C2190494FF000024FF00003C1E9DE
:1054500050237B68002283F82C207B68B3F8582007
:105460007B68A3F8A8207B68B3F882207B68A3F848
:10547000AA207B6803F158007B6803F180017B68F8
:10548000A8331A4609F046FC03461A467B6883F89F
:10549000C8207B6803F1A8007B6803F1B0017B683A
:1054A00098331A4609F036FC03461A467B6883F89F
:1054B000C8200023BB7317E07B68D3F81C21BB7B9B
:1054C0009B00134493ED007A6F4BD3ED677A7B68B2
:1054D000D3F81C21BB7B9B00134467EE277AC3EDF6
:1054E000007ABB7B0133BB73BA7B7B68B3F898301F
:1054F00019467B68B3F89A3001FB03F39A42DBDB71
:1055000004237B7334E000233B732BE07B68D3F8E8
:105510001C117A7B13465B001A443B7B13449B00AF
:105520000B4493ED007A7B7B043B574A60339B002E
:1055300013440433D3ED006A9FED566AC6EE867AB3
:105540007B68D3F81C117A7B13465B001A443B7BC3
:1055500013449B000B4467EE277AC3ED007A3B7B34
:1055600001333B733B7B022BD0D97B7B01337B73B5
:105570007B7B052BC7D97B68B3F898207B68A3F8A1
:10558000B8207B680122A3F8BA207B6803F1980059
:105590007B6803F1C0017B68B8331A4609F0BAFB97
:1055A00003461A467B6883F8C820374B93F8383196
:1055B000002B4ED00423FB7248E07B68D3F8BC205C
:1055C000FB7A9B00134493ED007A2F4BD3ED6F7A57
:1055D000DFED316A67EEA67AB4EEE77AF1EE10FA03
:1055E0000EDD294BD3ED6F7A7B68D3F8BC20FB7AB4
:1055F0009B0013449FED287A67EE877AC3ED007A0B
:105600007B68D3F8BC20FB7A9B00134493ED007AAF
:105610001D4BD3ED6F7ADFED216A67EEA67AB4EE0B
:10562000E77AF1EE10FA0ED5174BD3ED6F7A7B685F
:10563000D3F8BC20FB7A9B0013449FED187A67EEE9
:10564000877AC3ED007AFB7A0133FB72FB7A052B74
:10565000B3D97B68D3F8BC300C334FF000021A602A
:105660007B6803F138007B6803F1B8017B68303355
:105670001A4609F08FFD03461A467B6883F8C82056
:105680001437BD46F0BD00BFA8130020CDCCCC3DE3
:105690006666663FDA0FC93F0AD7233C0AD723BCA8
:1056A00080B582B000AF78607B68D3F8F830902284
:1056B00019460B4809F0EAFF7B68D3F81C314822F1
:1056C0001946084809F0E2FF7B68D3F80C314822FC
:1056D0001946054809F0DAFF00BF0837BD4680BD0E
:1056E0005401002088150020D015002080B487B018
:1056F00000AF87ED010AD7ED017AB6EE007A67EECA
:10570000877AC7ED057A7B683B6107F110031B6858
:10571000FB60FB685A10124B9B1AFB6007F10C03ED
:105720001B683B6197ED047AD7ED057A27EE277A5F
:10573000D7ED047A67EE277AB7EE087A37EE677A04
:10574000D7ED047A67EE277AC7ED047A3B6907EE56
:10575000903AB0EE670A1C37BD465DF8047B70478F
:10576000865A375F80B487B000AF87ED010AD7ED66
:10577000017AF5EEC07AF1EE10FA02D84FF000038C
:105780003CE097ED017AF0EE006AC7EE267AC7EDAD
:10579000057AD7ED017A9FED1E7A67EE877AC7ED1D
:1057A000047AD7ED057A27EEA77AD7ED017A77EE5E
:1057B000677AC7ED037AD7ED057A37EEA77AD7ED8A
:1057C000036AC6EE877A97ED057A77EE677AC7EDBA
:1057D000057A97ED037AD7ED047AB4EEE77AF1EE25
:1057E00010FADEDCD7ED047AF1EE677A97ED037AF2
:1057F000B4EEE77AF1EE10FAD3D47B6907EE903A73
:10580000B0EE670A1C37BD465DF8047B704700BFE9
:105810006F12833A80B584B000AF78607B6893EDF7
:10582000007A7B68D3ED007A27EE277A7B68043311
:10583000D3ED006A7B680433D3ED007A66EEA77A75
:1058400037EE277A7B680833D3ED006A7B6808332C
:10585000D3ED007A66EEA77A77EE277AB0EE670A84
:10586000FFF780FF87ED030A7B68D3ED006A97EDB1
:10587000037AC6EE877A7B68C3ED007A7B680433CF
:10588000D3ED006A7B68043397ED037AC6EE877A1E
:10589000C3ED007A7B680833D3ED006A7B68083378
:1058A00097ED037AC6EE877AC3ED007A7B681846D7
:1058B0001037BD4680BD80B485B000AFF860B960D8
:1058C0007A60FB68043393ED007ABB680833D3ED4C
:1058D000007A27EE277AFB680833D3ED006ABB68AD
:1058E0000433D3ED007A66EEA77A77EE677A7B68A9
:1058F000C3ED007AFB68083393ED007ABB68D3ED03
:10590000007A27EE277AFB68D3ED006ABB6808337C
:10591000D3ED007A66EEA77A7B68043377EE677A78
:10592000C3ED007AFB6893ED007ABB680433D3EDD6
:10593000007A27EE277AFB680433D3ED006ABB6850
:10594000D3ED007A66EEA77A7B68083377EE677A44
:10595000C3ED007A00BF1437BD465DF8047B704785
:1059600080B483B000AF786039607B6893ED007AD3
:105970003B68D3ED007A27EE277A7B680433D3EDBA
:10598000006A3B680433D3ED007A66EEA77A37EEFF
:10599000277A7B680833D3ED006A3B680833D3ED80
:1059A000007A66EEA77A77EE277AB0EE670A0C37B0
:1059B000BD465DF8047B704780B58CB004AF78605D
:1059C00039603B685B68DBB2013BFB747B6893F832
:1059D000A631012B75D0002B40F3E280023B012B56
:1059E00000F2DE80FB7C032B0BD8FB7CFB773B6853
:1059F0001B68724A934201D1012300E00423BB7764
:105A00000BE0FB7C043BFB773B681B686B4A9342D3
:105A100001D1002300E00323BB77FB7C03F20123C9
:105A20001A463B689A60BB7F654A0121D1547B6866
:105A3000FA7F83F8A5217B68BA7F83F8A42100232D
:105A4000BB6137E05F4ABB6952F82330D3F8A0311D
:105A50001A683B681B689A4229D15A4ABB6952F8B6
:105A60002330D3F8A0315A6B3B689B689A421ED111
:105A7000554B0093554B564A56490020FCF738F9D0
:105A80003B681B684D4A934201D1012300E0022389
:105A90003B823B689B683A8A4B4902910192009392
:105AA0004A4B4B4A4C490020FCF722F9F1E7BB690D
:105AB0000133BB61494B1B781A46BB699342C1D382
:105AC00077E0FB7C032B0BD8FB7CFB773B681B68E8
:105AD0003A4A934201D1002300E00323BB770BE055
