:020000040800F2
:100000000000022049330008AD310008B531000876
:10001000BD310008C5310008CD31000800000000E6
:10002000000000000000000000000000312A00086D
:10003000D531000800000000812C0008E92C0008E0
:100040009933000899330008993300089933000860
:100050009933000899330008993300089933000850
:100060009933000899330008993300089933000840
:100070009933000899330008993300089933000830
:100080009933000899330008993300089933000820
:100090009933000899330008993300089933000810
:1000A0009933000899330008993300089933000800
:1000B00099330008993300089933000899330008F0
:1000C00099330008993300089933000899330008E0
:1000D00099330008993300089933000899330008D0
:1000E00099330008993300089933000899330008C0
:1000F00099330008E5310008993300089933000866
:10010000993300089933000899330008993300089F
:10011000993300089933000899330008993300088F
:10012000993300089933000899330008993300087F
:10013000993300089933000899330008993300086F
:10014000993300089933000899330008993300085F
:10015000993300089933000899330008993300084F
:10016000993300089933000899330008993300083F
:100170009933000899330008993300080000000003
:080180009933000899330008CF
:10019000830730B547D0541E002A3ED0CAB203466A
:1001A00001E0013C39D303F8012B9D07F9D1032C61
:1001B0002CD9CDB205EB05250F2C05EB054535D91E
:1001C000A4F1100222F00F0C03F1100EE6444FEAE6
:1001D000121C1A46C2E90055C2E902551032724596
:1001E000F8D10CF1010214F00C0F03EB021204F031
:1001F0000F0C13D0ACF1040323F0030304331344B6
:1002000042F8045B9342FBD10CF003042CB1C9B259
:100210001C4403F8011BA342FBD130BD64461346C6
:10022000002CF4D1F9E703461446C0E71A46A44669
:10023000E0E700BF70B50F4B0F4DAB42A3EB0506D7
:1002400007D0B610002455F8043B01349847A64265
:10025000F9D803F0F3F9094D094B5E1BAB424FEAA5
:10026000A60606D0002455F8043B01349847A64260
:10027000F9D870BDA4360008A4360008A4360008DA
:10028000A836000853B94AB9002908BF00281CBF86
:100290004FF0FF314FF0FF3000F00CB8ADF1080C1B
:1002A0006DE904CE03F079F8DDF804E0DDE902231E
:1002B00004B07047704700BF10B5054C237833B9C0
:1002C000044B13B10448AFF300800123237010BD29
:1002D00010000020000000003C36000808B5034B69
:1002E0001BB103490348AFF3008008BD00000000C4
:1002F000140000203C36000880B400AF064BD3F851
:100300008830054A43F47003C2F8883000BFBD4608
:100310005DF8047B704700BF00ED00E080B582B05F
:1003200000AF78607B68002B01D1012341E07B683E
:1003300093F83D30DBB2002B06D17B68002283F8B6
:100340003C20786800F039F87B68022283F83D2071
:100350007B681A687B6804331946104600F0C0F9C0
:100360007B68012283F846207B68012283F83E20C7
:100370007B68012283F83F207B68012283F84020BC
:100380007B68012283F841207B68012283F84220A8
:100390007B68012283F843207B68012283F8442094
:1003A0007B68012283F845207B68012283F83D2089
:1003B000002318460837BD4680BD80B483B000AF27
:1003C000786000BF0C37BD465DF8047B70470000C5
:1003D00080B485B000AF78607B6893F83D30DBB2C5
:1003E000012B01D001234EE07B68022283F83D20DF
:1003F0007B681B68DA687B681B6842F00102DA6080
:100400007B681B68234A934222D07B681B68B3F148
:10041000804F1DD07B681B681F4A934218D07B68B1
:100420001B681E4A934213D07B681B681C4A934288
:100430000ED07B681B681B4A934209D07B681B68FF
:10044000194A934204D07B681B68184A934211D121
:100450007B681B689B6803F00703FB60FB68062B47
:1004600010D07B681B681A687B681B6842F0010229
:100470001A6007E07B681B681A687B681B6842F09B
:1004800001021A60002318461437BD465DF8047B4C
:10049000704700BF00000140000400400008004019
:1004A000000C0040000401400040014000180040E2
:1004B00080B584B000AF78607B681B68DB68FB6048
:1004C0007B681B681B69BB60BB6803F00203002BE1
:1004D00020D0FB6803F00203002B1BD07B681B6855
:1004E0006FF002021A617B6801221A777B681B6831
:1004F0009B6903F00303002B03D0786800F0D2F867
:1005000005E0786800F0C4F8786800F0D5F87B68FA
:1005100000221A77BB6803F00403002B20D0FB688D
:1005200003F00403002B1BD07B681B686FF00402F0
:100530001A617B6802221A777B681B689B6903F447
:100540004073002B03D0786800F0ACF805E07868C1
:1005500000F09EF8786800F0AFF87B6800221A7708
:10056000BB6803F00803002B20D0FB6803F00803EE
:10057000002B1BD07B681B686FF008021A617B6838
:1005800004221A777B681B68DB6903F00303002BE6
:1005900003D0786800F086F805E0786800F078F815
:1005A000786800F089F87B6800221A77BB6803F04E
:1005B0001003002B20D0FB6803F01003002B1BD08E
:1005C0007B681B686FF010021A617B6808221A773B
:1005D0007B681B68DB6903F44073002B03D07868E9
:1005E00000F060F805E0786800F052F8786800F0F4
:1005F00063F87B6800221A77BB6803F00103002BC5
:100600000CD0FB6803F00103002B07D07B681B684C
:100610006FF001021A61786802F032FCBB6803F0E7
:100620008003002B0CD0FB6803F08003002B07D065
:100630007B681B686FF080021A61786800F006F929
:10064000BB6803F04003002B0CD0FB6803F04003B1
:10065000002B07D07B681B686FF040021A61786836
:1006600000F034F8BB6803F02003002B0CD0FB68CB
:1006700003F02003002B07D07B681B686FF020027B
:100680001A61786800F0D8F800BF1037BD4680BD09
:1006900080B483B000AF786000BF0C37BD465DF812
:1006A000047B704780B483B000AF786000BF0C3724
:1006B000BD465DF8047B704780B483B000AF7860BE
:1006C00000BF0C37BD465DF8047B704780B483B033
:1006D00000AF786000BF0C37BD465DF8047B704703
:1006E00080B485B000AF786039607B681B68FB60C0
:1006F0007B68464A934213D07B68B3F1804F0FD09A
:100700007B68434A93420BD07B68424A934207D0AE
:100710007B68414A934203D07B68404A934208D1A8
:10072000FB6823F07003FB603B685B68FA68134367
:10073000FB607B68354A93422BD07B68B3F1804FD6
:1007400027D07B68324A934223D07B68314A934258
:100750001FD07B68304A93421BD07B682F4A93425C
:1007600017D07B682E4A934213D07B682D4A934260
:100770000FD07B682C4A93420BD07B682B4A934264
:1007800007D07B682A4A934203D07B68294A934268
:1007900008D1FB6823F44073FB603B68DB68FA68B0
:1007A0001343FB60FB6823F080023B685B691343E3
:1007B000FB607B68FA681A603B689A687B68DA625B
:1007C0003B681A687B689A627B68104A934203D040
:1007D0007B68124A934203D13B681A697B681A63AB
:1007E0007B6801225A617B681B6903F00103012BBE
:1007F00005D17B681B6923F001027B681A6100BF89
:100800001437BD465DF8047B704700BF000001400F
:100810000004004000080040000C004000040140BB
:1008200000400140004401400048014000180040E1
:10083000001C00400020004080B483B000AF78600E
:1008400000BF0C37BD465DF8047B704780B483B0B1
:1008500000AF786000BF0C37BD465DF8047B704781
:1008600080B584B000AF78607B68002B01D1012394
:10087000EDE07B6893F82030DBB2002B02D1786882
:1008800002F0F6FB7B681B681A687B681B6842F005
:1008900001021A6001F00AF8F86012E001F006F8AF
:1008A0000246FB68D31A0A2B0BD97B685B6A43F4B8
:1008B00000327B685A627B68052283F8202001237E
:1008C000C5E07B681B685B6803F00103002BE5D083
:1008D0007B681B681A687B681B6822F002021A603A
:1008E00000F0E4FFF86012E000F0E0FF0246FB6871
:1008F000D31A0A2B0BD97B685B6A43F400327B68FE
:100900005A627B68052283F8202001239FE07B68E0
:100910001B685B6803F00203002BE5D17B681B7E3C
:10092000012B08D17B681B681A687B681B6842F042
:1009300080021A6007E07B681B681A687B681B6886
:1009400022F080021A607B685B7E012B08D17B68F5
:100950001B681A687B681B6842F040021A6007E057
:100960007B681B681A687B681B6822F040021A606B
:100970007B689B7E012B08D17B681B681A687B68AB
:100980001B6842F020021A6007E07B681B681A6847
:100990007B681B6822F020021A607B68DB7E012BDB
:1009A00008D17B681B681A687B681B6822F01002FC
:1009B0001A6007E07B681B681A687B681B6842F056
:1009C00010021A607B681B7F012B08D17B681B68B3
:1009D0001A687B681B6842F008021A6007E07B68AF
:1009E0001B681A687B681B6822F008021A607B6823
:1009F0005B7F012B08D17B681B681A687B681B68CA
:100A000042F004021A6007E07B681B681A687B6882
:100A10001B6822F004021A607B689A687B68DB68B6
:100A20001A437B681B691A437B685B6942EA0301CE
:100A30007B685B685A1E7B681B680A43DA617B68C7
:100A400000225A627B68012283F820200023184686
:100A50001037BD4680BD000080B586B000AF78601D
:100A60007B68002B01D1012367E27B681B6803F0E0
:100A70000103002B75D0884B9B6803F00C03042BFB
:100A80000CD0854B9B6803F00C03082B12D1824BD2
:100A90005B6803F48003B3F5800F0BD17E4B1B68BA
:100AA00003F40033002B5BD07B685B68002B57D1CD
:100AB000012342E27B685B68B3F5803F06D1764B49
:100AC0001B68754A43F4803313601DE07B685B68E4
:100AD000B3F5A02F0CD1704B1B686F4A43F48023F1
:100AE00013606D4B1B686C4A43F4803313600BE05A
:100AF000694B1B68684A23F480331360664B1B689C
:100B0000654A23F4802313607B685B68002B13D055
:100B100000F0CCFE386108E000F0C8FE02463B69F8
:100B2000D31A642B01D9032307E25B4B1B6803F440
:100B30000033002BF0D014E000F0B8FE386108E07C
:100B400000F0B4FE02463B69D31A642B01D903239B
:100B5000F3E1514B1B6803F40033002BF0D100E0AC
:100B600000BF7B681B6803F00203002B63D04A4B75
:100B70009B6803F00C03002B0BD0474B9B6803F0E2
:100B80000C03082B1CD1444B5B6803F48003002B3F
:100B900016D1414B1B6803F00203002B05D07B6884
:100BA000DB68012B01D00123C7E13B4B1B6823F01D
:100BB000F8027B681B69DB00374913430B603AE09E
:100BC0007B68DB68002B20D0344B01221A6000F0D8
:100BD0006DFE386108E000F069FE02463B69D31AF9
:100BE000022B01D90323A8E12B4B1B6803F002035E
:100BF000002BF0D0284B1B6823F0F8027B681B69A0
:100C0000DB00254913430B6015E0244B00221A60DA
:100C100000F04CFE386108E000F048FE02463B69F7
:100C2000D31A022B01D9032387E11B4B1B6803F066
:100C30000203002BF0D17B681B6803F00803002B34
:100C400036D07B685B69002B16D0154B01221A60E9
:100C500000F02CFE386108E000F028FE02463B69F7
:100C6000D31A022B01D9032367E10B4B5B6F03F00F
:100C70000203002BF0D01BE0094B00221A6000F0A9
:100C800015FE38610EE000F011FE02463B69D31AF2
:100C9000022B07D9032350E10038024000004742ED
:100CA000800E4742884B5B6F03F00203002BEAD1B2
:100CB0007B681B6803F00403002B00F0978000237F
:100CC000FB75814B1B6C03F08053002B0FD100236D
:100CD000BB607D4B1B6C7C4A43F0805313647A4BA2
:100CE0001B6C03F08053BB60BB680123FB75774B23
:100CF0001B6803F48073002B18D1744B1B68734A74
:100D000043F48073136000F0D1FD386108E000F017
:100D1000CDFD02463B69D31A022B01D903230CE116
:100D20006A4B1B6803F48073002BF0D07B689B68D0
:100D3000012B06D1644B1B6F634A43F00103136719
:100D40001CE07B689B68052B0CD15F4B1B6F5E4AD8
:100D500043F0040313675C4B1B6F5B4A43F00103D2
:100D600013670BE0584B1B6F574A23F001031367BF
:100D7000554B1B6F544A23F0040313677B689B6831
:100D8000002B15D000F092FD38610AE000F08EFDD6
:100D900002463B69D31A41F28832934201D90323B8
:100DA000CBE0494B1B6F03F00203002BEED014E0A5
:100DB00000F07CFD38610AE000F078FD02463B69F6
:100DC000D31A41F28832934201D90323B5E03E4B56
:100DD0001B6F03F00203002BEED1FB7D012B05D12D
:100DE000394B1B6C384A23F0805313647B689B6932
:100DF000002B00F0A180344B9B6803F00C03082B00
:100E00005CD07B689B69022B41D1314B00221A6078
:100E100000F04CFD386108E000F048FD02463B69F7
:100E2000D31A022B01D9032387E0274B1B6803F059
:100E30000073002BF0D17B68DA697B681B6A1A4368
:100E40007B685B6A9B011A437B689B6A5B08013B7A
:100E50001B041A437B68DB6A1B061B4913434B6068
:100E60001B4B01221A6000F021FD386108E000F000
:100E70001DFD02463B69D31A022B01D903235CE016
:100E8000114B1B6803F00073002BF0D054E0104BA3
:100E900000221A6000F00AFD386108E000F006FD4B
:100EA00002463B69D31A022B01D9032345E0064BC6
:100EB0001B6803F00073002BF0D13DE07B689B6959
:100EC000012B07D1012338E00038024000700040B8
:100ED000600047421B4B5B68FB607B689B69012B92
:100EE00028D0FB6803F480027B68DB699A4221D139
:100EF000FB6803F03F027B681B6A9A421AD1FA68CA
:100F000047F6C07313407A68526A9201934211D136
:100F1000FB6803F440327B689B6A5B08013B1B045F
:100F20009A4207D1FB6803F070627B68DB6A1B069C
:100F30009A4201D0012300E0002318461837BD462D
:100F400080BD00BF0038024080B584B000AF78603B
:100F500039607B68002B01D10123CCE0684B1B6812
:100F600003F007033A689A420CD9654B3A68D2B24B
:100F70001A70634B1B6803F007033A689A4201D06A
:100F80000123B8E07B681B6803F00203002B20D02C
:100F90007B681B6803F00403002B05D0594B9B684A
:100FA000584A43F4E05393607B681B6803F00803DE
:100FB000002B05D0534B9B68524A43F46043936027
:100FC000504B9B6823F0F0027B689B684D491343AC
:100FD0008B607B681B6803F00103002B44D07B68A7
:100FE0005B68012B07D1474B1B6803F40033002BD0
:100FF00019D101237FE07B685B68022B03D07B68FB
:101000005B68032B07D13F4B1B6803F00073002B79
:1010100009D101236FE03B4B1B6803F00203002B57
:1010200001D1012367E0374B9B6823F003027B6803
:101030005B68344913438B6000F038FCF8600AE0C9
:1010400000F034FC0246FB68D31A41F28832934226
:1010500001D903234FE02B4B9B6803F00C027B6804
:101060005B689B009A42EBD1254B1B6803F007039A
:101070003A689A420CD2224B3A68D2B21A70204B8C
:101080001B6803F007033A689A4201D0012332E05B
:101090007B681B6803F00403002B08D0194B9B6886
:1010A00023F4E0527B68DB68164913438B607B684E
:1010B0001B6803F00803002B09D0124B9B6823F434
:1010C00060427B681B69DB000E4913438B6000F0B4
:1010D00021F802460B4B9B681B0903F00F030A49DA
:1010E000CB5C22FA03F3094A1360094B1B681846CC
:1010F00002F0AEF8002318461037BD4680BD00BF91
:10110000003C024000380240843600080000002005
:10111000040000202DE9B04F90B000AF00237B63A6
:101120000023FB6300233B630023BB63594B9B6895
:1011300003F00C03082B0DD0082B00F2A180002B2C
:1011400002D0042B03D09BE0534BBB639BE0534B7B
:10115000BB6398E04F4B5B6803F03F037B634D4BF1
:101160005B6803F48003002B28D04A4B5B689B0923
:1011700000223B627A623B6AC3F308000021474BBE
:1011800003FB01F2002300FB03F31344434AA0FBDB
:101190000212FA620A46BA62FA6A1344FB627B6B75
:1011A0000022BB61FA61D7E90623D7E90A01FFF7FC
:1011B00069F802460B461346FB6353E0354B5B6808
:1011C0009B0900223B617A613B69C3F3080A4FF037
:1011D000000B52465B464FF000004FF000015901F2
:1011E00041EAD261500102460B46B2EB0A0863EBBA
:1011F0000B094FF000024FF000034FEA891343EA56
:1012000098634FEA8812B2EB080463EB09054FF0CC
:1012100000024FF00003EB0043EA5473E20014466F
:101220001D4614EB0A033B6045EB0B037B604FF05C
:1012300000024FF00003D7E9004529468B02214602
:1012400043EA915321468A02104619467B6B0022DD
:10125000BB60FA60D7E90223FFF714F802460B4699
:101260001346FB630B4B5B681B0C03F0030301335A
:101270005B003B63FA6B3B6BB2FBF3F3BB6302E0D7
:10128000054BBB6300BFBB6B18464037BD46BDE88E
:10129000B08F00BF003802400024F400001BB700EC
:1012A00080B400AF034B1B681846BD465DF8047B55
:1012B000704700BF0000002080B500AFFFF7F0FFCF
:1012C0000246054B9B689B0A03F007030349CB5C6E
:1012D00022FA03F3184680BD003802409436000815
:1012E00080B483B000AF786039607B680F221A60E9
:1012F000124B9B6803F003027B685A600F4B9B689C
:1013000003F0F0027B689A600C4B9B6803F4E05298
:101310007B68DA60094B9B68DB0803F4E0527B686A
:101320001A61074B1B6803F007023B681A6000BF95
:101330000C37BD465DF8047B704700BF00380240A3
:10134000003C024080B489B000AF7860396000236F
:101350007B6100233B610023BB610023FB616BE1E8
:101360000122FB6902FA03F37B613B681B687A691F
:1013700013403B613A697B699A4240F05A813B686D
:101380005B6803F00303012B05D03B685B6803F047
:101390000303022B30D17B689B68BB61FB695B0058
:1013A000032202FA03F3DB43BA691340BB613B68D3
:1013B000DA68FB695B0002FA03F3BA691343BB61A5
:1013C0007B68BA699A607B685B68BB610122FB69D4
:1013D00002FA03F3DB43BA691340BB613B685B6805
:1013E0001B0903F00102FB6902FA03F3BA69134314
:1013F000BB617B68BA695A603B685B6803F00303B2
:10140000032B17D07B68DB68BB61FB695B000322A1
:1014100002FA03F3DB43BA691340BB613B689A6885
:10142000FB695B0002FA03F3BA691343BB617B6893
:10143000BA69DA603B685B6803F00303022B23D1CF
:10144000FB69DA087B68083253F82230BB61FB691C
:1014500003F007039B000F2202FA03F3DB43BA6990
:101460001340BB613B681A69FB6903F007039B00EB
:1014700002FA03F3BA691343BB61FB69DA087B68BC
:101480000832B96943F822107B681B68BB61FB69AD
:101490005B00032202FA03F3DB43BA691340BB612A
:1014A0003B685B6803F00302FB695B0002FA03F32D
:1014B000BA691343BB617B68BA691A603B685B68B1
:1014C00003F44033002B00F0B4800023FB60604B3A
:1014D0005B6C5F4A43F4804353645D4B5B6C03F485
:1014E0008043FB60FB685B4AFB699B08023352F850
:1014F0002330BB61FB6903F003039B000F2202FA58
:1015000003F3DB43BA691340BB617B68524A9342E1
:101510002BD07B68514A934225D07B68504A934236
:101520001FD07B684F4A934219D07B684E4A934242
:1015300013D07B684D4A93420DD07B684C4A93424E
:1015400007D07B684B4A934201D107230EE0082362
:101550000CE006230AE0052308E0042306E0032349
:1015600004E0022302E0012300E00023FA6902F014
:10157000030292009340BA691343BB613549FB698A
:101580009B080233BA6941F823203B4B9B68BB613F
:101590003B69DB43BA691340BB613B685B6803F49A
:1015A0008013002B03D0BA693B691343BB61324AF5
:1015B000BB699360304BDB68BB613B69DB43BA6955
:1015C0001340BB613B685B6803F40013002B03D03E
:1015D000BA693B691343BB61274ABB69D360264B99
:1015E0005B68BB613B69DB43BA691340BB613B6825
:1015F0005B6803F40033002B03D0BA693B691343E3
:10160000BB611D4ABB6953601B4B1B68BB613B69D7
:10161000DB43BA691340BB613B685B6803F480330A
:10162000002B03D0BA693B691343BB61124ABB6903
:101630001360FB690133FB61FB690F2B7FF690AEF2
:1016400000BF00BF2437BD465DF8047B704700BF74
:10165000003802400038014000000240000402400F
:1016600000080240000C024000100240001402403A
:1016700000180240001C0240003C014080B485B0CC
:1016800000AF78607B6803F00703FB600C4BDB68FE
:10169000BB60BA684FF6FF031340BB60FB681A02D9
:1016A000BB68134343F0BF6343F40033BB60044A99
:1016B000BB68D36000BF1437BD465DF8047B70473C
:1016C00000ED00E080B400AF044BDB681B0A03F0C0
:1016D00007031846BD465DF8047B704700ED00E047
:1016E00080B483B000AF0346FB7197F90730002B3D
:1016F0000BDBFB7903F01F02074997F907305B0901
:10170000012000FA02F241F8232000BF0C37BD4649
:101710005DF8047B704700BF00E100E080B483B057
:1017200000AF03463960FB7197F90730002B0ADBE5
:101730003B68DAB20C4997F907301201D2B20B4478
:1017400083F800230AE03B68DAB20849FB7903F02A
:101750000F03043B1201D2B20B441A7600BF0C37C0
:10176000BD465DF8047B704700E100E000ED00E05D
:1017700080B489B000AFF860B9607A60FB6803F0AC
:101780000703FB61FB69C3F10703042B28BF042394
:10179000BB61FB690433062B02D9FB69033B00E004
:1017A00000237B614FF0FF32BB6902FA03F3DA4397
:1017B000BB681A407B699A404FF0FF317B6901FAA0
:1017C00003F3D9437B680B40134318462437BD46C7
:1017D0005DF8047B704780B582B000AF78607868B0
:1017E000FFF74CFF00BF0837BD4680BD80B586B00F
:1017F00000AF0346B9607A60FB7300237B61FFF79B
:1018000061FF78617A68B9687869FFF7B1FF0246CD
:1018100097F90F3011461846FFF780FF00BF1837C1
:10182000BD4680BD80B582B000AF0346FB7197F91D
:1018300007301846FFF754FF00BF0837BD4680BD8C
:1018400080B500AF0E4B1B680D4A43F40073136064
:101850000B4B1B680A4A43F480631360084B1B68F8
:10186000074A43F4807313600320FFF7B4FF0F208F
:1018700001F0EEFC01F0C0FC0023184680BD00BF63
:10188000003C024080B400AF064B1B781A46064B62
:101890001B681344044A136000BFBD465DF8047B17
:1018A000704700BF080000202C00002080B400AF6B
:1018B000034B1B681846BD465DF8047B704700BFAC
:1018C0002C00002080B483B000AF78607B6803F107
:1018D00008027B685A607B684FF0FF329A607B6831
:1018E00003F108027B68DA607B6803F108027B6819
:1018F0001A617B6800221A6000BF0C37BD465DF894
:10190000047B704780B483B000AF78607B680022AE
:101910001A6100BF0C37BD465DF8047B704780B488
:1019200085B000AF786039607B685B68FB603B68BE
:10193000FA685A60FB689A683B689A60FB689B6823
:101940003A685A60FB683A689A603B687A681A613C
:101950007B681B685A1C7B681A6000BF1437BD4641
:101960005DF8047B704780B485B000AF7860396063
:101970003B681B68BB60BB68B3F1FF3F03D17B686A
:101980001B69FB600CE07B680833FB6002E0FB68CE
:101990005B68FB60FB685B681B68BA689A42F6D2BA
:1019A000FB685A683B685A603B685B683A689A60B3
:1019B0003B68FA689A60FB683A685A603B687A68E4
:1019C0001A617B681B685A1C7B681A6000BF143759
:1019D000BD465DF8047B704780B485B000AF786089
:1019E0007B681B69FB607B685B687A6892689A60B9
:1019F0007B689B687A6852685A60FB685B687A68A3
:101A00009A4203D17B689A68FB685A607B6800221F
:101A10001A61FB681B685A1EFB681A60FB681B682A
:101A200018461437BD465DF8047B704780B58EB00C
:101A300004AFF860B9607A603B607B6B002B0BD120
:101A40004FF0500383F31188BFF36F8FBFF34F8FB5
:101A50003B6200BF00BFFDE7BB6B002B0BD14FF01B
:101A6000500383F31188BFF36F8FBFF34F8FFB6178
:101A700000BF00BFFDE754233B613B69542B0BD0F3
:101A80004FF0500383F31188BFF36F8FBFF34F8F75
:101A9000BB6100BF00BFFDE73B69BB6B002B1ED0E5
:101AA0007B6B002B1BD0BB6B7B627B6A7A6B1A63F0
:101AB0007B6A022283F85120002303937B6A0293FE
:101AC00007F1140301933B6B00933B687A68B96894
:101AD000F86800F050F8786A00F0D6F801E00023CA
:101AE0007B617B6918462837BD4680BD80B58CB0C8
:101AF00004AFF860B9603B601346FB80FB889B0035
:101B0000184600F041FD78617B69002B0ED054200F
:101B100000F03AFDF861FB69002B03D0FB697A699C
:101B20001A6305E0786900F0FDFD01E00023FB6128
:101B3000FB69002B17D0FB69002283F85120FA883B
:101B400000230393FB690293FB6A0193BB6A009332
:101B50003B68B968F86800F00EF8F86900F094F88E
:101B60000123BB6102E04FF0FF33BB61BB69184644
:101B70002037BD4680BD80B588B000AFF860B96041
:101B80007A603B603B6B1A6B7B6803F18043013BDF
:101B90009B001344BB61BB6923F00703BB61BB69B6
:101BA00003F00703002B0BD04FF0500383F3118891
:101BB000BFF36F8FBFF34F8F7B6100BF00BFFDE7A7
:101BC000BB68002B1FD00023FB6112E0BA68FB69E1
:101BD000134419783A6BFB69134434330A461A707C
:101BE000BA68FB6913441B78002B06D0FB690133EC
:101BF000FB61FB690F2BE9D900E000BF3B6B0022C2
:101C000083F8432003E03B6B002283F83420BB6A57
:101C1000062B01D90623BB623B6BBA6ADA623B6BC7
:101C2000BA6A5A643B6B00229A643B6B04331846D1
:101C3000FFF768FE3B6B18331846FFF763FE3B6BFC
:101C40003A6B1A61BB6AC3F107023B6B9A613B6B4B
:101C50003A6B5A623B6B0022DA643B6B002283F8DA
:101C600050203A68F968B86900F07CFE02463B6B88
:101C70001A60FB6A002B02D0FB6A3A6B1A6000BF45
:101C80002037BD4680BD000080B582B000AF7860CF
:101C900000F09AFF2A4B1B680133294A1360294B35
:101CA0001B68002B09D1274A7B681360244B1B68F3
:101CB000012B10D100F0C4FA0DE0234B1B68002B60
:101CC00009D1204B1B68DA6A7B68DB6A9A4202D82A
:101CD0001C4A7B6813601D4B1B6801331B4A136051
:101CE0007B68DB6A01229A40194B1B681343184A30
:101CF00013607B68DA6A13469B0013449B00154A05
:101D00001A447B68043319461046FFF708FE00F0BA
:101D10008DFF0D4B1B68002B0ED00A4B1B68DA6A37
:101D20007B68DB6A9A4207D20B4B4FF080521A60F5
:101D3000BFF34F8FBFF36F8F00BF0837BD4680BD25
:101D400030010020300000203C0100204C01002028
:101D5000380100203400002004ED00E080B584B09C
:101D600000AF78600023FB607B68002B18D0144B19
:101D70001B68002B0BD04FF0500383F31188BFF387
:101D80006F8FBFF34F8FBB6000BF00BFFDE700F058
:101D90007DF80021786800F011FB00F085F8F8600C
:101DA000FB68002B07D1074B4FF080521A60BFF33E
:101DB0004F8FBFF36F8F00BF1037BD4680BD00BF90
:101DC0005801002004ED00E080B58AB004AF002384
:101DD000BB6000237B603A46391D07F108031846B3
:101DE00001F09CF839687B68BA680292019300237D
:101DF000009300230A461F491F48FFF717FE0346BA
:101E00001E4A13601D4B1B68002B02D001237B610F
:101E100001E000237B617B69012B16D14FF0500359
:101E200083F31188BFF36F8FBFF34F8F3B6100BF08
:101E3000134B4FF0FF321A60124B01221A60124B03
:101E400000221A6000F01CFE0FE07B69B3F1FF3F37
:101E50000BD14FF0500383F31188BFF36F8FBFF3A3
:101E60004F8FFB6000BF00BFFDE700BF1837BD46C6
:101E700080BD00BF54360008112200085401002024
:101E8000500100203C0100203401002080B400AF4C
:101E9000044B1B680133034A136000BFBD465DF865
:101EA000047B70475801002080B584B000AF002348
:101EB000FB600023BB60424B1B68002B0BD14FF033
:101EC000500383F31188BFF36F8FBFF34F8F3B60D5
:101ED00000BF00BFFDE700F077FE394B1B68013BF8
:101EE000374A1360364B1B68002B61D1354B1B689A
:101EF000002B5DD02EE0344BDB68DB68FB60FB68B9
:101F000018331846FFF768FDFB6804331846FFF7DF
:101F100063FDFB68DB6A01229A402C4B1B6813436C
:101F20002A4A1360FB68DA6A13469B0013449B003D
:101F3000274A1A44FB68043319461046FFF7EFFCA2
:101F4000FB68DA6A234B1B68DB6A9A4202D3224B96
:101F500001221A601C4B1B68002BCCD1FB68002BA4
:101F600001D000F00BFA1D4B1B687B607B68002BD7
:101F700010D000F037F80346002B02D0164B012298
:101F80001A607B68013B7B607B68002BF1D1134BAF
:101F900000221A60104B1B68002B09D00123BB6084
:101FA0000F4B4FF080521A60BFF34F8FBFF36F8F0C
:101FB00000F03CFEBB6818461037BD4680BD00BF30
:101FC0005801002030010020F000002038010020DE
:101FD0003400002030000020440100204001002097
:101FE00004ED00E080B586B000AF00237B614F4B6D
:101FF0001B68002B40F08F804D4B1B6801333B6109
:102000004B4A3B6913603B69002B21D1494B1B684C
:102010001B68002B0BD04FF0500383F31188BFF3E4
:102020006F8FBFF34F8F3B6000BF00BFFDE7414B99
:102030001B68FB60404B1B683E4A13603E4AFB68CE
:1020400013603E4B1B6801333C4A136000F096F965
:102050003B4B1B683A699A4248D3364B1B681B6856
:10206000002B04D1364B4FF0FF321A603EE0314B6B
:102070001B68DB68DB68BB60BB685B687B603A69D8
:102080007B689A4203D22E4A7B6813602EE0BB68BD
:1020900004331846FFF7A0FCBB689B6A002B04D0F2
:1020A000BB6818331846FFF797FCBB68DB6A012250
:1020B0009A40244B1B681343224A1360BB68DA6AB8
:1020C00013469B0013449B001F4A1A44BB68043309
:1020D00019461046FFF723FCBB68DA6A1B4B1B68E6
:1020E000DB6A9A42B9D301237B61B6E7174B1B68C1
:1020F000DA6A154913469B0013449B000B441B6886
:10210000012B01D901237B61114B1B68002B07D0E8
:1021100001237B6104E00F4B1B6801330D4A136000
:102120007B6918461837BD4680BD00BF58010020A6
:1021300034010020E8000020EC00002048010020CD
:102140005001002038010020340000203000002021
:10215000440100204001002080B487B000AF274B2D
:102160001B68002B03D0264B01221A6040E0244B51
:1021700000221A60234B1B68FB60FB68B3FA83F3F1
:10218000FB72FB7AC3F11F037B611F497A69134617
:102190009B0013449B000B441B68002B0BD14FF09A
:1021A000500383F31188BFF36F8FBFF34F8F7B60B2
:1021B00000BF00BFFDE77A6913469B0013449B00F4
:1021C000114A13443B613B695B685A683B695A603A
:1021D0003B695A683B6908339A4204D13B695B68A2
:1021E0005A683B695A603B695B68DB68074A136061
:1021F00000BF1C37BD465DF8047B704758010020C6
:10220000440100203801002034000020300000206C
:1022100080B582B000AF786000F052F8064B1B68C2
:10222000012BF9D9054B4FF080521A60BFF34F8F45
:10223000BFF36F8FF0E700BF3400002004ED00E033
:1022400080B582B000AF00237B600CE07A68134653
:102250009B0013449B00124A13441846FFF732FBBD
:102260007B6801337B607B68062BEFD90D48FFF755
:1022700029FB0D48FFF726FB0C48FFF723FB0C4812
:10228000FFF720FB0B48FFF71DFB0B4B054A1A60BD
:102290000A4B054A1A6000BF0837BD4680BD00BF23
:1022A00034000020C0000020D4000020F0000020F6
:1022B000040100201C010020E8000020EC000020A8
:1022C00080B582B000AF19E000F07EFC104BDB68F7
:1022D000DB687B607B6804331846FFF77DFB0D4BA2
:1022E0001B68013B0B4A13600B4B1B68013B0A4AFE
:1022F000136000F09BFC786800F010F8064B1B6838
:10230000002BE1D100BF00BF0837BD4680BD00BF34
:1023100004010020300100201801002080B584B0A5
:1023200000AF78607B6893F85130002B08D17B6850
:102330001B6B184600F0F6F9786800F0F3F919E025
:102340007B6893F85130012B03D1786800F0EAF9EB
:1023500010E07B6893F85130022B0BD04FF0500304
:1023600083F31188BFF36F8FBFF34F8FFB6000BF04
:1023700000BFFDE700BF1037BD4680BD80B483B00D
:1023800000AF0C4B1B681B68002B04D10A4B4FF0AD
:10239000FF321A6008E0074B1B68DB68DB687B6074
:1023A0007B685B68044A136000BF0C37BD465DF86C
:1023B000047B7047E80000205001002080B584B005
:1023C00000AF78603960294B1B68FB60284B1B68A5
:1023D00004331846FFF700FB0346002B0BD1244BB8
:1023E0001B68DB6A012202FA03F3DA43214B1B6804
:1023F0001340204A13607B68B3F1FF3F0AD13B686A
:10240000002B07D01A4B1B68043319461A48FFF7F4
:1024100086FA26E0FA687B681344BB60144B1B689D
:10242000BA685A60BA68FB689A4209D2134B1A68B4
:102430000F4B1B68043319461046FFF794FA10E05F
:102440000F4B1A680A4B1B68043319461046FFF7F6
:102450008AFA0C4B1B68BA689A4202D2094ABB68D6
:10246000136000BF1037BD4680BD00BF340100209F
:1024700030000020380100201C010020EC0000206A
:10248000E80000205001002080B485B000AF034672
:10249000FB800023FB60B7F90630842B05D0B7F929
:1024A0000620FB6813440333FB60FB6818461437AF
:1024B000BD465DF8047B704780B500AFFFF784FC34
:1024C0000023184680BDF0B589B004AF786039604C
:1024D0007B685B69002B20D07B689B69002B1CD03C
:1024E0007B685C687B681D687B681E697B68B3F9E4
:1024F00008301846FFF7C8FF01467B685B697A68B9
:1025000092690292019300913B6832462946204627
:10251000FFF78CFA0346FB601CE07B685C687B6815
:102520001D687B681B699EB27B68B3F9083018464A
:10253000FFF7AAFF024607F10C03019300923B68E4
:10254000324629462046FFF7D1FA0346012B01D037
:10255000002300E0FB6818461437BD46F0BD80B587
:1025600084B000AF78607B68FB60FB68002B01D013
:10257000FB6800E001231846FFF7F0FB0023184634
:102580001037BD4680BD000080B58AB000AF7860CE
:102590000023FB61FFF77AFC5C4B1B68002B01D129
:1025A00000F024F95A4B1A687B681340002B40F066
:1025B00095807B68002B1ED008227B6813447B60CB
:1025C0007B6803F00703002B15D07B6823F007031B
:1025D00008337B607B6803F00703002B0BD04FF0C0
:1025E000500383F31188BFF36F8FBFF34F8F7B616D
:1025F00000BF00BFFDE77B68002B6FD0454B1B6819
:102600007A689A426AD8444B3B62434B1B687B62B0
:1026100004E07B6A3B627B6A1B687B627B6A5B6867
:102620007A689A4203D97B6A1B68002BF1D1374B39
:102630001B687A6A9A4251D03B6A1B68082213448D
:10264000FB617B6A1A683B6A1A607B6A5A687B681E
:10265000D21A08235B009A4220D97A6A7B68134415
:10266000BB61BB6903F00703002B0BD04FF0500395
:1026700083F31188BFF36F8FBFF34F8F3B6100BFB0
:1026800000BFFDE77B6A5A687B68D21ABB695A6053
:102690007B6A7A685A60B86900F00AF91D4B1A68BB
:1026A0007B6A5B68D31A1B4A13601A4B1A681B4B70
:1026B0001B689A4203D2174B1B68184A13607B6A47
:1026C0005A68134B1B681A437B6A5A607B6A002264
:1026D0001A60134B1B680133114A1360FFF7E4FBC8
:1026E000FB6903F00703002B0BD04FF0500383F37B
:1026F0001188BFF36F8FBFF34F8FFB6000BF00BF28
:10270000FDE7FB6918462837BD4680BD643D0020C3
:10271000783D0020683D00205C3D00206C3D00209D
:10272000703D002080B586B000AF78607B687B612B
:102730007B68002B4FD008235B427A6913447B618E
:102740007B693B613B695A68254B1B681340002B32
:102750000BD14FF0500383F31188BFF36F8FBFF39A
:102760004F8FFB6000BF00BFFDE73B691B68002B7C
:102770000BD04FF0500383F31188BFF36F8FBFF37B
:102780004F8FBB6000BF00BFFDE73B695A68144B29
:102790001B681340002B1ED03B691B68002B1AD10D
:1027A0003B695A680E4B1B68DB431A403B695A6011
:1027B000FFF76CFB3B695A680A4B1B681344094AD4
:1027C0001360386900F074F8074B1B680133064A40
:1027D0001360FFF769FB00BF1837BD4680BD00BF1F
:1027E000783D0020683D0020743D002080B485B015
:1027F00000AF4FF47053BB60274BFB60FB6803F0E6
:102800000703002B0CD0FB680733FB60FB6823F049
:102810000703FB60BA68FB68D31A1F4A1344BB6006
:10282000FB687B601D4A7B6813601C4B00225A606A
:102830007B68BA681344FB600822FB689B1AFB6044
:10284000FB6823F00703FB60FB68154A1360144B19
:102850001B6800225A60124B1B6800221A607B68BA
:102860003B603B68FA68D21A3B685A600C4B1A68A6
:102870003B681A603B685B680A4A13603B685B68A8
:10288000094A1360094B4FF000421A6000BF143729
:10289000BD465DF8047B70475C0100205C3D002074
:1028A000643D00206C3D0020683D0020783D002004
:1028B00080B485B000AF7860284BFB6002E0FB6815
:1028C0001B68FB60FB681B687A689A42F7D8FB6854
:1028D000BB60FB685B68BA6813447A689A4208D1A7
:1028E000FB685A687B685B681A44FB685A60FB683F
:1028F0007B607B68BB607B685B68BA681A44FB6876
:102900001B689A4218D1FB681A68154B1B689A42DB
:102910000DD07B685A68FB681B685B681A447B684B
:102920005A60FB681B681A687B681A6008E00C4BE9
:102930001A687B681A6003E0FB681A687B681A6093
:10294000FA687B689A4202D0FB687A681A6000BF16
:102950001437BD465DF8047B704700BF5C3D002026
:10296000643D002080B485B000AFF860B9607A6043
:10297000FB68043BFB60FB684FF080721A60FB68E9
:10298000043BFB60BB6823F00102FB681A60FB6834
:10299000043BFB600C4AFB681A60FB68143BFB605D
:1029A0007A68FB681A60FB68043BFB60FB686FF0A9
:1029B00002021A60FB68203BFB60FB681846143774
:1029C000BD465DF8047B7047CD29000880B485B012
:1029D00000AF00237B60134B1B68B3F1FF3F0BD0AC
:1029E0004FF0500383F31188BFF36F8FBFF34F8F06
:1029F000FB6000BF00BFFDE74FF0500383F3118879
:102A0000BFF36F8FBFF34F8FBB6000BF00BF7B680A
:102A1000002BFCD000BF00BF1437BD465DF8047B1F
:102A2000704700BF0C000020000000000000000004
:102A3000074B19680868B0E8F04F80F30988BFF3C6
:102A40006F8F4FF0000080F311887047AFF3008064
:102A50003000002000BF00BF08480068006880F315
:102A600008884FF0000080F3148862B661B6BFF3A7
:102A70004F8FBFF36F8F00DF00BF00BF08ED00E096
:102A800080B586B000AF474B1B68474A93420BD1D5
:102A90004FF0500383F31188BFF36F8FBFF34F8F55
:102AA000FB6000BF00BFFDE73E4B1B683F4A9342FF
:102AB0000BD14FF0500383F31188BFF36F8FBFF337
:102AC0004F8F3B6100BF00BFFDE7394B7B617B69E6
:102AD0001B78DBB27B607B69FF221A707B691B78F5
:102AE000DBB2FB70FB78DBB203F05003DAB2314BA0
:102AF0001A70314B07221A6009E02F4B1B68013B0B
:102B00002D4A1360FB78DBB25B00DBB2FB70FB7815
:102B1000DBB203F08003802BEFD0274B1B68C3F19F
:102B20000703042B0BD04FF0500383F31188BFF33E
:102B30006F8FBFF34F8FBB6000BF00BFFDE71E4B21
:102B40001B681B021C4A13601B4B1B6803F4E063E9
:102B5000194A13607B68DAB27B691A70174B1B68DD
:102B6000164A43F470031360144B1B68134A43F076
:102B70007043136000F0DAF8114B00221A6000F085
:102B8000F9F8104B1B680F4A43F040431360FFF7FE
:102B900063FFFFF7E1FAFFF719FF00231846183724
:102BA000BD4680BD00ED00E071C20F4170C20F4113
:102BB00000E400E07C3D0020803D002020ED00E0AE
:102BC0000C00002034EF00E080B483B000AF4FF081
:102BD000500383F31188BFF36F8FBFF34F8F7B6078
:102BE00000BF104B1B6801330E4A13600D4B1B686E
:102BF000012B10D10C4B1B68DBB2002B0BD04FF01C
:102C0000500383F31188BFF36F8FBFF34F8F3B6087
:102C100000BF00BFFDE700BF0C37BD465DF8047B79
:102C2000704700BF0C00002004ED00E080B483B0CA
:102C300000AF124B1B68002B0BD14FF0500383F3F6
:102C40001188BFF36F8FBFF34F8F7B6000BF00BF52
:102C5000FDE70A4B1B68013B084A1360074B1B68E2
:102C6000002B05D100233B603B6883F3118800BF34
:102C700000BF0C37BD465DF8047B70470C00002098
:102C8000EFF30980BFF36F8F154B1A681EF0100F1A
:102C900008BF20ED108A20E9F04F106009B44FF012
:102CA000500080F31188BFF34F8FBFF36F8FFFF792
:102CB00053FA4FF0000080F3118809BC19680868C6
:102CC000B0E8F04F1EF0100F08BFB0EC108A80F390
:102CD0000988BFF36F8F7047AFF30080AFF30080B8
:102CE0003000002000BF00BF80B582B000AF4FF0C1
:102CF000500383F31188BFF36F8FBFF34F8F7B6057
:102D000000BFFFF76FF90346002B03D0064B4FF0CF
:102D100080521A6000233B603B6883F3118800BF38
:102D200000BF0837BD4680BD04ED00E080B400AFB1
:102D30000B4B00221A600B4B00221A600A4B1B68D7
:102D40000A4AA2FB03239B09094A013B1360044B77
:102D500007221A6000BFBD465DF8047B704700BFC4
:102D600010E000E018E000E000000020D34D621009
:102D700014E000E0DFF80C00016841F4700101602C
:102D8000704700BF88ED00E080B500AFFEF758FD4A
:102D900000F00CF800F08CF800F0FEF800F032F9CA
:102DA00000F0D6F8FFF788FB00BFFDE780B594B0D0
:102DB00000AF07F12003302200211846FDF7E8F9A3
:102DC00007F10C0300221A605A609A60DA601A61F7
:102DD0000023BB60284B1B6C274A43F080531364CD
:102DE000254B1B6C03F08053BB60BB6800237B60EA
:102DF000224B1B68214A43F4804313601F4B1B681E
:102E000003F480437B607B6801233B624FF4803393
:102E10007B620223BB634FF48003FB6306233B64A6
:102E2000A8237B640223BB640423FB6407F1200313
:102E30001846FDF711FE0346002B01D000F032F8D2
:102E40000F23FB6002233B6100237B614FF4A053FF
:102E5000BB614FF48053FB6107F10C030521184659
:102E6000FEF772F80346002B01D000F01BF800BFFC
:102E70005037BD4680BD00BF0038024000700040A2
:102E800080B582B000AF78607B681B68044A9342CB
:102E900001D1FEF7F7FC00BF0837BD4680BD00BF7B
:102EA0000020004080B400AF72B600BF00BFFDE755
:102EB00080B485B000AF0023FB60174B1B6B164A34
:102EC00043F002031363144B1B6B03F00203FB601C
:102ED000FB680023BB60104B1B6B0F4A43F00103E0
:102EE00013630D4B1B6B03F00103BB60BB68002336
:102EF0007B60094B1B6B084A43F080031363064B4E
:102F00001B6B03F080037B607B6800BF1437BD46FA
:102F10005DF8047B704700BF0038024080B485B084
:102F200000AFF860B9607A60FB68074A1A60BB6856
:102F3000064A1A607B6880221A6000BF1437BD46BB
:102F40005DF8047B704700BF883D0020DC3D002019
:102F5000B0B588B000AF0A4B3C1D1D460FCD0FC465
:102F600095E8070084E807003B1D00211846FFF79D
:102F7000AAFA0346034A136000BF2037BD46B0BD1E
:102F800068360008843D002080B582B000AF7860CC
:102F90000120FFF7E4FAFBE780B500AF174B184AB2
:102FA0001A60164B03225A60144B00229A60134B8E
:102FB0000022DA60114B4FF410221A610F4B4FF4CC
:102FC00000125A610D4B00221A760C4B00225A76E1
:102FD0000A4B00229A76094B0022DA76074B002230
:102FE0001A77064B00225A770448FDF739FC03464E
:102FF000002B01D0FFF756FF00BF80BDDC3F002053
:103000000064004080B500AF174B184A1A60164B99
:1030100003225A60144B00229A60134B0022DA609C
:10302000114B4FF410221A610F4B4FF400125A61EA
:103030000D4B00221A760C4B00225A760A4B0022C6
:103040009A76094B0022DA76074B00221A77064B54
:1030500000225A770448FDF703FC0346002B01D0F9
:10306000FFF720FF00BF80BD044000200068004043
:1030700080B58CB000AF786007F11C0300221A60A5
:103080005A609A60DA601A617B681B68424A934210
:1030900036D1424B1B680133404A13603F4B1B68DB
:1030A000012B0DD10023BB613D4B1B6C3C4A43F00F
:1030B000007313643A4B1B6C03F00073BB61BB6974
:1030C00000237B61364B1B6B354A43F002031363CD
:1030D000334B1B6B03F002037B617B694FF440733E
:1030E000FB6102233B6200237B620323BB62092353
:1030F000FB6207F11C0319462A48FEF723F947E053
:103100007B681B68284A934242D100233B61244BD1
:103110001B6C234A43F080631364214B1B6C03F048
:1031200080633B613B691D4B1B6801331B4A136085
:103130001A4B1B68012B0DD10023FB60184B1B6C35
:10314000174A43F000731364154B1B6C03F00073B4
:10315000FB60FB680023BB60114B1B6B104A43F004
:10316000020313630E4B1B6B03F00203BB60BB68CF
:103170006023FB6102233B6200237B620323BB626B
:103180000923FB6207F11C0319460648FEF7DAF82B
:1031900000BF3037BD4680BD006400402C40002099
:1031A00000380240000402400068004080B400AFD4
:1031B00000BFFDE780B400AF00BFFDE780B400AF03
:1031C00000BFFDE780B400AF00BFFDE780B400AFF3
:1031D00000BFFDE780B400AF00BFBD465DF8047BD3
:1031E0007047000080B500AF0248FDF761F900BFED
:1031F00080BD00BF3040002080B582B000AF00230A
:103200007B60124B5B6C114A43F4804353640F4B59
:103210005B6C03F480437B607B6800233B600B4B5B
:103220001B6C0A4A43F080531364084B1B6C03F079
:1032300080533B603B6800220F216FF00100FEF7D6
:10324000D5FA00BF0837BD4680BD00BF0038024038
:1032500080B58EB000AF78600023FB620023BB62B4
:103260000023FB60334B1B6C324A43F480731364BE
:10327000304B1B6C03F48073FB60FB6807F110029A
:1032800007F1140311461846FEF72AF83B6AFB6261
:10329000FB6A002B03D1FEF70FF8786304E0FEF71A
:1032A0000BF803465B007B637B6B234AA2FB032383
:1032B0009B0C013BBB62214B214A1A601F4B40F221
:1032C000E732DA601D4ABB6A53601C4B00221A6168
:1032D0001A4B00229A60194B00229A611748FDF799
:1032E0001DF8034687F8333097F83330002B1BD195
:1032F0001248FDF76DF8034687F8333097F83330FE
:10330000002B11D12D20FEF78DFA7B680F2B08D8EA
:10331000002279682D20FEF769FA0A4A7B6813605B
:1033200002E0012387F8333097F8333018463837F6
:10333000BD4680BD0038024083DE1B433040002084
:103340000020004004000020DFF834D0FCF7D4FF58
:103350000C480D490D4A002302E0D458C4500433F0
:10336000C4188C42F9D30A4A0A4C002301E01360C6
:103370000432A242FBD3FCF75DFFFFF705FD704767
:10338000000002200000002010000020AC360008E1
:103390001000002078400020FEE72DE9F047864627
:1033A0008C460846089E154674461946002B40F088
:1033B000C2808542B2FA82F245D94AB1C2F12003F5
:1033C00000FA02FC2EFA03F3954043EA0C0C9440F9
:1033D0004FEA154EA8B2BCFBFEF8230C0EFB18CC2E
:1033E00008FB00F943EA0C43994528D9EB1808F18A
:1033F000FF3704D2994502D9A8F102072B44A3EB69
:103400000903A4B2B3FBFEFC0EFB1C330CFB00F063
:1034100044EA0344A04214D92C190CF1FF3304D21E
:10342000A04202D9ACF102032C44241A43EA07401B
:103430001EB1D440002334607360BDE8F087474676
:10344000DDE76346F1E792BB431B01214FEA154ECE
:10345000AFB2B3FBFEFC200C0EFB1C330CFB07F8D9
:1034600040EA0343984562D9EB180CF1FF3004D2CF
:10347000984502D9ACF102002B44A3EB0803A4B297
:10348000B3FBFEFC0EFB1C330CFB07F744EA0344C2
:10349000A7424ED92C190CF1FF3304D2A74202D90E
:1034A000ACF102032C44E41B43EA0040C0E7C2F144
:1034B000200320FA03F1954090402EFA03F30343D2
:1034C0004FEA154EAFB2B1FBFEFC0EFB1C10190CFF
:1034D0000CFB07F841EA0041884504FA02F422D9BE
:1034E00069180CF1FF3004D2884502D9ACF1020012
:1034F0002944A1EB08019BB2B1FBFEFC0EFB1C11A1
:103500000CFB07F743EA01439F420ED9EB180CF17D
:10351000FF3104D29F4202D9ACF102012B44DB1BE4
:1035200041EA004192E76046E3E76146F7E760461B
:10353000A3E76346B7E7834206D916B900210846D8
:103540007BE7C6E900E0F9E7B3FA83F78FB9834276
:1035500001D3724508D8BEEB020460EB03030120DF
:103560009C461EB9002168E73846FAE7C6E9004CD8
:10357000F8E7C7F1200CBB4022FA0CF41C432EFAEA
:103580000CF120FA0CF3B84001434FEA14490EFA4B
:1035900007F5B3FBF9F81FFA84FE09FB18300B0C92
:1035A00008FB0EFA43EA00439A4502FA07F240D9B3
:1035B000E31808F1FF3004D29A4502D9A8F10200BD
:1035C0002344A3EB0A0389B2B3FBF9F809FB1833D0
:1035D00008FB0EFE41EA03418E452CD9611808F123
:1035E000FF3304D28E4502D9A8F10203214443EAF5
:1035F0000040A0FB0298A1EB0E014145CE46434698
:1036000002D306D14D4504D2B9EB020E68EB040398
:103610000138002EA6D0B5EB0E0261EB030101FAD2
:103620000CFC22FA07F34CEA0303F940C6E9003127
:1036300098E74046C5E74346D9E70000F8B500BF24
:10364000F8BC08BC9E467047F8B500BFF8BC08BC83
:043650009E467047DB
:1036540049444C450000000064656661756C74540F
:1036640061736B005C360008892F000800000000BD
:1036740000000000800000000000000000000000C6
:10368400000000000000000001020304060708090E
:08369400000000000102030424
:08369C00FEFCFF7F01000000AD
:0436A400DD0200083B
:0436A800B90200085B
:1036AC000024F4001000000001000000AAAAAAAA3D
:040000050800334973
:00000001FF
