:020000040800F2
:1000000000000220757300082D700008357000088C
:100010003D700008457000084D70000800000000A9
:10002000000000000000000000000000E15E000889
:100030005570000800000000316100089961000857
:10004000C5730008C5730008C5730008C5730008B0
:10005000C5730008C5730008C5730008C5730008A0
:10006000C5730008C5730008C5730008C573000890
:1000700065700008C5730008C5730008C5730008E3
:10008000C5730008C5730008C5730008C573000870
:10009000797000088D700008C5730008C5730008EA
:1000A000C5730008C5730008C5730008C573000850
:1000B000C5730008C5730008C5730008C573000840
:1000C000C5730008C5730008C5730008A170000857
:1000D000C5730008B5700008C5730008C970000832
:1000E000C5730008C5730008C5730008C573000810
:1000F000C5730008DD700008C5730008C5730008EB
:10010000C5730008C5730008C5730008C5730008EF
:10011000C5730008C5730008C5730008C5730008DF
:10012000F170000805710008197100082D710008B0
:10013000C5730008C5730008C5730008C5730008BF
:100140004171000855710008C5730008C5730008A7
:10015000C5730008697100087D710008917100087D
:10016000C5730008C5730008C5730008C57300088F
:10017000C5730008C5730008C573000800000000BF
:08018000A5710008C573000819
:1001900081F0004102E000BF83F0004330B54FEA38
:1001A00041044FEA430594EA050F08BF90EA020FA5
:1001B0001FBF54EA000C55EA020C7FEA645C7FEA38
:1001C000655C00F0E2804FEA5454D4EB5555B8BF5B
:1001D0006D420CDD2C4480EA020281EA030382EACC
:1001E000000083EA010180EA020281EA0303362D5E
:1001F00088BF30BD11F0004F4FEA01314FF4801C31
:100200004CEA113102D0404261EB410113F0004F42
:100210004FEA03334CEA133302D0524263EB4303F9
:1002200094EA050F00F0A780A4F10104D5F1200E97
:100230000DDB02FA0EFC22FA05F2801841F10001F2
:1002400003FA0EF2801843FA05F359410EE0A5F1C6
:1002500020050EF1200E012A03FA0EFC28BF4CF0F7
:10026000020C43FA05F3C01851EBE37101F00045AD
:1002700007D54FF0000EDCF1000C7EEB00006EEBBA
:100280000101B1F5801F1BD3B1F5001F0CD3490844
:100290005FEA30004FEA3C0C04F101044FEA44529B
:1002A00012F5800F80F09A80BCF1004F08BF5FEA22
:1002B000500C50F1000041EB045141EA050130BD02
:1002C0005FEA4C0C404141EB0101013C28BFB1F514
:1002D000801FE9D291F0000F04BF01460020B1FA5F
:1002E00081F308BF2033A3F10B03B3F120020CDA32
:1002F0000C3208DD02F1140CC2F10C0201FA0CF010
:1003000021FA02F10CE002F11402D8BFC2F1200C74
:1003100001FA02F120FA0CFCDCBF41EA0C0190402A
:10032000E41AA2BF01EB0451294330BD6FEA040473
:100330001F3C1CDA0C340EDC04F11404C4F120025E
:1003400020FA04F001FA02F340EA030021FA04F370
:1003500045EA030130BDC4F10C04C4F1200220FAC7
:1003600002F001FA04F340EA0300294630BD21FA05
:1003700004F0294630BD94F0000F83F4801306BFCB
:1003800081F480110134013D4EE77FEA645C18BFBF
:100390007FEA655C29D094EA050F08BF90EA020F56
:1003A00005D054EA000C04BF1946104630BD91EA4E
:1003B000030F1EBF0021002030BD5FEA545C05D151
:1003C0004000494128BF41F0004130BD14F5800490
:1003D0003CBF01F5801130BD01F0004545F0FE4104
:1003E00041F470014FF0000030BD7FEA645C1ABF39
:1003F000194610467FEA655C1CBF0B46024650EA70
:10040000013406BF52EA033591EA030F41F400219B
:1004100030BD00BF90F0000F04BF0021704730B521
:100420004FF4806404F132044FF000054FF00001F6
:1004300050E700BF90F0000F04BF0021704730B5B7
:100440004FF4806404F1320410F0004548BF40428C
:100450004FF000013EE700BF42004FEAE2014FEAE1
:1004600031014FEA02701FBF12F07F4393F07F4FBC
:1004700081F06051704732F07F4208BF704793F0BF
:100480007F4F04BF41F40021704730B54FF46074D2
:1004900001F0004521F000411CE700BF50EA0102D5
:1004A00008BF704730B54FF000050AE050EA01027E
:1004B00008BF704730B511F0004502D5404261EBEE
:1004C00041014FF4806404F132045FEA915C3FF42F
:1004D000D8AE4FF003025FEADC0C18BF03325FEACC
:1004E000DC0C18BF033202EBDC02C2F1200300FA7D
:1004F00003FC20FA02F001FA03FE40EA0E0021FAA2
:1005000002F11444BDE600BF53B94AB9002908BF3F
:1005100000281CBF4FF0FF314FF0FF3000F00CB847
:10052000ADF1080C6DE904CE0EF058FEDDF804E0E4
:10053000DDE9022304B07047704700BF10F8012BBB
:1005400011F8013B012A28BF9A42F7D0D01A704710
:100550000348044B834202D0034B03B11847704752
:10056000E0020020E0020020000000000548064BE9
:100570001B1AD90F01EBA301491002D0034B03B1A1
:1005800018477047E0020020E00200200000000051
:1005900010B5064C237843B9FFF7DAFF044B13B1CB
:1005A0000448AFF300800123237010BDE002002057
:1005B00000000000D809010808B5054B1BB105492A
:1005C0000548AFF30080BDE80840FFF7CFBF00BF8C
:1005D00000000000E4020020D8090108024403469C
:1005E000934200D1704703F8011BF9E770B50D4D38
:1005F0000D4C641BA4100026A64209D10B4D0C4CD7
:1006000010F0EAF9641BA4100026A64205D170BDC3
:1006100055F8043B98470136EEE755F8043B9847F8
:100620000136F2E7641F0108641F0108641F010816
:10063000681F01087047704770B50F4E0C4631684F
:10064000054611B900F0A6F830602146284600F0B2
:10065000A1F8431C03D14FF0FF34204670BDC41CE9
:1006600024F00304A042F8D0211A284600F092F8A2
:100670000130F2D1EFE700BF3C0400202DE9F84340
:10068000CD1C25F0030508350C2D38BF0C25002D99
:10069000064601DBA94204D90C2333600020BDE8E3
:1006A000F883DFF8D48000F069F8D8F800301C46F1
:1006B00044BB29463046FFF7BFFF431C044658D1D0
:1006C000D8F800402746002F43D1002C4BD0236898
:1006D0003946304604EB030900F05CF8814542D10D
:1006E00021686D1A29463046FFF7A6FF01303AD03F
:1006F00023682B442360D8F800305A6862BBC8F8DE
:1007000000700FE02268521B20D40B2A17D9611900
:10071000A342256018BF5960636808BFC8F800107D
:1007200062514B60304600F02FF804F10B00231D9E
:1007300020F00700C21A1CBF1B1AA350AFE7626863
:10074000A3420CBFC8F800205A60EBE72346646858
:10075000AEE73C467F68B6E71A465B68A342FBD12A
:1007600000235360DEE70C233360304600F00CF8C2
:1007700094E70560D6E700BF400400200148FFF77A
:1007800059BF00BF380400200148FFF754BF00BF25
:100790003804002038B5064D0023044608462B6077
:1007A00006F0B2FD431C02D12B6803B1236038BDB3
:1007B0003404002080B400AF064BD3F88830054ADB
:1007C00043F47003C2F8883000BFBD465DF8047B77
:1007D000704700BF00ED00E080B582B000AF7860E8
:1007E0007B68002B01D1012341E07B6893F83D3009
:1007F000DBB2002B06D17B68002283F83C207868AE
:1008000000F039F87B68022283F83D207B681A6883
:100810007B6804331946104600F0C0F97B6801225A
:1008200083F846207B68012283F83E207B68012202
:1008300083F83F207B68012283F840207B680122F7
:1008400083F841207B68012283F842207B680122E3
:1008500083F843207B68012283F844207B680122CF
:1008600083F845207B68012283F83D200023184649
:100870000837BD4680BD80B483B000AF786000BF4C
:100880000C37BD465DF8047B7047000080B485B02E
:1008900000AF78607B6893F83D30DBB2012B01D06C
:1008A00001234EE07B68022283F83D207B681B68B1
:1008B000DA687B681B6842F00102DA607B681B68BB
:1008C000234A934222D07B681B68B3F1804F1DD02E
:1008D0007B681B681F4A934218D07B681B681E4ABE
:1008E000934213D07B681B681C4A93420ED07B68EE
:1008F0001B681B4A934209D07B681B68194A9342C4
:1009000004D07B681B68184A934211D17B681B682E
:100910009B6803F00703FB60FB68062B10D07B6825
:100920001B681A687B681B6842F001021A6007E0C6
:100930007B681B681A687B681B6842F001021A60BA
:10094000002318461437BD465DF8047B704700BF8E
:10095000000001400004004000080040000C00407E
:1009600000040140004001400018004080B584B000
:1009700000AF78607B681B68DB68FB607B681B6886
:100980001B69BB60BB6803F00203002B20D0FB682F
:1009900003F00203002B1BD07B681B686FF0020280
:1009A0001A617B6801221A777B681B689B6903F0D8
:1009B0000303002B03D0786800F0D2F805E07868D4
:1009C00000F0C4F8786800F0D5F87B6800221A7748
:1009D000BB6803F00403002B20D0FB6803F0040382
:1009E000002B1BD07B681B686FF004021A617B68C8
:1009F00002221A777B681B689B6903F44073002B03
:100A000003D0786800F0ACF805E0786800F09EF854
:100A1000786800F0AFF87B6800221A77BB6803F0B3
:100A20000803002B20D0FB6803F00803002B1BD029
:100A30007B681B686FF008021A617B6804221A77D2
:100A40007B681B68DB6903F00303002B03D0786825
:100A500000F086F805E0786800F078F8786800F033
:100A600089F87B6800221A77BB6803F01003002B1B
:100A700020D0FB6803F01003002B1BD07B681B68A1
:100A80006FF010021A617B6808221A777B681B6876
:100A9000DB6903F44073002B03D0786800F060F842
:100AA00005E0786800F052F8786800F063F87B6839
:100AB00000221A77BB6803F00103002B0CD0FB68FF
:100AC00003F00103002B07D07B681B686FF0010265
:100AD0001A61786805F03CFCBB6803F08003002BCA
:100AE0000CD0FB6803F08003002B07D07B681B68E9
:100AF0006FF080021A61786800F006F9BB6803F0B5
:100B00004003002B0CD0FB6803F04003002B07D000
:100B10007B681B686FF040021A61786800F034F857
:100B2000BB6803F02003002B0CD0FB6803F020030C
:100B3000002B07D07B681B686FF020021A61786871
:100B400000F0D8F800BF1037BD4680BD80B483B038
:100B500000AF786000BF0C37BD465DF8047B70477E
:100B600080B483B000AF786000BF0C37BD465DF83D
:100B7000047B704780B483B000AF786000BF0C374F
:100B8000BD465DF8047B704780B483B000AF7860E9
:100B900000BF0C37BD465DF8047B704780B485B05C
:100BA00000AF786039607B681B68FB607B68464AF1
:100BB000934213D07B68B3F1804F0FD07B68434AD8
:100BC00093420BD07B68424A934207D07B68414AEC
:100BD000934203D07B68404A934208D1FB6823F0DC
:100BE0007003FB603B685B68FA681343FB607B68DB
:100BF000354A93422BD07B68B3F1804F27D07B6876
:100C0000324A934223D07B68314A93421FD07B689B
:100C1000304A93421BD07B682F4A934217D07B689F
:100C20002E4A934213D07B682D4A93420FD07B68A3
:100C30002C4A93420BD07B682B4A934207D07B68A7
:100C40002A4A934203D07B68294A934208D1FB6821
:100C500023F44073FB603B68DB68FA681343FB6076
:100C6000FB6823F080023B685B691343FB607B6891
:100C7000FA681A603B689A687B68DA623B681A68AF
:100C80007B689A627B68104A934203D07B68124A61
:100C9000934203D13B681A697B681A637B6801221F
:100CA0005A617B681B6903F00103012B05D17B6846
:100CB0001B6923F001027B681A6100BF1437BD462F
:100CC0005DF8047B704700BF000001400004004055
:100CD00000080040000C00400004014000400140BA
:100CE000004401400048014000180040001C004042
:100CF0000020004080B483B000AF786000BF0C37A4
:100D0000BD465DF8047B704780B483B000AF786067
:100D100000BF0C37BD465DF8047B704780B584B0DA
:100D200000AF78607B68002B01D10123EDE07B6888
:100D300093F82030DBB2002B02D1786805F06EFC0E
:100D40007B681B681A687B681B6842F001021A60A6
:100D500002F0F8F9F86012E002F0F4F90246FB68DC
:100D6000D31A0A2B0BD97B685B6A43F400327B6889
:100D70005A627B68052283F820200123C5E07B6846
:100D80001B685B6803F00103002BE5D07B681B68E0
:100D90001A687B681B6822F002021A6002F0D2F91E
:100DA000F86012E002F0CEF90246FB68D31A0A2B73
:100DB0000BD97B685B6A43F400327B685A627B68BC
:100DC000052283F8202001239FE07B681B685B6875
:100DD00003F00203002BE5D17B681B7E012B08D1B9
:100DE0007B681B681A687B681B6842F080021A6087
:100DF00007E07B681B681A687B681B6822F080022A
:100E00001A607B685B7E012B08D17B681B681A68BF
:100E10007B681B6842F040021A6007E07B681B6831
:100E20001A687B681B6822F040021A607B689B7E10
:100E3000012B08D17B681B681A687B681B6842F02D
:100E400020021A6007E07B681B681A687B681B68D1
:100E500022F020021A607B68DB7E012B08D17B68C0
:100E60001B681A687B681B6822F010021A6007E092
:100E70007B681B681A687B681B6842F010021A6066
:100E80007B681B7F012B08D17B681B681A687B6815
:100E90001B6842F008021A6007E07B681B681A684A
:100EA0007B681B6822F008021A607B685B7F012B5D
:100EB00008D17B681B681A687B681B6842F00402D3
:100EC0001A6007E07B681B681A687B681B6822F061
:100ED00004021A607B689A687B68DB681A437B6847
:100EE0001B691A437B685B6942EA03017B685B68A4
:100EF0005A1E7B681B680A43DA617B6800225A62CB
:100F00007B68012283F82020002318461037BD4655
:100F100080BD000080B487B000AF786039607B6826
:100F20001B687B617B6893F82030FB74FB7C012B92
:100F300003D0FB7C022B40F0BE80654B7B617B695C
:100F4000D3F8003243F001027B69C3F800227B69C9
:100F5000D3F8003223F47C527B69C3F800227B690A
:100F6000D3F800223B685B6A1B021A437B69C3F813
:100F700000223B685B6903F01F03012202FA03F3BE
:100F8000FB607B69D3F81C22FB68DB431A407B695A
:100F9000C3F81C223B68DB69002B23D17B69D3F8A3
:100FA0000C22FB68DB431A407B69C3F80C223B68C8
:100FB000DB6819043B685B689BB23A685269194365
:100FC0007B69483243F832103B689B6819043B68E0
:100FD0001B689AB23B685B690A4379694833DB0056
:100FE0000B445A603B68DB69012B22D17B69D3F843
:100FF0000C22FB681A437B69C3F80C223B681B6810
:1010000019043B685B689BB23A68526919437B6973
:10101000483243F832103B689B6819043B68DB6830
:101020009AB23B685B690A4379694833DB000B4439
:101030005A603B689B69002B09D17B69D3F8042275
:10104000FB68DB431A407B69C3F8042207E07B6935
:10105000D3F80422FB681A437B69C3F804223B6877
:101060001B69002B09D17B69D3F81422FB68DB4391
:101070001A407B69C3F8142207E07B69D3F8142275
:10108000FB681A437B69C3F814223B681B6A012B77
:1010900007D17B69D3F81C22FB681A437B69C3F82C
:1010A0001C227B69D3F8003223F001027B69C3F86C
:1010B0000022002306E07B685B6A43F480227B68A1
:1010C0005A62012318461C37BD465DF8047B704701
:1010D0000064004080B584B000AF78607B6893F80E
:1010E0002030DBB2012B2ED17B68022283F8202036
:1010F0007B681B681A687B681B6822F001021A6013
:1011000002F020F8F86012E002F01CF80246FB68DA
:10111000D31A0A2B0BD97B685B6A43F400327B68D5
:101120005A627B68052283F82020012312E07B6845
:101130001B685B6803F00103002BE5D17B6800228C
:101140005A62002306E07B685B6A43F400227B68F6
:101150005A62012318461037BD4680BD80B489B05D
:1011600000AFF860B9607A603B60FB6893F82030AC
:10117000FB77FB681B689B68BB61FB7F012B03D07F
:10118000FB7F022B40F0AD80BB6903F08063002B36
:101190000AD1BB6903F00063002B05D1BB6903F0E2
:1011A0008053002B00F09580BB691B0E03F00303F6
:1011B0007B6101227B699A403B681A60BB689B682F
:1011C000002B0DD1BB681B685A05BB68DB68F9684A
:1011D00009681A437B6918331B010B441A600FE03E
:1011E000BB685B68DA00BB689B681A43BB68DB6856
:1011F000F96809681A437B6918331B010B441A60AC
:10120000FB681968BB681A697B6918331B010B44BA
:1012100004331A60BB681B7D012B11D1FB681A686F
:101220007B6918331B01134404331B68FA68116887
:1012300043F480727B6918331B010B4404331A603A
:101240007B6807331B781A067B6806331B781B0400
:101250001A437B6805331B781B0213437A680432F8
:1012600012781046FA68116843EA00027B691B0194
:101270000B4403F5C6731A607B6803331B781A06A8
:101280007B6802331B781B041A437B6801331B788D
:101290001B0213437A6812781046FA68116843EA11
:1012A00000027B691B010B4403F5C4731A60FB68E1
:1012B0001A687B6918331B0113441B68FA681168AC
:1012C00043F001027B6918331B010B441A600023B1
:1012D0000EE0FB685B6A43F40012FB685A6201236C
:1012E00006E0FB685B6A43F48022FB685A620123D4
:1012F00018462437BD465DF8047B704780B485B03E
:1013000000AF78600023FB607B6893F82030FB72AD
:10131000FB7A012B02D0FB7A022B1DD17B681B6864
:101320009B6803F08063002B02D0FB680133FB60F5
:101330007B681B689B6803F00063002B02D0FB688E
:101340000133FB607B681B689B6803F08053002BB4
:1013500002D0FB680133FB60FB6818461437BD46BA
:101360005DF8047B704780B487B000AFF860B96067
:101370007A603B60FB6893F82030FB75FB7D012BA6
:1013800003D0FB7D022B40F00381BB68002B0ED104
:10139000FB681B68DB6803F00303002B16D1FB68B6
:1013A0005B6A43F40012FB685A620123F7E0FB68B2
:1013B0001B681B6903F00303002B07D1FB685B6A02
:1013C00043F40012FB685A620123E8E0FB681A68E4
:1013D000BB681B331B0113441B6803F004027B68CA
:1013E0009A607B689B68002B0CD1FB681A68BB680D
:1013F0001B331B0113441B685B0DC3F30A027B689C
:101400001A600BE0FB681A68BB681B331B011344AE
:101410001B68DB0823F060427B685A60FB681A682F
:10142000BB681B331B0113441B6803F002027B687B
:10143000DA60FB681A68BB681B331B011344043372
:101440001B6803F00803002B03D07B6808221A6195
:101450000BE0FB681A68BB681B331B0113440433A1
:101460001B6803F00F027B681A61FB681A68BB688F
:101470001B331B01134404331B681B0ADAB27B685D
:101480009A61FB681A68BB681B331B011344043361
:101490001B681B0C9AB27B685A61FB681A68BB68B0
:1014A0001B01134403F5DC731B68DAB23B681A7046
:1014B000FB681A68BB681B01134403F5DC731B68E7
:1014C0001A0A3B680133D2B21A70FB681A68BB680B
:1014D0001B01134403F5DC731B681A0C3B680233D1
:1014E000D2B21A70FB681A68BB681B01134403F57B
:1014F000DC731B681A0E3B680333D2B21A70FB68A8
:101500001A68BB681B01134403F5DE731A683B6855
:101510000433D2B21A70FB681A68BB681B0113440B
:1015200003F5DE731B681A0A3B680533D2B21A70E2
:10153000FB681A68BB681B01134403F5DE731B6864
:101540001A0C3B680633D2B21A70FB681A68BB6883
:101550001B01134403F5DE731B681A0E3B68073347
:10156000D2B21A70BB68002B08D1FB681B68DA681E
:10157000FB681B6842F02002DA6007E0FB681B682A
:101580001A69FB681B6842F020021A61002306E01A
:10159000FB685B6A43F48022FB685A6201231846A9
:1015A0001C37BD465DF8047B704780B485B000AF42
:1015B000786039600023FB607B6893F82030FB7211
:1015C000FB7A012B02D0FB7A022B0FD13B68002B58
:1015D00006D17B681B68DB6803F00303FB6005E052
:1015E0007B681B681B6903F00303FB60FB681846FC
:1015F0001437BD465DF8047B704780B485B000AFFA
:10160000786039607B6893F82030FB73FB7B012B9B
:1016100002D0FB7B022B09D17B681B6859697B6870
:101620001B683A680A435A61002306E07B685B6ADC
:1016300043F480227B685A62012318461437BD4662
:101640005DF8047B704780B58AB000AF78600023F6
:101650007B627B681B685B693B627B681B685B68BD
:10166000FB617B681B689B68BB617B681B68DB68F0
:101670007B617B681B681B693B617B681B689B699E
:10168000FB603B6A03F00103002B7CD0BB6903F0D5
:101690000103002B23D07B681B6801229A60BB6981
:1016A00003F00203002B03D0786800F083F916E002
:1016B000BB6903F00403002B04D07B6A43F400638E
:1016C0007B620CE0BB6903F00803002B04D07B6A4B
:1016D00043F480537B6202E0786800F089F9BB69CB
:1016E00003F48073002B24D07B681B684FF4807256
:1016F0009A60BB6903F40073002B03D0786800F094
:1017000063F916E0BB6903F48063002B04D07B6AA5
:1017100043F400537B620CE0BB6903F40063002BCD
:1017200004D07B6A43F480437B6202E0786800F077
:1017300069F9BB6903F48033002B24D07B681B68F4
:101740004FF480329A60BB6903F40033002B03D05E
:10175000786800F043F916E0BB6903F48023002B9E
:1017600004D07B6A43F400437B620CE0BB6903F462
:101770000023002B04D07B6A43F480337B6202E0B9
:10178000786800F049F93B6A03F00803002B0CD09D
:101790007B6903F01003002B07D07B6A43F40073CE
:1017A0007B627B681B681022DA603B6A03F00403EB
:1017B000002B0BD07B6903F00803002B06D07B685D
:1017C0001B680822DA60786800F030F93B6A03F0A1
:1017D0000203002B09D07B681B68DB6803F003035E
:1017E000002B02D0786806F0F1FC3B6A03F040035E
:1017F000002B0CD03B6903F01003002B07D07B6A51
:1018000043F480637B627B681B6810221A613B6A29
:1018100003F02003002B0BD03B6903F00803002BDF
:1018200006D07B681B6808221A61786800F008F906
:101830003B6A03F01003002B09D07B681B681B690F
:1018400003F00303002B02D0786806F0CBFC3B6A60
:1018500003F40033002B0BD0FB6903F01003002BC3
:1018600006D07B681B6810225A60786800F0F2F896
:101870003B6A03F48033002B0BD0FB6903F00803B1
:10188000002B06D07B681B6808225A60786800F03D
:10189000EBF83B6A03F40043002B7BD0FB6903F0B9
:1018A0000403002B72D03B6A03F48073002B08D032
:1018B000FB6803F00103002B03D07B6A43F00103B4
:1018C0007B623B6A03F40073002B08D0FB6803F0D3
:1018D0000203002B03D07B6A43F002037B623B6A66
:1018E00003F48063002B08D0FB6803F00403002B93
:1018F00003D07B6A43F004037B623B6A03F400631A
:10190000002B43D0FB6803F07003002B3ED0FB6834
:1019100003F07003602B2BD0602B2ED8502B22D0DD
:10192000502B2AD8402B19D0402B26D8302B10D042
:10193000302B22D8102B02D0202B05D01DE07B6A43
:1019400043F008037B6219E07B6A43F010037B627B
:1019500014E07B6A43F020037B620FE07B6A43F074
:1019600040037B620AE07B6A43F080037B6205E010
:101970007B6A43F480737B6200E000BF7B681B6876
:101980009A697B681B6822F070029A617B681B6809
:1019900004225A607B6A002B08D07B685A6A7B6AF3
:1019A0001A437B685A62786800F068F800BF2837ED
:1019B000BD4680BD80B483B000AF786000BF0C37F7
:1019C000BD465DF8047B704780B483B000AF78609B
:1019D00000BF0C37BD465DF8047B704780B483B010
:1019E00000AF786000BF0C37BD465DF8047B7047E0
:1019F00080B483B000AF786000BF0C37BD465DF89F
:101A0000047B704780B483B000AF786000BF0C37B0
:101A1000BD465DF8047B704780B483B000AF78604A
:101A200000BF0C37BD465DF8047B704780B483B0BF
:101A300000AF786000BF0C37BD465DF8047B70478F
:101A400080B483B000AF786000BF0C37BD465DF84E
:101A5000047B704780B483B000AF786000BF0C3760
:101A6000BD465DF8047B704780B483B000AF7860FA
:101A700000BF0C37BD465DF8047B704780B483B06F
:101A800000AF786000BF0C37BD465DF8047B70473F
:101A900080B586B000AF78607B68002B01D1012350
:101AA00067E27B681B6803F00103002B75D0884B4D
:101AB0009B6803F00C03042B0CD0854B9B6803F050
:101AC0000C03082B12D1824B5B6803F48003B3F53F
:101AD000800F0BD17E4B1B6803F40033002B5BD0CF
:101AE0007B685B68002B57D1012342E27B685B680F
:101AF000B3F5803F06D1764B1B68754A43F48033BB
:101B000013601DE07B685B68B3F5A02F0CD1704BB0
:101B10001B686F4A43F4802313606D4B1B686C4A4B
:101B200043F4803313600BE0694B1B68684A23F46D
:101B300080331360664B1B68654A23F4802313606F
:101B40007B685B68002B13D001F0FCFA386108E079
:101B500001F0F8FA02463B69D31A642B01D903233A
:101B600007E25B4B1B6803F40033002BF0D014E05A
:101B700001F0E8FA386108E001F0E4FA02463B6956
:101B8000D31A642B01D90323F3E1514B1B6803F4EF
:101B90000033002BF0D100E000BF7B681B6803F02E
:101BA0000203002B63D04A4B9B6803F00C03002B0D
:101BB0000BD0474B9B6803F00C03082B1CD1444B04
:101BC0005B6803F48003002B16D1414B1B6803F0C4
:101BD0000203002B05D07B68DB68012B01D00123B9
:101BE000C7E13B4B1B6823F0F8027B681B69DB00F5
:101BF000374913430B603AE07B68DB68002B20D049
:101C0000344B01221A6001F09DFA386108E001F0BE
:101C100099FA02463B69D31A022B01D90323A8E1A2
:101C20002B4B1B6803F00203002BF0D0284B1B68E2
:101C300023F0F8027B681B69DB00254913430B6026
:101C400015E0244B00221A6001F07CFA386108E0AC
:101C500001F078FA02463B69D31A022B01D903231B
:101C600087E11B4B1B6803F00203002BF0D17B685C
:101C70001B6803F00803002B36D07B685B69002BE0
:101C800016D0154B01221A6001F05CFA386108E0A9
:101C900001F058FA02463B69D31A022B01D90323FB
:101CA00067E10B4B5B6F03F00203002BF0D01BE0EE
:101CB000094B00221A6001F045FA38610EE001F08C
:101CC00041FA02463B69D31A022B07D9032350E19C
:101CD0000038024000004742800E4742884B5B6F4D
:101CE00003F00203002BEAD17B681B6803F00403B6
:101CF000002B00F097800023FB75814B1B6C03F0D9
:101D00008053002B0FD10023BB607D4B1B6C7C4AA2
:101D100043F0805313647A4B1B6C03F08053BB6019
:101D2000BB680123FB75774B1B6803F48073002BA2
:101D300018D1744B1B68734A43F48073136001F02D
:101D400001FA386108E001F0FDF902463B69D31A57
:101D5000022B01D903230CE16A4B1B6803F4807347
:101D6000002BF0D07B689B68012B06D1644B1B6F66
:101D7000634A43F0010313671CE07B689B68052BF3
:101D80000CD15F4B1B6F5E4A43F0040313675C4B3F
:101D90001B6F5B4A43F0010313670BE0584B1B6F4B
:101DA000574A23F001031367554B1B6F544A23F026
:101DB000040313677B689B68002B15D001F0C2F900
:101DC00038610AE001F0BEF902463B69D31A41F2DC
:101DD0008832934201D90323CBE0494B1B6F03F0B8
:101DE0000203002BEED014E001F0ACF938610AE0F8
:101DF00001F0A8F902463B69D31A41F288329342B6
:101E000001D90323B5E03E4B1B6F03F00203002B07
:101E1000EED1FB7D012B05D1394B1B6C384A23F0E9
:101E2000805313647B689B69002B00F0A180344BC6
:101E30009B6803F00C03082B5CD07B689B69022B2A
:101E400041D1314B00221A6001F07CF9386108E081
:101E500001F078F902463B69D31A022B01D903231A
:101E600087E0274B1B6803F00073002BF0D17B68E1
:101E7000DA697B681B6A1A437B685B6A9B011A43B9
:101E80007B689B6A5B08013B1B041A437B68DB6A27
:101E90001B061B4913434B601B4B01221A6001F0C8
:101EA00051F9386108E001F04DF902463B69D31A57
:101EB000022B01D903235CE0114B1B6803F0007374
:101EC000002BF0D054E0104B00221A6001F03AF9D8
:101ED000386108E001F036F902463B69D31A022B5B
:101EE00001D9032345E0064B1B6803F00073002B68
:101EF000F0D13DE07B689B69012B07D1012338E0DD
:101F00000038024000700040600047421B4B5B6895
:101F1000FB607B689B69012B28D0FB6803F480027F
:101F20007B68DB699A4221D1FB6803F03F027B6842
:101F30001B6A9A421AD1FA6847F6C07313407A684E
:101F4000526A9201934211D1FB6803F440327B68DC
:101F50009B6A5B08013B1B049A4207D1FB6803F0B4
:101F600070627B68DB6A1B069A4201D0012300E0A5
:101F7000002318461837BD4680BD00BF0038024018
:101F800080B584B000AF786039607B68002B01D1E8
:101F90000123CCE0684B1B6803F007033A689A42C0
:101FA0000CD9654B3A68D2B21A70634B1B6803F0C8
:101FB00007033A689A4201D00123B8E07B681B68A6
:101FC00003F00203002B20D07B681B6803F004039E
:101FD000002B05D0594B9B68584A43F4E05393605B
:101FE0007B681B6803F00803002B05D0534B9B68EC
:101FF000524A43F460439360504B9B6823F0F002D5
:102000007B689B684D4913438B607B681B6803F0BA
:102010000103002B44D07B685B68012B07D1474B41
:102020001B6803F40033002B19D101237FE07B6888
:102030005B68022B03D07B685B68032B07D13F4BA7
:102040001B6803F00073002B09D101236FE03B4BA9
:102050001B6803F00203002B01D1012367E0374B1B
:102060009B6823F003027B685B68344913438B60F1
:1020700001F068F8F8600AE001F064F80246FB68D5
:10208000D31A41F28832934201D903234FE02B4BFC
:102090009B6803F00C027B685B689B009A42EBD163
:1020A000254B1B6803F007033A689A420CD2224B77
:1020B0003A68D2B21A70204B1B6803F007033A68E3
:1020C0009A4201D0012332E07B681B6803F00403CD
:1020D000002B08D0194B9B6823F4E0527B68DB6827
:1020E000164913438B607B681B6803F00803002BC1
:1020F00009D0124B9B6823F460427B681B69DB00AC
:102100000E4913438B6000F021F802460B4B9B688D
:102110001B0903F00F030A49CB5C22FA03F3094AB7
:102120001360094B1B68184605F072F80023184627
:102130001037BD4680BD00BF003C02400038024061
:102140005412010850000020540000202DE9B04F27
:1021500090B000AF00237B630023FB6300233B634D
:102160000023BB63594B9B6803F00C03082B0DD075
:10217000082B00F2A180002B02D0042B03D09BE09F
:10218000534BBB639BE0534BBB6398E04F4B5B6887
:1021900003F03F037B634D4B5B6803F48003002B2C
:1021A00028D04A4B5B689B0900223B627A623B6AFB
:1021B000C3F308000021474B03FB01F2002300FB9F
:1021C00003F31344434AA0FB0212FA620A46BA62BE
:1021D000FA6A1344FB627B6B0022BB61FA61D7E9A8
:1021E0000623D7E90A01FEF78FF902460B4613468C
:1021F000FB6353E0354B5B689B0900223B617A61CE
:102200003B69C3F3080A4FF0000B52465B464FF0A0
:1022100000004FF00001590141EAD261500102462D
:102220000B46B2EB0A0863EB0B094FF000024FF0CC
:1022300000034FEA891343EA98634FEA8812B2EB2E
:10224000080463EB09054FF000024FF00003EB00B8
:1022500043EA5473E20014461D4614EB0A033B6044
:1022600045EB0B037B604FF000024FF00003D7E912
:10227000004529468B02214643EA915321468A02B2
:10228000104619467B6B0022BB60FA60D7E9022337
:10229000FEF73AF902460B461346FB630B4B5B68AD
:1022A0001B0C03F0030301335B003B63FA6B3B6BD6
:1022B000B2FBF3F3BB6302E0054BBB6300BFBB6B38
:1022C00018464037BD46BDE8B08F00BF0038024019
:1022D0000024F400001BB70080B400AF034B1B6860
:1022E0001846BD465DF8047B704700BF50000020D3
:1022F00080B500AFFFF7F0FF0246054B9B689B0AD5
:1023000003F007030349CB5C22FA03F3184680BDB0
:10231000003802406412010880B500AFFFF7DCFF0F
:102320000246054B9B685B0B03F007030349CB5C3C
:1023300022FA03F3184680BD0038024064120108F7
:1023400080B483B000AF786039607B680F221A6078
:10235000124B9B6803F003027B685A600F4B9B682B
:1023600003F0F0027B689A600C4B9B6803F4E05228
:102370007B68DA60094B9B68DB0803F4E0527B68FA
:102380001A61074B1B6803F007023B681A6000BF25
:102390000C37BD465DF8047B704700BF0038024033
:1023A000003C024080B489B000AF786039600023FF
:1023B0007B6100233B610023BB610023FB616BE178
:1023C0000122FB6902FA03F37B613B681B687A69AF
:1023D00013403B613A697B699A4240F05A813B68FD
:1023E0005B6803F00303012B05D03B685B6803F0D7
:1023F0000303022B30D17B689B68BB61FB695B00E8
:10240000032202FA03F3DB43BA691340BB613B6862
:10241000DA68FB695B0002FA03F3BA691343BB6134
:102420007B68BA699A607B685B68BB610122FB6963
:1024300002FA03F3DB43BA691340BB613B685B6894
:102440001B0903F00102FB6902FA03F3BA691343A3
:10245000BB617B68BA695A603B685B6803F0030341
:10246000032B17D07B68DB68BB61FB695B00032231
:1024700002FA03F3DB43BA691340BB613B689A6815
:10248000FB695B0002FA03F3BA691343BB617B6823
:10249000BA69DA603B685B6803F00303022B23D15F
:1024A000FB69DA087B68083253F82230BB61FB69AC
:1024B00003F007039B000F2202FA03F3DB43BA6920
:1024C0001340BB613B681A69FB6903F007039B007B
:1024D00002FA03F3BA691343BB61FB69DA087B684C
:1024E0000832B96943F822107B681B68BB61FB693D
:1024F0005B00032202FA03F3DB43BA691340BB61BA
:102500003B685B6803F00302FB695B0002FA03F3BC
:10251000BA691343BB617B68BA691A603B685B6840
:1025200003F44033002B00F0B4800023FB60604BC9
:102530005B6C5F4A43F4804353645D4B5B6C03F414
:102540008043FB60FB685B4AFB699B08023352F8DF
:102550002330BB61FB6903F003039B000F2202FAE7
:1025600003F3DB43BA691340BB617B68524A934271
:102570002BD07B68514A934225D07B68504A9342C6
:102580001FD07B684F4A934219D07B684E4A9342D2
:1025900013D07B684D4A93420DD07B684C4A9342DE
:1025A00007D07B684B4A934201D107230EE00823F2
:1025B0000CE006230AE0052308E0042306E00323D9
:1025C00004E0022302E0012300E00023FA6902F0A4
:1025D000030292009340BA691343BB613549FB691A
:1025E0009B080233BA6941F823203B4B9B68BB61CF
:1025F0003B69DB43BA691340BB613B685B6803F42A
:102600008013002B03D0BA693B691343BB61324A84
:10261000BB699360304BDB68BB613B69DB43BA69E4
:102620001340BB613B685B6803F40013002B03D0CD
:10263000BA693B691343BB61274ABB69D360264B28
:102640005B68BB613B69DB43BA691340BB613B68B4
:102650005B6803F40033002B03D0BA693B69134372
:10266000BB611D4ABB6953601B4B1B68BB613B6967
:10267000DB43BA691340BB613B685B6803F480339A
:10268000002B03D0BA693B691343BB61124ABB6993
:102690001360FB690133FB61FB690F2B7FF690AE82
:1026A00000BF00BF2437BD465DF8047B704700BF04
:1026B000003802400038014000000240000402409F
:1026C00000080240000C02400010024000140240CA
:1026D00000180240001C0240003C014080B483B05E
:1026E00000AF78600B467B8013467B707B78002BB5
:1026F00003D07A887B689A6103E07B881A047B6840
:102700009A6100BF0C37BD465DF8047B704700003E
:1027100080B586B000AF786000237B6100F012FDC9
:1027200038617B68002B01D1012399E07B6802228C
:1027300083F835207B68002283F834207B681B688F
:102740001A687B681B6822F001021A600FE000F033
:10275000F9FC02463B69D31A052B08D97B68202275
:102760005A657B68032283F83520032378E07B6871
:102770001B681B6803F00103002BE8D17B681B6812
:102780001B687B617A69384B13407B617B685A68B0
:102790007B689B681A437B68DB681A437B681B690C
:1027A0001A437B685B691A437B689B691A437B68A1
:1027B000DB691A437B681B6A13437A6913437B61A5
:1027C0007B685B6A042B07D17B68DA6A7B681B6BCA
:1027D00013437A6913437B617B681B687A691A60CB
:1027E0007B681B685B697B617B6923F007037B6106
:1027F0007B685B6A7A6913437B617B685B6A042B45
:1028000017D17B689B6A7A6913437B617B68DB6ABB
:10281000002B0ED0786800F001FB0346002B08D097
:102820007B6840225A657B68012283F835200123AA
:1028300016E07B681B687A695A61786800F0B8FA1C
:102840000346FB607B68DB6D3F229A40FB689A6021
:102850007B6800225A657B68012283F835200023BB
:1028600018461837BD4680BD3F8010F080B586B051
:1028700000AFF860B9607A603B600023FB75FB68CD
:102880009B6D3B61FB6893F83430012B01D102232F
:1028900040E0FB68012283F83420FB6893F8353070
:1028A000DBB2012B2FD1FB68022283F83520FB68B5
:1028B00000225A653B687A68B968F86800F04AFAFD
:1028C000FB68DB6D3F229A403B699A60FB681B689E
:1028D0001A68FB681B6842F016021A60FB681B6CE2
:1028E000002B07D0FB681B681A68FB681B6842F066
:1028F00008021A60FB681B681A68FB681B6842F0D4
:1029000001021A6005E0FB68002283F834200223EC
:10291000FB75FB7D18461837BD4680BD80B584B079
:1029200000AF78607B689B6DFB6000F00BFCB860CB
:102930007B6893F83530DBB2022B08D07B688022AD
:102940005A657B68002283F83420012352E07B68BB
:102950001B681A687B681B6822F016021A607B6885
:102960001B685A697B681B6822F080025A617B6889
:102970001B6C002B03D17B689B6C002B07D07B6802
:102980001B681A687B681B6822F008021A607B6863
:102990001B681A687B681B6822F001021A6013E04A
:1029A00000F0D0FB0246BB68D31A052B0CD97B681C
:1029B00020225A657B68032283F835207B68002239
:1029C00083F83420032315E07B681B681B6803F041
:1029D0000103002BE4D17B68DB6D3F229A40FB684A
:1029E0009A607B68012283F835207B68002283F897
:1029F0003420002318461037BD4680BD80B483B014
:102A000000AF78607B6893F83530DBB2022B04D0DE
:102A10007B6880225A6501230CE07B68052283F8DD
:102A200035207B681B681A687B681B6822F00102EE
:102A30001A60002318460C37BD465DF8047B7047CA
:102A400080B586B000AF78600023BB608E4B1B68FA
:102A50008E4AA2FB03239B0A7B617B689B6D3B61D3
:102A60003B691B68FB607B68DB6D08229A40FB6852
:102A70001340002B1AD07B681B681B6803F004030B
:102A8000002B13D07B681B681A687B681B6822F0D8
:102A900004021A607B68DB6D08229A403B699A60E9
:102AA0007B685B6D43F001027B685A657B68DB6D78
:102AB00001229A40FB681340002B12D07B681B68F0
:102AC0005B6903F08003002B0BD07B68DB6D012278
:102AD0009A403B699A607B685B6D43F002027B68B9
:102AE0005A657B68DB6D04229A40FB681340002B1B
:102AF00012D07B681B681B6803F00203002B0BD00D
:102B00007B68DB6D04229A403B699A607B685B6D51
:102B100043F004027B685A657B68DB6D10229A40A3
:102B2000FB681340002B43D07B681B681B6803F0D5
:102B30000803002B3CD07B68DB6D10229A403B6978
:102B40009A607B681B681B6803F48023002B18D0F5
:102B50007B681B681B6803F40023002B08D17B688B
:102B60001B6C002B24D07B681B6C786898471FE097
:102B70007B689B6C002B1BD07B689B6C78689847AC
:102B800016E07B681B681B6803F48073002B07D179
:102B90007B681B681A687B681B6822F008021A6051
:102BA0007B681B6C002B03D07B681B6C7868984794
:102BB0007B68DB6D20229A40FB681340002B00F0FD
:102BC0008F807B681B681B6803F01003002B00F0EC
:102BD00087807B68DB6D20229A403B699A607B6826
:102BE00093F83530DBB2052B36D17B681B681A6849
:102BF0007B681B6822F016021A607B681B685A69A2
:102C00007B681B6822F080025A617B681B6C002B7A
:102C100003D17B689B6C002B07D07B681B681A680C
:102C20007B681B6822F008021A607B68DB6D3F221C
:102C30009A403B699A607B68012283F835207B6863
:102C4000002283F834207B681B6D002B7ED07B68CC
:102C50001B6D7868984779E07B681B681B6803F4F4
:102C60008023002B1DD07B681B681B6803F40023A6
:102C7000002B0DD17B685B6C002B31D07B685B6CCB
:102C8000786898472CE000BF50000020B5814E1BAB
:102C90007B68DB6B002B23D07B68DB6B7868984705
:102CA0001EE07B681B681B6803F48073002B0FD148
:102CB0007B681B681A687B681B6822F010021A6028
:102CC0007B68012283F835207B68002283F834205A
:102CD0007B68DB6B002B03D07B68DB6B78689847E5
:102CE0007B685B6D002B32D07B685B6D03F001036A
:102CF000002B22D07B68052283F835207B681B6877
:102D00001A687B681B6822F001021A60BB680133F5
:102D1000BB607A699A4207D37B681B681B6803F023
:102D20000103002BF2D100E000BF7B68012283F891
:102D300035207B68002283F834207B68DB6C002B15
:102D400005D07B68DB6C7868984700E000BF1837D7
:102D5000BD4680BD80B485B000AFF860B9607A60D0
:102D60003B60FB681B681A68FB681B6822F48022C2
:102D70001A60FB681B683A685A60FB689B68402BC6
:102D800008D1FB681B687A689A60FB681B68BA68A0
:102D9000DA6007E0FB681B68BA689A60FB681B682A
:102DA0007A68DA6000BF1437BD465DF8047B70476F
:102DB00080B485B000AF78607B681B68DBB2103BE5
:102DC000144AA2FB03231B09FB60134AFB6813444C
:102DD0001B781A467B68DA65FB68032B09D97B6888
:102DE0001B6823F47F7323F003031A1D7B689A6525
:102DF00007E07B681B6823F47F7323F003037A6882
:102E000093657B689B6D18461437BD465DF8047B5F
:102E1000704700BFABAAAAAA6C12010880B485B0A3
:102E200000AF78600023FB737B689B6ABB607B68A4
:102E30009B69002B1FD1BB68032B56D801A252F807
:102E400023F000BF552E0008672E0008552E0008FD
:102E5000EB2E00087B68DB6A03F08073002B46D002
:102E60000123FB7343E07B68DB6AB3F1C07F40D191
:102E70000123FB733DE07B689B69B3F5005F21D1C3
:102E8000BB68032B37D801A252F823F09D2E00080F
:102E9000A32E00089D2E0008B52E00080123FB7309
:102EA00030E07B68DB6A03F08073002B25D00123C0
:102EB000FB7322E07B68DB6AB3F1C07F1FD1012383
:102EC000FB731CE0BB68022B03D9BB68032B03D048
:102ED00018E00123FB7315E07B68DB6A03F0807365
:102EE000002B0ED00123FB730BE000BF0AE000BFF4
:102EF00008E000BF06E000BF04E000BF02E000BF42
:102F000000E000BFFB7B18461437BD465DF8047B2C
:102F1000704700BF80B485B000AF78607B6803F075
:102F20000703FB600C4BDB68BB60BA684FF6FF031E
:102F30001340BB60FB681A02BB68134343F0BF63D6
:102F400043F40033BB60044ABB68D36000BF14374E
:102F5000BD465DF8047B704700ED00E080B400AF33
:102F6000044BDB681B0A03F007031846BD465DF8F7
:102F7000047B704700ED00E080B483B000AF0346EF
:102F8000FB7197F90730002B0BDBFB7903F01F0275
:102F9000074997F907305B09012000FA02F241F86E
:102FA000232000BF0C37BD465DF8047B704700BF8F
:102FB00000E100E080B483B000AF03463960FB71EC
:102FC00097F90730002B0ADB3B68DAB20C4997F916
:102FD00007301201D2B20B4483F800230AE03B68A9
:102FE000DAB20849FB7903F00F03043B1201D2B2B5
:102FF0000B441A7600BF0C37BD465DF8047B704762
:1030000000E100E000ED00E080B489B000AFF860BE
:10301000B9607A60FB6803F00703FB61FB69C3F1E9
:103020000703042B28BF0423BB61FB690433062B71
:1030300002D9FB69033B00E000237B614FF0FF32C4
:10304000BB6902FA03F3DA43BB681A407B699A4012
:103050004FF0FF317B6901FA03F3D9437B680B40E2
:10306000134318462437BD465DF8047B704780B58E
:1030700082B000AF78607868FFF74CFF00BF083778
:10308000BD4680BD80B586B000AF0346B9607A60AA
:10309000FB7300237B61FFF761FF78617A68B96891
:1030A0007869FFF7B1FF024697F90F3011461846CD
:1030B000FFF780FF00BF1837BD4680BD80B582B0E6
:1030C00000AF0346FB7197F907301846FFF754FF2E
:1030D00000BF0837BD4680BD80B500AF0E4B1B68F2
:1030E0000D4A43F4007313600B4B1B680A4A43F408
:1030F00080631360084B1B68074A43F480731360B6
:103100000320FFF7B4FF0F2004F082F804F054F816
:103110000023184680BD00BF003C024080B400AFD1
:10312000064B1B781A46064B1B681344044A13606F
:1031300000BFBD465DF8047B704700BF580000200B
:103140004404002080B400AF034B1B681846BD4602
:103150005DF8047B704700BF4404002080B582B056
:1031600000AF78607B68002B01D101230EE07B6803
:103170005B79DBB2002B05D17B6800221A7178687D
:1031800003F020FB7B6801225A71002318460837A0
:10319000BD4680BD80B582B000AF78607B68002BF3
:1031A00001D101231CE07B685B79DBB2002B05D1E8
:1031B0007B6800221A71786803F098FB7B68022212
:1031C0005A717B681B681A687B681B6842F00402AE
:1031D0001A607B6801225A717B6800229A60002382
:1031E00018460837BD4680BD80B584B000AF786012
:1031F0000023FB607B681B685B68BB60BB6803F0F7
:103200002003002B05D07B6810229A600123FB600D
:1032100009E0BB6803F04003002B04D07B68082260
:103220009A600123FB60FB68012B0BD17B680422B1
:103230005A71786800F037F87B681B686FF060029D
:103240005A6022E0BB6803F00103002B1DD07B68AD
:103250001B681A687B681B6822F008021A607B688A
:103260001B689A687B68DA607B685B79DBB2042B49
:103270000BD07B6801225A717B6800221A717B682F
:10328000DB681946786800F003F81037BD4680BD4A
:1032900080B483B000AF7860396000BF0C37BD46A2
:1032A0005DF8047B704780B483B000AF786000BFE6
:1032B0000C37BD465DF8047B704780B582B000AF27
:1032C00078607B68002B01D101237BE07B685B6A1F
:1032D000002B08D17B685B68B3F5827F09D07B68DF
:1032E0000022DA6105E07B6800221A617B68002217
:1032F0005A617B6800229A627B6893F85130DBB296
:10330000002B06D17B68002283F85020786803F0F8
:103310004BFB7B68022283F851207B681B681A688C
:103320007B681B6822F040021A607B685B6803F4CC
:1033300082727B689B6803F404431A437B68DB68F2
:1033400003F400631A437B681B6903F002031A430A
:103350007B685B6903F001031A437B689B6903F494
:1033600000731A437B68DB6903F038031A437B68F8
:103370001B6A03F0800342EA03017B689B6A03F443
:1033800000527B681B680A431A607B689B691B0CB0
:1033900003F004017B685B6A03F010027B681B6822
:1033A0000A435A607B681B68DA697B681B6822F4F1
:1033B0000062DA617B6800225A657B68012283F82B
:1033C0005120002318460837BD4680BD80B58AB01D
:1033D00000AFF860B9607A607B8001237B62FFF701
:1033E000B1FE3862FB6893F85130FB77FB685B688D
:1033F000BB617B88FB82FB7F012B0CD0BB69B3F5E3
:10340000827F06D1FB689B68002B02D1FB7F042BD7
:1034100001D002237FE1BB68002B05D07B68002B25
:1034200002D07B88002B01D1012374E1FB6893F863
:103430005030012B01D102236DE1FB68012283F89A
:103440005020FB6893F85130DBB2042B03D0FB68AB
:10345000052283F85120FB6800225A65FB687A68D0
:103460009A63FB687A88DA87FB687A889A87FB68B0
:10347000BA681A63FB687A88DA86FB687A889A8663
:10348000FB6800221A64FB6800225A64FB681B6810
:103490001B6803F04003402B07D0FB681B681A68C9
:1034A000FB681B6842F040021A60FB68DB68B3F5FA
:1034B000006F7ED1FB685B68002B02D0FB8A012B7A
:1034C0006CD1FB681B6B1A88FB681B68DA60FB68B1
:1034D0001B6B9A1CFB681A63FB68DB8E9BB2013B7B
:1034E0009AB2FB68DA8659E0FB681B689B6803F0B8
:1034F0000203022B1BD1FB68DB8E9BB2002B16D084
:103500007B6A012B13D1FB681B6B1A88FB681B6855
:10351000DA60FB681B6B9A1CFB681A63FB68DB8E26
:103520009BB2013B9AB2FB68DA8600237B62FB68A0
:103530001B689B6803F00103012B19D1FB68DB8F2B
:103540009BB2002B14D0FB681B68DA68FB689B6B8E
:1035500092B21A80FB689B6B9A1CFB689A63FB68AB
:10356000DB8F9BB2013B9AB2FB68DA8701237B6257
:10357000FFF7E8FD02463B6AD31A3A6B9A420DD830
:103580003B6BB3F1FF3F09D0FB68012283F8512068
:10359000FB68002283F850200323BCE0FB68DB8E2D
:1035A0009BB2002BA0D1FB68DB8F9BB2002B9BD181
:1035B00082E0FB685B68002B02D0FB8A012B71D193
:1035C000FB681A6BFB681B680C3312781A70FB6877
:1035D0001B6B5A1CFB681A63FB68DB8E9BB2013BBA
:1035E0009AB2FB68DA865DE0FB681B689B6803F0B3
:1035F0000203022B1CD1FB68DB8E9BB2002B17D081
:103600007B6A012B14D1FB681A6BFB681B680C33B7
:1036100012781A70FB681B6B5A1CFB681A63FB68F4
:10362000DB8E9BB2013B9AB2FB68DA8600237B6299
:10363000FB681B689B6803F00103012B19D1FB6831
:10364000DB8F9BB2002B14D0FB681B68DA68FB6829
:103650009B6BD2B21A70FB689B6B5A1CFB689A6317
:10366000FB68DB8F9BB2013B9AB2FB68DA870123D0
:103670007B62FFF767FD02463B6AD31A3A6B9A42B8
:1036800003D83B6BB3F1FF3F02D13B6B002B09D159
:10369000FB68012283F85120FB68002283F8502048
:1036A000032338E0FB68DB8E9BB2002B9CD1FB68C8
:1036B000DB8F9BB2002B97D13A6A396BF86800F028
:1036C000D5F90346002B08D0FB6820225A65FB6819
:1036D000002283F8502001231DE0FB689B68002B2B
:1036E0000AD100233B61FB681B68DB683B61FB6818
:1036F0001B689B683B613B69FB68012283F8512092
:10370000FB68002283F85020FB685B6D002B01D022
:10371000012300E0002318462837BD4680BD000085
:1037200080B588B000AF78607B681B685B68FB6120
:103730007B681B689B68BB61BB699B0903F0010345
:10374000002B0FD1BB6903F00103002B0AD0FB69EA
:103750009B0903F00103002B04D07B681B6C786885
:103760009847D7E0BB695B0803F00103002B0AD040
:10377000FB69DB0903F00103002B04D07B685B6C61
:1037800078689847C6E0BB695B0903F00103002B2A
:103790000CD1BB699B0903F00103002B06D1BB6967
:1037A0001B0A03F00103002B00F0B480FB695B09E6
:1037B00003F00103002B00F0AD80BB699B0903F00F
:1037C0000103002B23D07B6893F85130DBB2032B2D
:1037D00011D07B685B6D43F004027B685A6500235F
:1037E0007B617B681B68DB687B617B681B689B680F
:1037F0007B617B690BE000233B617B681B68DB68B6
:103800003B617B681B689B683B613B6982E0BB69ED
:103810005B0903F00103002B14D07B685B6D43F060
:1038200001027B685A650023FB607B681B689B680C
:10383000FB607B681B681A687B681B6822F040028B
:103840001A60FB68BB691B0A03F00103002B0CD054
:103850007B685B6D43F008027B685A650023BB60A0
:103860007B681B689B68BB60BB687B685B6D002BDB
:103870004FD07B681B685A687B681B6822F0E002A7
:103880005A607B68012283F85120FB6903F0020330
:10389000002B04D1FB6903F00103002B34D07B68BB
:1038A0001B685A687B681B6822F003025A607B68B9
:1038B000DB6C002B11D07B68DB6C184A1A657B68C7
:1038C000DB6C1846FFF79AF80346002B05D07B689F
:1038D0005B6D43F040027B685A657B689B6C002BF4
:1038E00016D07B689B6C0D4A1A657B689B6C1846EA
:1038F000FFF784F80346002B0AD07B685B6D43F02A
:1039000040027B685A6503E0786800F009F800E03F
:1039100000BF00BF2037BD4680BD00BF353900085D
:1039200080B483B000AF786000BF0C37BD465DF84F
:10393000047B704780B584B000AF78607B689B6B78
:10394000FB60FB680022DA87FB680022DA86F868F1
:10395000FFF7E6FF00BF1037BD4680BD80B588B0D9
:1039600000AFF860B9603B601346FB71FFF7EAFBFC
:103970000246BB6A9B1A3A681344FB61FFF7E2FBFD
:10398000B861394B1B685B011B0DFA6902FB03F33D
:103990007B6154E03B68B3F1FF3F50D0FFF7D2FBAF
:1039A0000246BB69D31AFA699A4202D9FB69002B15
:1039B0003DD1FB681B685A68FB681B6822F0E00277
:1039C0005A60FB685B68B3F5827F11D1FB689B6826
:1039D000B3F5004F04D0FB689B68B3F5806F07D147
:1039E000FB681B681A68FB681B6822F040021A60BB
:1039F000FB689B6AB3F5005F0FD1FB681B681A6810
:103A0000FB681B6822F400521A60FB681B681A6886
:103A1000FB681B6842F400521A60FB68012283F8BD
:103A20005120FB68002283F85020032317E07B69B4
:103A3000002B01D10023FB617B69013B7B61FB68AB
:103A40001B689A68BB681340BA689A420CBF01238E
:103A50000023DBB21A46FB799A429BD10023184619
:103A60002037BD4680BD00BF5000002080B588B023
:103A700002AFF860B9607A607B680093BB6801228E
:103A80000221F868FFF76AFF0346002B07D0FB68A6
:103A90005B6D43F02002FB685A65032332E01B4B49
:103AA0001B681B4AA2FB03235B0D4FF47A7202FBD7
:103AB00003F37B61FB685B68B3F5827F12D17B689F
:103AC0000093BB6800228021F868FFF747FF034698
:103AD000002B16D0FB685B6D43F02002FB685A6533
:103AE00003230FE07B69002B0AD07B69013B7B61DC
:103AF000FB681B689B6803F08003802BF2D000E01A
:103B000000BF002318461837BD4680BD5000002076
:103B1000819F5E1680B582B000AF78607B68002B15
:103B200001D1012342E07B6893F84130DBB2002BE6
:103B300006D17B68002283F84020786803F088F87B
:103B40007B68242283F841207B681B68DA687B68E5
:103B50001B6822F40052DA60786800F097FE7B68F8
:103B60001B681A697B681B6822F490421A617B68A3
:103B70001B685A697B681B6822F02A025A617B68BD
:103B80001B68DA687B681B6842F40052DA607B6865
:103B900000225A647B68202283F841207B6820221F
:103BA00083F842207B6800225A63002318460837B6
:103BB000BD4680BD80B58CB000AFF860B9601346DB
:103BC000FB80FB6893F84230DBB2202B4AD1BB6804
:103BD000002B02D0FB88002B01D1012343E0FB68BE
:103BE00001221A63FB6800225A63FB881A46B968EF
:103BF000F86800F0EBFB034687F82F3097F82F307A
:103C0000002B2CD1FB681B6B012B25D100233B61C2
:103C1000FB681B681B683B61FB681B685B683B615A
:103C20003B69FB681B680C33BB61BB6953E8003F11
:103C30007B617B6943F01003BB62FB681B680C333C
:103C4000BA6A7A623B62396A7A6A41E80023FB61A8
:103C5000FB69002BE5D102E0012387F82F3097F8AC
:103C60002F3000E0022318463037BD4680BD0000EB
:103C700080B5BAB000AF78607B681B681B68C7F876
:103C8000E4307B681B68DB68C7F8E0307B681B6842
:103C90005B69C7F8DC300023C7F8D8300023C7F8C9
:103CA000D430D7F8E43003F00F03C7F8D830D7F892
:103CB000D830002B0FD1D7F8E43003F02003002BCD
:103CC00009D0D7F8E03003F02003002B03D0786848
:103CD00000F01DFD5BE2D7F8D830002B00F0DE804D
:103CE000D7F8DC3003F00103002B06D1D7F8E03021
:103CF00003F49073002B00F0D180D7F8E43003F088
:103D00000103002B0BD0D7F8E03003F48073002BB5
:103D100005D07B685B6C43F001027B685A64D7F87E
:103D2000E43003F00403002B0BD0D7F8DC3003F0B1
:103D30000103002B05D07B685B6C43F002027B68BB
:103D40005A64D7F8E43003F00203002B0BD0D7F805
:103D5000DC3003F00103002B05D07B685B6C43F083
:103D600004027B685A64D7F8E43003F00803002BA0
:103D700011D0D7F8E03003F02003002B05D1D7F89D
:103D8000DC3003F00103002B05D07B685B6C43F053
:103D900008027B685A647B685B6C002B00F0F28140
:103DA000D7F8E43003F02003002B08D0D7F8E03038
:103DB00003F02003002B02D0786800F0A8FC7B6899
:103DC0001B685B6903F04003402B0CBF01230023F9
:103DD000DBB2C7F8D4307B685B6C03F00803002BC0
:103DE00003D1D7F8D430002B4FD0786800F0B0FB67
:103DF0007B681B685B6903F04003402B41D17B6803
:103E00001B681433C7F89C30D7F89C3053E8003F48
:103E1000C7F89830D7F8983023F04003C7F8D0306F
:103E20007B681B681433D7F8D020C7F8A820C7F8E0
:103E3000A430D7F8A410D7F8A82041E80023C7F889
:103E4000A030D7F8A030002BD9D17B68DB6B002BDA
:103E500013D07B68DB6B7E4A1A657B68DB6B184688
:103E6000FEF7CCFD0346002B16D07B68DB6B1B6D89
:103E70007A68D26B104698470EE0786804F0AEFC82
:103E80000AE0786804F0AAFC06E0786804F0A6FC72
:103E90007B6800225A6475E100BF73E17B681B6B8D
:103EA000012B40F04F81D7F8E43003F01003002BD2
:103EB00000F04881D7F8E03003F01003002B00F049
:103EC00041810023BB607B681B681B68BB607B680B
:103ED0001B685B68BB60BB687B681B685B6903F041
:103EE0004003402B40F0B6807B68DB6B1B685B684F
:103EF000A7F8BE30B7F8BE30002B00F045817B68D4
:103F00009B8DB7F8BE209A4280F03E817B68B7F85F
:103F1000BE20DA857B68DB6BDB69B3F5807F00F060
:103F200088807B681B680C33C7F88830D7F88830E6
:103F300053E8003FC7F88430D7F8843023F4807307
:103F4000C7F8B8307B681B680C33D7F8B820C7F8BF
:103F50009420C7F89030D7F89010D7F8942041E813
:103F60000023C7F88C30D7F88C30002BD9D17B6870
:103F70001B6814337B677B6F53E8003F3B673B6FE5
:103F800023F00103C7F8B4307B681B681433D7F8FB
:103F9000B420C7F88020FB67F96FD7F8802041E88C
:103FA0000023BB67BB6F002BE1D17B681B68143318
:103FB0003B663B6E53E8003FFB65FB6D23F040031F
:103FC000C7F8B0307B681B681433D7F8B020FA66A6
:103FD000BB66B96EFA6E41E800237B667B6E002BF0
:103FE000E3D17B68202283F842207B6800221A6399
:103FF0007B681B680C33FB64FB6C53E8003FBB64BD
:10400000BB6C23F01003C7F8AC307B681B680C3323
:10401000D7F8AC20BA657B65796DBA6D41E80023AD
:104020003B653B6D002BE3D17B68DB6B1846FEF7ED
:1040300075FC7B6802225A637B689A8D7B68DB8DF6
:104040009BB2D31A9BB21946786804F063FB9BE0DD
:10405000174600087B689A8D7B68DB8D9BB2D31A6C
:10406000A7F8CE307B68DB8D9BB2002B00F08E80F2
:10407000B7F8CE30002B00F089807B681B680C33CA
:10408000BB63BB6B53E8003F7B637B6B23F4907394
:10409000C7F8C8307B681B680C33D7F8C8207A642F
:1040A0003B64396C7A6C41E80023FB63FB6B002BAB
:1040B000E3D17B681B6814337B627B6A53E8003F63
:1040C0003B623B6A23F00103C7F8C4307B681B687E
:1040D0001433D7F8C4203A63FB62F96A3A6B41E8BB
:1040E0000023BB62BB6A002BE3D17B68202283F8EC
:1040F00042207B6800221A637B681B680C333B619B
:104100003B6953E8003FFB60FB6823F01003C7F8EE
:10411000C0307B681B680C33D7F8C020FA61BB61E4
:10412000B969FA6941E800237B617B69002BE3D11F
:104130007B6802225A63B7F8CE301946786804F0DB
:10414000E9FA23E0D7F8E43003F08003002B09D02C
:10415000D7F8E03003F08003002B03D0786800F03C
:104160006EFA14E0D7F8E43003F04003002B0ED0D1
:10417000D7F8E03003F04003002B08D0786800F057
:10418000AEFA04E000BF02E000BF00E000BFE83785
:10419000BD4680BD80B483B000AF786000BF0C37EF
:1041A000BD465DF8047B704780B483B000AF786093
:1041B00000BF0C37BD465DF8047B704780B483B008
:1041C00000AF786000BF0C37BD465DF8047B7047D8
:1041D00080B59CB000AF78607B689B6BFB667B68AA
:1041E0001B681B6803F48073002B72D1FB6E0022E6
:1041F000DA85FB6E1B680C33FB64FB6C53E8003FF5
:10420000BB64BB6C23F48073BB66FB6E1B680C3312
:10421000BA6EBA657B65796DBA6D41E800233B657E
:104220003B6D002BE5D1FB6E1B681433BB63BB6B8E
:1042300053E8003F7B637B6B23F001037B66FB6EDF
:104240001B6814337A6E7A643B64396C7A6C41E88B
:104250000023FB63FB6B002BE5D1FB6E1B68143363
:104260007B627B6A53E8003F3B623B6A23F040037A
:104270003B66FB6E1B6814333A6E3A63FB62F96A65
:104280003A6B41E80023BB62BB6A002BE5D1FB6EB1
:10429000202283F84220FB6E1B6B012B19D1FB6E91
:1042A0001B680C333B613B6953E8003FFB60FB68D4
:1042B00023F01003FB65FB6E1B680C33FA6DFA618B
:1042C000BB61B969FA6941E800237B617B69002B16
:1042D000E5D1FB6E00225A63FB6E1B6B012B06D1EE
:1042E000FB6E9B8D1946F86E04F014FA02E0F86E2E
:1042F000FFF75AFF00BF7037BD4680BD80B584B060
:1043000000AF78607B689B6BFB60FB6801225A639F
:10431000FB681B6B012B08D1FB689B8D5B089BB274
:104320001946F86804F0F6F902E0F868FFF746FF6E
:1043300000BF1037BD4680BD80B584B000AF786047
:104340000023FB607B689B6BBB60BB681B685B6981
:1043500003F08003802B0CBF01230023DBB2FB6042
:10436000BB6893F84130DBB2212B08D1FB68002BEE
:1043700005D0BB680022DA84B86800F0C1F8BB68D9
:104380001B685B6903F04003402B0CBF0123002333
:10439000DBB2FB60BB6893F84230DBB2222B08D162
:1043A000FB68002B05D0BB680022DA85B86800F0F6
:1043B000CFF8BB685B6C43F01002BB685A64B86806
:1043C00004F00CFA00BF1037BD4680BD80B598B030
:1043D00000AFF860B9601346FB80BA68FB689A6268
:1043E000FB68FA889A85FB6800225A64FB682222DF
:1043F00083F84220FB68DB6B3E4ADA63FB68DB6BC9
:104400003D4A1A64FB68DB6B3C4ADA64FB68DB6B91
:1044100000221A6507F10803FB65FB68D86BFB688F
:104420001B6804331946FB6D1A68FB88FEF71EFAF9
:1044300000233B61FB681B681B683B61FB681B68D2
:104440005B683B613B69FB681B69002B19D0FB680B
:104450001B680C333B643B6C53E8003FFB63FB6B16
:1044600043F48073BB65FB681B680C33BA6DFA6458
:10447000BB64B96CFA6C41E800237B647B6C002B55
:10448000E5D1FB681B681433FB62FB6A53E8003F0D
:10449000BB62BB6A43F001037B65FB681B68143396
:1044A0007A6DBA637B63796BBA6B41E800233B6337
:1044B0003B6B002BE5D1FB681B681433BB61BB6908
:1044C00053E8003F7B617B6943F040033B65FB6839
:1044D0001B6814333A6D7A623B62396A7A6A41E842
:1044E0000023FB61FB69002BE5D1002318466037F0
:1044F000BD4680BDD1410008FD4200083943000897
:1045000080B489B000AF78607B681B680C33FB60B7
:10451000FB6853E8003FBB60BB6823F0C003FB614E
:104520007B681B680C33FA69BA617B617969BA6987
:1045300041E800233B613B69002BE5D17B682022E9
:1045400083F8412000BF2437BD465DF8047B7047E7
:1045500080B495B000AF78607B681B680C337B63D8
:104560007B6B53E8003F3B633B6B23F49073FB642E
:104570007B681B680C33FA6C3A64FB63F96B3A6C2A
:1045800041E80023BB63BB6B002BE5D17B681B6854
:1045900014333B623B6A53E8003FFB61FB6923F045
:1045A0000103BB647B681B681433BA6CFA62BB629C
:1045B000B96AFA6A41E800237B627B6A002BE5D185
:1045C0007B681B6B012B19D17B681B680C33FB606C
:1045D000FB6853E8003FBB60BB6823F010037B64BB
:1045E0007B681B680C337A6CBA617B617969BA6944
:1045F00041E800233B613B69002BE5D17B68202229
:1046000083F842207B6800221A6300BF5437BD46FE
:104610005DF8047B704780B584B000AF78607B683C
:104620009B6BFB60FB680022DA85FB680022DA8462
:10463000F86804F0D3F800BF1037BD4680BD80B4E1
:1046400085B000AF78607B6893F84130DBB2212BF6
:104650003ED17B689B68B3F5805F14D17B681B6992
:10466000002B10D17B681B6AFB60FB681B881A4615
:104670007B681B68C2F308025A607B681B6A9A1C3D
:104680007B681A6208E07B681B6A591C7A681162B1
:104690001A787B681B685A607B68DB8C9BB2013B95
:1046A0009BB27A681946D184002B0FD17B681B68B6
:1046B000DA687B681B6822F08002DA607B681B681E
:1046C000DA687B681B6842F04002DA60002300E091
:1046D000022318461437BD465DF8047B704780B549
:1046E00082B000AF78607B681B68DA687B681B6803
:1046F00022F04002DA607B68202283F8412078684B
:10470000FFF748FD002318460837BD4680BD80B539
:104710008CB000AF78607B6893F84230DBB2222B1C
:1047200040F0AE807B689B68B3F5805F17D17B68F3
:104730001B69002B13D10023FB627B689B6ABB6261
:104740007B681B685B689BB2C3F308039AB2BB6AC1
:104750001A807B689B6A9A1C7B689A6226E07B6859
:104760009B6AFB620023BB627B689B68B3F5805F3A
:1047700007D07B689B68002B0AD17B681B69002BE4
:1047800006D17B681B685B68DAB2FB6A1A7008E0C6
:104790007B681B685B68DBB203F07F03DAB2FB6AFD
:1047A0001A707B689B6A5A1C7B689A627B68DB8DF7
:1047B0009BB2013B9BB27A681946D185002B5DD133
:1047C0007B681B68DA687B681B6822F02002DA606D
:1047D0007B681B68DA687B681B6822F48072DA6089
:1047E0007B681B685A697B681B6822F001025A616A
:1047F0007B68202283F842207B6800225A637B6812
:104800001B6B012B35D17B6800221A637B681B6808
:104810000C337B617B6953E8003F3B613B6923F0CC
:1048200010037B627B681B680C337A6A3A62FB6117
:10483000F9693A6A41E80023BB61BB69002BE5D105
:104840007B681B681B6803F01003102B0AD1002340
:10485000FB607B681B681B68FB607B681B685B6890
:10486000FB60FB687B689B8D1946786803F052FFFC
:1048700002E07868FFF798FC002302E0002300E0E4
:10488000022318463037BD4680BD00002DE9B04FE9
:10489000C0B000AFC7F8F400D7F8F4301B681B694C
:1048A00023F44050D7F8F430D968D7F8F4301A68B8
:1048B00040EA01031361D7F8F4309A68D7F8F4306E
:1048C0001B691A43D7F8F4305B691A43D7F8F43000
:1048D000DB691343C7F8F830D7F8F4301B68DB689E
:1048E00023F4164121F00C01D7F8F4301A68D7F8F8
:1048F000F8300B43D360D7F8F4301B685B6923F4BE
:104900004070D7F8F4309969D7F8F4301A6840EA63
:1049100001035361D7F8F4301A688F4B9A4205D0DF
:10492000D7F8F4301A688D4B9A4204D1FDF7F4FCA5
:10493000C7F8FC0003E0FDF7DBFCC7F8FC00D7F884
:10494000F430DB69B3F5004F40F00C81D7F8FC3050
:104950000022C7F8E830C7F8EC20D7E93A452246EC
:104960002B469118B9655B41FB65D7E916232146B3
:1049700012EB0108294643EB01094FF000024FF00A
:1049800000034FEAC90343EA58734FEAC80290464E
:104990009946234618EB0303C7F8E0302B4649EB52
:1049A0000303C7F8E430D7F8F4305B680022C7F897
:1049B000D830C7F8DC20D7E936120B46DB183B6548
:1049C000134642EB03037B65D7E91423D7E938018B
:1049D000FBF79AFD02460B46614BA3FB02235B09E2
:1049E0001C01D7F8FC300022C7F8D030C7F8D4201B
:1049F000D7E9348942464B469118B9645B41FB6460
:104A0000D7E91223414612EB010A494643EB010B59
:104A10004FF000024FF000034FEACB0343EA5A7312
:104A20004FEACA0292469B4643461AEB0303C7F875
:104A3000C8304B464BEB0303C7F8CC30D7F8F43003
:104A40005B680022C7F8C030C7F8C420D7E930122D
:104A50000B46DB183B64134642EB03037B64D7E948
:104A60001023D7E93201FBF74FFD02460B461146F2
:104A70003B4BA3FB01235B09642202FB03F3CB1A2C
:104A8000DB0003F13202364BA3FB02235B095B0020
:104A900003F4F8731C44D7F8FC300022C7F8B83090
:104AA000C7F8BC20D7E92E8942464B469118B96316
:104AB0005B41FB63D7E90E234146511839634946F0
:104AC0004B417B634FF000024FF00003D7E90CAB82
:104AD0005946CB00514643EA51735146CA0010462D
:104AE0001946034642469B18C7F8B0304B460A4663
:104AF00042EB0303C7F8B430D7F8F4305B68002208
:104B0000C7F8A830C7F8AC20D7E92A120B46DB1843
:104B1000BB62134642EB0303FB62D7E90A23D7E9E2
:104B20002C01FBF7F1FC02460B460D4BA3FB0213D5
:104B30005B09642101FB03F3D31ADB003233084A1B
:104B4000A2FB03235B0903F00702D7F8F4301B68CC
:104B500022449A6006E100BF0010014000140140A9
:104B60001F85EB51D7F8FC300022C7F8A030C7F8FA
:104B7000A420D7E9288942464B46911839625B4107
:104B80007B62D7E9082341465418494643EB0105A7
:104B90004FF000024FF00003EB0043EA5473E200D1
:104BA00014461D464346E318C7F898304B4645EB7C
:104BB0000303C7F89C30D7F8F4305B680022C7F8CD
:104BC0009030C7F894204FF000024FF00003D7E96F
:104BD000244529468B00214643EA917321468A00E9
:104BE000D7E92601FBF790FC02460B46604BA3FB7E
:104BF00002235B091C01D7F8FC300022C7F888307B
:104C0000C7F88C20D7E9228942464B469118B961F2
:104C10005B41FB61D7E9062341465118396149469A
:104C20004B417B614FF000024FF00003D7E904AB2A
:104C30005946CB00514643EA51735146CA001046CB
:104C40001946034642469B18C7F880304B460A4631
:104C500042EB0303C7F88430D7F8F4305B680022D6
:104C6000BB67FA674FF000024FF00003D7E91E89D7
:104C700049468B00414643EA917341468A00D7E991
:104C80002001FBF741FC02460B461146384BA3FBC3
:104C900001235B09642202FB03F3CB1A1B013233AD
:104CA000334AA2FB03235B0903F0F0031C44D7F84B
:104CB000FC3000223B677A67D7E91C8942464B46A5
:104CC0009118B9605B41FB60D7E902234146511856
:104CD000396049464B417B604FF000024FF00003C2
:104CE000D7E900AB5946CB00514643EA51735146D0
:104CF000CA0010461946034642469B18BB664B46FF
:104D00000A4642EB0303FB66D7F8F4305B680022E7
:104D10003B667A664FF000024FF00003D7E918892E
:104D200049468B00414643EA917341468A00D7E9E0
:104D30001A01FBF7E9FB02460B460D4BA3FB0213DE
:104D40005B09642101FB03F3D31A1B013233084AC8
:104D5000A2FB03235B0903F00F02D7F8F4301B68B2
:104D600022449A6000BF07F58077BD46BDE8B08F4A
:104D70001F85EB5180B483B000AF78607B6803F18E
:104D800008027B685A607B684FF0FF329A607B684C
:104D900003F108027B68DA607B6803F108027B6834
:104DA0001A617B6800221A6000BF0C37BD465DF8AF
:104DB000047B704780B483B000AF78607B680022CA
:104DC0001A6100BF0C37BD465DF8047B704780B4A4
:104DD00085B000AF786039607B685B68FB603B68DA
:104DE000FA685A60FB689A683B689A60FB689B683F
:104DF0003A685A60FB683A689A603B687A681A6158
:104E00007B681B685A1C7B681A6000BF1437BD465C
:104E10005DF8047B704780B485B000AF786039607E
:104E20003B681B68BB60BB68B3F1FF3F03D17B6885
:104E30001B69FB600CE07B680833FB6002E0FB68E9
:104E40005B68FB60FB685B681B68BA689A42F6D2D5
:104E5000FB685A683B685A603B685B683A689A60CE
:104E60003B68FA689A60FB683A685A603B687A68FF
:104E70001A617B681B685A1C7B681A6000BF143774
:104E8000BD465DF8047B704780B485B000AF7860A4
:104E90007B681B69FB607B685B687A6892689A60D4
:104EA0007B689B687A6852685A60FB685B687A68BE
:104EB0009A4203D17B689A68FB685A607B6800223B
:104EC0001A61FB681B685A1EFB681A60FB681B6846
:104ED00018461437BD465DF8047B704780B58EB028
:104EE00004AFF860B9607A603B607B6B002B0BD13C
:104EF0004FF0500383F31188BFF36F8FBFF34F8FD1
:104F00003B6200BF00BFFDE7BB6B002B0BD14FF036
:104F1000500383F31188BFF36F8FBFF34F8FFB6193
:104F200000BF00BFFDE754233B613B69542B0BD00E
:104F30004FF0500383F31188BFF36F8FBFF34F8F90
:104F4000BB6100BF00BFFDE73B69BB6B002B1ED000
:104F50007B6B002B1BD0BB6B7B627B6A7A6B1A630B
:104F60007B6A022283F85120002303937B6A029319
:104F700007F1140301933B6B00933B687A68B968AF
:104F8000F86800F050F8786A00F0D6F801E00023E5
:104F90007B617B6918462837BD4680BD80B58CB0E3
:104FA00004AFF860B9603B601346FB80FB889B0050
:104FB000184600F041FD78617B69002B0ED054202B
:104FC00000F03AFDF861FB69002B03D0FB697A69B8
:104FD0001A6305E0786900F0FDFD01E00023FB6144
:104FE000FB69002B17D0FB69002283F85120FA8857
:104FF00000230393FB690293FB6A0193BB6A00934E
:105000003B68B968F86800F00EF8F86900F094F8A9
:105010000123BB6102E04FF0FF33BB61BB6918465F
:105020002037BD4680BD80B588B000AFF860B9605C
:105030007A603B603B6B1A6B7B6803F18043013BFA
:105040009B001344BB61BB6923F00703BB61BB69D1
:1050500003F00703002B0BD04FF0500383F31188AC
:10506000BFF36F8FBFF34F8F7B6100BF00BFFDE7C2
:10507000BB68002B1FD00023FB6112E0BA68FB69FC
:10508000134419783A6BFB69134434330A461A7097
:10509000BA68FB6913441B78002B06D0FB69013307
:1050A000FB61FB690F2BE9D900E000BF3B6B0022DD
:1050B00083F8432003E03B6B002283F83420BB6A73
:1050C000062B01D90623BB623B6BBA6ADA623B6BE3
:1050D000BA6A5A643B6B00229A643B6B04331846ED
:1050E000FFF768FE3B6B18331846FFF763FE3B6B18
:1050F0003A6B1A61BB6AC3F107023B6B9A613B6B67
:105100003A6B5A623B6B0022DA643B6B002283F8F5
:1051100050203A68F968B86900F07CFE02463B6BA3
:105120001A60FB6A002B02D0FB6A3A6B1A6000BF60
:105130002037BD4680BD000080B582B000AF7860EA
:1051400000F09AFF2A4B1B680133294A1360294B50
:105150001B68002B09D1274A7B681360244B1B680E
:10516000012B10D100F0C4FA0DE0234B1B68002B7B
:1051700009D1204B1B68DA6A7B68DB6A9A4202D845
:105180001C4A7B6813601D4B1B6801331B4A13606C
:105190007B68DB6A01229A40194B1B681343184A4B
:1051A00013607B68DA6A13469B0013449B00154A20
:1051B0001A447B68043319461046FFF708FE00F0D6
:1051C0008DFF0D4B1B68002B0ED00A4B1B68DA6A53
:1051D0007B68DB6A9A4207D20B4B4FF080521A6011
:1051E000BFF34F8FBFF36F8F00BF0837BD4680BD41
:1051F00048050020480400205405002064050020D4
:10520000500500204C04002004ED00E080B584B07F
:1052100000AF78600023FB607B68002B18D0144B34
:105220001B68002B0BD04FF0500383F31188BFF3A2
:105230006F8FBFF34F8FBB6000BF00BFFDE700F073
:105240007DF80021786800F011FB00F085F8F86027
:10525000FB68002B07D1074B4FF080521A60BFF359
:105260004F8FBFF36F8F00BF1037BD4680BD00BFAB
:105270007005002004ED00E080B58AB004AF002383
:10528000BB6000237B603A46391D07F108031846CE
:1052900001F01AF939687B68BA6802920193002319
:1052A000009300230A461F491F48FFF717FE0346D5
:1052B0001E4A13601D4B1B68002B02D001237B612B
:1052C00001E000237B617B69012B16D14FF0500375
:1052D00083F31188BFF36F8FBFF34F8F3B6100BF24
:1052E000134B4FF0FF321A60124B01221A60124B1F
:1052F00000221A6000F01CFE0FE07B69B3F1FF3F53
:105300000BD14FF0500383F31188BFF36F8FBFF3BE
:105310004F8FFB6000BF00BFFDE700BF1837BD46E1
:1053200080BD00BFF0090108C15600086C050020CF
:1053300068050020540500204C05002080B400AF13
:10534000044B1B680133034A136000BFBD465DF880
:10535000047B70477005002080B584B000AF002347
:10536000FB600023BB60424B1B68002B0BD14FF04E
:10537000500383F31188BFF36F8FBFF34F8F3B60F0
:1053800000BF00BFFDE700F077FE394B1B68013B13
:10539000374A1360364B1B68002B61D1354B1B68B5
:1053A000002B5DD02EE0344BDB68DB68FB60FB68D4
:1053B00018331846FFF768FDFB6804331846FFF7FB
:1053C00063FDFB68DB6A01229A402C4B1B68134388
:1053D0002A4A1360FB68DA6A13469B0013449B0059
:1053E000274A1A44FB68043319461046FFF7EFFCBE
:1053F000FB68DA6A234B1B68DB6A9A4202D3224BB2
:1054000001221A601C4B1B68002BCCD1FB68002BBF
:1054100001D000F00BFA1D4B1B687B607B68002BF2
:1054200010D000F037F80346002B02D0164B0122B3
:105430001A607B68013B7B607B68002BF1D1134BCA
:1054400000221A60104B1B68002B09D00123BB609F
:105450000F4B4FF080521A60BFF34F8FBFF36F8F27
:1054600000F03CFEBB6818461037BD4680BD00BF4B
:105470007005002048050020080500205005002088
:105480004C040020480400205C0500205805002042
:1054900004ED00E080B586B000AF00237B614F4B88
:1054A0001B68002B40F08F804D4B1B6801333B6124
:1054B0004B4A3B6913603B69002B21D1494B1B6868
:1054C0001B68002B0BD04FF0500383F31188BFF300
:1054D0006F8FBFF34F8F3B6000BF00BFFDE7414BB5
:1054E0001B68FB60404B1B683E4A13603E4AFB68EA
:1054F00013603E4B1B6801333C4A136000F096F981
:105500003B4B1B683A699A4248D3364B1B681B6871
:10551000002B04D1364B4FF0FF321A603EE0314B86
:105520001B68DB68DB68BB60BB685B687B603A69F3
:105530007B689A4203D22E4A7B6813602EE0BB68D8
:1055400004331846FFF7A0FCBB689B6A002B04D00D
:10555000BB6818331846FFF797FCBB68DB6A01226B
:105560009A40244B1B681343224A1360BB68DA6AD3
:1055700013469B0013449B001F4A1A44BB68043324
:1055800019461046FFF723FCBB68DA6A1B4B1B6801
:10559000DB6A9A42B9D301237B61B6E7174B1B68DC
:1055A000DA6A154913469B0013449B000B441B68A1
:1055B000012B01D901237B61114B1B68002B07D004
:1055C00001237B6104E00F4B1B6801330D4A13601C
:1055D0007B6918461837BD4680BD00BF70050020A6
:1055E0004C05002000050020040500206005002077
:1055F00068050020500500204C04002048040020CD
:105600005C0500205805002080B487B000AF274B10
:105610001B68002B03D0264B01221A6040E0244B6C
:1056200000221A60234B1B68FB60FB68B3FA83F30C
:10563000FB72FB7AC3F11F037B611F497A69134632
:105640009B0013449B000B441B68002B0BD14FF0B5
:10565000500383F31188BFF36F8FBFF34F8F7B60CD
:1056600000BF00BFFDE77A6913469B0013449B000F
:10567000114A13443B613B695B685A683B695A6055
:105680003B695A683B6908339A4204D13B695B68BD
:105690005A683B695A603B695B68DB68074A13607C
:1056A00000BF1C37BD465DF8047B704770050020C5
:1056B0005C050020500500204C0400204804002018
:1056C00080B582B000AF786000F052F8064B1B68DE
:1056D000012BF9D9054B4FF080521A60BFF34F8F61
:1056E000BFF36F8FF0E700BF4C04002004ED00E033
:1056F00080B582B000AF00237B600CE07A6813466F
:105700009B0013449B00124A13441846FFF732FBD8
:105710007B6801337B607B68062BEFD90D48FFF770
:1057200029FB0D48FFF726FB0C48FFF723FB0C482D
:10573000FFF720FB0B48FFF71DFB0B4B054A1A60D8
:105740000A4B054A1A6000BF0837BD4680BD00BF3E
:105750004C040020D8040020EC04002008050020A0
:105760001C05002034050020000500200405002051
:1057700080B582B000AF19E000F07EFC104BDB6812
:10578000DB687B607B6804331846FFF77DFB0D4BBD
:105790001B68013B0B4A13600B4B1B68013B0A4A19
:1057A000136000F09BFC786800F010F8064B1B6853
:1057B000002BE1D100BF00BF0837BD4680BD00BF50
:1057C0001C050020480500203005002080B584B06D
:1057D00000AF78607B6893F85130002B08D17B686C
:1057E0001B6B184600F0F6F9786800F0F3F919E041
:1057F0007B6893F85130012B03D1786800F0EAF907
:1058000010E07B6893F85130022B0BD04FF050031F
:1058100083F31188BFF36F8FBFF34F8FFB6000BF1F
:1058200000BFFDE700BF1037BD4680BD80B483B028
:1058300000AF0C4B1B681B68002B04D10A4B4FF0C8
:10584000FF321A6008E0074B1B68DB68DB687B608F
:105850007B685B68044A136000BF0C37BD465DF887
:10586000047B7047000500206805002080B584B0E7
:1058700000AF78603960294B1B68FB60284B1B68C0
:1058800004331846FFF700FB0346002B0BD1244BD3
:105890001B68DB6A012202FA03F3DA43214B1B681F
:1058A0001340204A13607B68B3F1FF3F0AD13B6885
:1058B000002B07D01A4B1B68043319461A48FFF710
:1058C00086FA26E0FA687B681344BB60144B1B68B9
:1058D000BA685A60BA68FB689A4209D2134B1A68D0
:1058E0000F4B1B68043319461046FFF794FA10E07B
:1058F0000F4B1A680A4B1B68043319461046FFF712
:105900008AFA0C4B1B68BA689A4202D2094ABB68F1
:10591000136000BF1037BD4680BD00BF4C0500209E
:105920004804002050050020340500200405002014
:10593000000500206805002080B485B000AF034654
:10594000FB800023FB60B7F90630842B05D0B7F944
:105950000620FB6813440333FB60FB6818461437CA
:10596000BD465DF8047B704780B500AFFFF784FC4F
:105970000023184680BDF0B589B004AF7860396067
:105980007B685B69002B20D07B689B69002B1CD057
:105990007B685C687B681D687B681E697B68B3F9FF
:1059A00008301846FFF7C8FF01467B685B697A68D4
:1059B00092690292019300913B6832462946204643
:1059C000FFF78CFA0346FB601CE07B685C687B6831
:1059D0001D687B681B699EB27B68B3F90830184666
:1059E000FFF7AAFF024607F10C03019300923B6800
:1059F000324629462046FFF7D1FA0346012B01D053
:105A0000002300E0FB6818461437BD46F0BD80B5A2
:105A100084B000AF78607B68FB60FB68002B01D02E
:105A2000FB6800E001231846FFF7F0FB002318464F
:105A30001037BD4680BD000080B58AB000AF7860E9
:105A40000023FB61FFF77AFC5C4B1B68002B01D144
:105A500000F024F95A4B1A687B681340002B40F081
:105A600095807B68002B1ED008227B6813447B60E6
:105A70007B6803F00703002B15D07B6823F0070336
:105A800008337B607B6803F00703002B0BD04FF0DB
:105A9000500383F31188BFF36F8FBFF34F8F7B6188
:105AA00000BF00BFFDE77B68002B6FD0454B1B6834
:105AB0007A689A426AD8444B3B62434B1B687B62CC
:105AC00004E07B6A3B627B6A1B687B627B6A5B6883
:105AD0007A689A4203D97B6A1B68002BF1D1374B55
